:020000040000FA
:0400000007EF00F016
:0A000800548254ED1EF04DEF1FF07E
:1008000000A4084C0872080908090243000201000C
:10081000C032090400000102020100052400100199
:100820000424020205240600010524010001070535
:1008300081030A000209040100020A000000070502
:100840000202400000070582024000002603440027
:1008500069006C007300680061006E0020005200A7
:1008600020004A006100790061006B006F006400A5
:1008700079002003540065007300740020005500C7
:1008800053004200200044006500760069006300C8
:1008900065001201000202000020D8040A000001D5
:0908A00001020001040309040037
:1008AA0004013205D8A45CEF04F05EEF04F078EF9F
:1008BA0004F030511F0B0009D8A466EF04F068EF6A
:1008CA0004F078EF04F00C8E030E3119D8A470EFFF
:1008DA0004F072EF04F076EF04F0010E266E78EF62
:1008EA0004F0000E266E3251D8A47EEF04F080EF99
:1008FA0004F00FEF06F030511F0B020AD8A488EF5C
:10090A0004F08AEF04F00FEF06F034510F0B0009E0
:10091A00D8B492EF04F094EF04F00FEF06F03451DC
:10092A000F0B0001F26F030EF2619EEF04F0A0EFCD
:10093A0004F00FEF06F0200E2918D8A4A7EF04F050
:10094A00A9EF04F00FEF06F00C8E040134BFB0EFEC
:10095A0004F0B2EF04F0D2EF04F034510F0B0001AF
:10096A00F26FF251020DAA0EF324D96E000EF42092
:10097A00DA6EDECFF7F0DDCFF8F0040134510F0B59
:10098A000001F26FF36B150EF225D96E000EF321FA
:10099A00DA6EDF50F66FF0EF04F034510F0B0001FE
:1009AA00F26FF251020D0F0EF324D96E000EF420ED
:1009BA00DA6EDECFF7F0DDCFF8F0040134510F0B19
:1009CA000001F26FF36B180EF225D96E000EF321B7
:1009DA00DA6EDF50F66FF6B1F5EF04F0F7EF04F0D8
:1009EA00FFEF04F0FB0EF715F76FFF0EF815F86F1F
:1009FA0004EF05F0040EF711F76FF851F86F0401D0
:100A0A0034BF0AEF05F00CEF05F01EEF05F0345184
:100A1A000F0B0001F26FF251020DAA0EF324D96EE8
:100A2A00000EF420DA6EF7C0DEFFF8C0DDFF2EEF0D
:100A3A0005F034510F0B0001F26FF251020D0F0E47
:100A4A00F324D96E000EF420DA6EF7C0DEFFF8C088
:100A5A00DDFF030E04013119D8A436EF05F038EF93
:100A6A0005F074EF05F0F7C0D9FFF8C0DAFF00010E
:100A7A00DFAE42EF05F044EF05F066EF05F0040142
:100A8A0034BF4AEF05F04CEF05F05AEF05F0345148
:100A9A000F0B0001F26FF36B150EF225D96E000EE3
:100AAA00F321DA6EDF8266EF05F034510F0B000195
:100ABA00F26FF36B180EF225D96E000EF321DA6E7F
:100ACA00DF82F7C0D9FFF8C0DAFF000EDB84F7C077
:100ADA00D9FFF8C0DAFF000EDB8E0FEF06F0040E26
:100AEA000001F719F76FF851F86FF7C0D9FFF8C08E
:100AFA00DAFFDFAE83EF05F085EF05F0A1EF05F031
:100B0A00F7C0D9FFF8C0DAFF7F0EDF16F7C0D9FFAA
:100B1A00F8C0DAFF000EDB8C000EEB6F050EEA6FF1
:100B2A00F7C0ECF0F8C0EDF0000EEF6F020EEE6FBA
:100B3A0061EC1CF0A7EF05F0F7C0D9FFF8C0DAFFA7
:100B4A00000EDB8C040E0001F719F76FF851F86FED
:100B5A00F6B3B2EF05F0B4EF05F0BFEF05F0F7C05A
:100B6A00D9FFF8C0DAFFDFAEBDEF05F0BFEF05F041
:100B7A00F7EF05F0040134BFC5EF05F0C7EF05F044
:100B8A00D5EF05F034510F0B0001F26FF36B150E20
:100B9A00F225D96E000EF321DA6EDF92E1EF05F04D
:100BAA0034510F0B0001F26FF36B180EF225D96E58
:100BBA00000EF321DA6EDF92F7C0D9FFF8C0DAFF30
:100BCA003B0EDF16000EEB6F050EEA6FF7C0ECF076
:100BDA00F8C0EDF0000EEF6F020EEE6F61EC1CF044
:100BEA00FDEF05F0F7C0D9FFF8C0DAFF3B0EDF16BC
:100BFA00040134510F0B0001F26FF36B700EF225F2
:100C0A00F46F0F0EF321F56FF4C0D9FFF5C0DAFFC8
:100C1A00FE0EDF16120004013205D8A417EF06F003
:100C2A0019EF06F033EF06F030511F0B0009D8A474
:100C3A0021EF06F023EF06F033EF06F00C8E030ED9
:100C4A003119D8A42BEF06F02DEF06F031EF06F09C
:100C5A00010E266E33EF06F0000E266E3251D8A42E
:100C6A0039EF06F03BEF06F0B5EF07F030511F0BF6
:100C7A00020AD8A443EF06F045EF06F0B5EF07F0F5
:100C8A0034510F0B0009D8B44DEF06F04FEF06F0C0
:100C9A00B5EF07F034510F0B3F6E030E3F6058EF6C
:100CAA0006F05AEF06F0B5EF07F0200E2918D8A47F
:100CBA0061EF06F063EF06F0B5EF07F00C8E34BF74
:100CCA0069EF06F06BEF06F088EF06F034510F0B70
:100CDA003F6E3F50020DAA0EF324D96E000EF42087
:100CEA00DA6EDECF44F0DDCF45F034510F0B3F6EA4
:100CFA00406A150E3F24D96E000E4020DA6EDF508E
:100D0A00436EA3EF06F034510F0B3F6E3F50020DB6
:100D1A000F0EF324D96E000EF420DA6EDECF44F003
:100D2A00DDCF45F034510F0B3F6E406A180E3F2459
:100D3A00D96E000E4020DA6EDF50436E43B0A8EF42
:100D4A0006F0AAEF06F0B2EF06F0FB0E4414446E6A
:100D5A00FF0E4514456EB7EF06F0040E4410446EBC
:100D6A004550456E34BFBCEF06F0BEEF06F0CFEF3C
:100D7A0006F034510F0B3F6E3F50020DAA0EF324BA
:100D8A00D96E000EF420DA6E44C0DEFF45C0DDFFE6
:100D9A00DEEF06F034510F0B3F6E3F50020D0F0E7F
:100DAA00F324D96E000EF420DA6E44C0DEFF45C08B
:100DBA00DDFF030E3119D8A4E5EF06F0E7EF06F0E0
:100DCA001FEF07F044C0D9FF45C0DAFFDFAEF0EFEE
:100DDA0006F0F2EF06F011EF07F034BFF7EF06F076
:100DEA00F9EF06F006EF07F034510F0B3F6E406A39
:100DFA00150E3F24D96E000E4020DA6EDF8211EF05
:100E0A0007F034510F0B3F6E406A180E3F24D96E1B
:100E1A00000E4020DA6EDF8244C0D9FF45C0DAFFF7
:100E2A00000EDB8444C0D9FF45C0DAFF000EDB8E1A
:100E3A00B5EF07F0040E4418446E4550456E44C0A1
:100E4A00D9FF45C0DAFFDFAE2DEF07F02FEF07F02D
:100E5A004BEF07F044C0D9FF45C0DAFF7F0EDF161B
:100E6A0044C0D9FF45C0DAFF000EDB8C000E386E95
:100E7A00050E376E44C039F045C03AF0000E3C6E9C
:100E8A00020E3B6EA6EC1CF051EF07F044C0D9FFEE
:100E9A0045C0DAFF000EDB8C040E4418446E455040
:100EAA00456E43B25BEF07F05DEF07F068EF07F0BE
:100EBA0044C0D9FF45C0DAFFDFAE66EF07F068EF3E
:100ECA0007F09EEF07F0040134BF6EEF07F070EFF2
:100EDA0007F07DEF07F034510F0B3F6E406A150E95
:100EEA003F24D96E000E4020DA6EDF9288EF07F0B9
:100EFA0034510F0B3F6E406A180E3F24D96E000E14
:100F0A004020DA6EDF9244C0D9FF45C0DAFF3B0EBB
:100F1A00DF16000E386E050E376E44C039F045C034
:100F2A003AF0000E3C6E020E3B6EA6EC1CF0A4EFEB
:100F3A0007F044C0D9FF45C0DAFF3B0EDF160401B3
:100F4A0034510F0B3F6E406A700E3F24416E0F0EF4
:100F5A004020426E41C0D9FF42C0DAFFFE0EDF16C2
:100F6A0012002904D8A4BCEF07F0BEEF07F0CBEFBC
:100F7A0007F06DBAC3EF07F0C5EF07F0CBEF07F044
:100F8A00000E686E69806988020E296E68A4D0EF27
:100F9A0007F0D2EF07F0DCEF07F069A4D7EF07F00C
:100FAA00D9EF07F0DCEF07F0689491EC1FF06DA21F
:100FBA00E1EF07F0E3EF07F0E6EF07F0A19ACDEFD4
:100FCA0008F068A0EBEF07F0EDEF07F0FAEF07F093
:100FDA0069A0F2EF07F0F4EF07F0FAEF07F08BECF5
:100FEA000DF0A08A040E296E689068A8FFEF07F03A
:100FFA0001EF08F00AEF08F069A806EF08F008EF19
:10100A0008F00AEF08F03AEC20F068AC0FEF08F0AD
:10101A0011EF08F03EEF08F069AC16EF08F018EF90
:10102A0008F027EF08F0000E0001EB6F730EEA6F6D
:10103A00000EEC6F000EED6F000EEF6F010EEE6FFB
:10104A0061EC1CF0689CEEEC1FF00001CA51D8B4A8
:10105A0031EF08F033EF08F034EF08F0CA07CA514D
:10106A00D8A43AEF08F03CEF08F03EEF08F0DDECC8
:10107A0017F068AA43EF08F045EF08F04EEF08F0C2
:10108A0069AA4AEF08F04CEF08F04EEF08F0F4ECCA
:10109A001DF068A253EF08F055EF08F06CEF08F066
:1010AA0069A25AEF08F05CEF08F06CEF08F07F0EC7
:1010BA000001EB6FEA69000EEC6F000EED6F000E97
:1010CA00EF6F010EEE6F61EC1CF0000E6A6E040EFB
:1010DA00296072EF08F074EF08F077EF08F0A19A30
:1010EA00CDEF08F069A67CEF08F07EEF08F0CCEFB0
:1010FA0008F0000E0101036F68A686EF08F088EF7A
:10110A0008F0CCEF08F06CCFDDF00001DD31E832F9
:10111A00E8320F0BCB6F6896DDB596EF08F098EFC3
:10112A0008F0A1EF08F0150ECB25D96EDA6A000E89
:10113A00DA22DF70A8EF08F0180ECB25D96EDA6A2A
:10114A00000EDA22DF70CB51D8A4AEEF08F0B0EF70
:10115A0008F0B4EF08F0B7EC19F0C2EF08F0000E8F
:10116A00EB6F720EEA6FDD0EEC6F000EED6F000E84
:10117A00EF6F000EEE6F61EC1CF00101032B030E02
:10118A000365CAEF08F0CCEF08F081EF08F0A19AE6
:10119A0012002904D8A4D4EF08F0D6EF08F0E3EF40
:1011AA0008F06DBADBEF08F0DDEF08F0E3EF08F0C6
:1011BA00000E686E69806988020E296E68A4E8EFDD
:1011CA0008F0EAEF08F0F4EF08F069A4EFEF08F08E
:1011DA00F1EF08F0F4EF08F06894B2EC1FF06DA29A
:1011EA00F9EF08F0FBEF08F0FEEF08F0A19AE1EF43
:1011FA0009F068A003EF09F005EF09F012EF09F012
:10120A0069A00AEF09F00CEF09F012EF09F032ECCD
:10121A000EF0A08A040E296E689068A817EF09F0EC
:10122A0019EF09F022EF09F069A81EEF09F020EF83
:10123A0009F022EF09F051EC20F068AC27EF09F031
:10124A0029EF09F055EF09F069AC2EEF09F030EFFC
:10125A0009F03EEF09F0000E386E730E376E000E7D
:10126A00396E000E3A6E000E3C6E010E3B6EA6EC15
:10127A001CF0689C08EC20F00001CA51D8B448EF71
:10128A0009F04AEF09F04BEF09F0CA07CA51D8A48E
:10129A0051EF09F053EF09F055EF09F055EC18F04A
:1012AA0068AA5AEF09F05CEF09F065EF09F069AA3C
:1012BA0061EF09F063EF09F065EF09F024EC1EF025
:1012CA0068A26AEF09F06CEF09F082EF09F069A2EF
:1012DA0071EF09F073EF09F082EF09F07F0E386EB3
:1012EA003768000E396E000E3A6E000E3C6E010E23
:1012FA003B6EA6EC1CF0000E6A6E040E296088EFA5
:10130A0009F08AEF09F08DEF09F0A19AE1EF09F0EF
:10131A0069A692EF09F094EF09F0E0EF09F0000EE8
:10132A00496E68A69BEF09F09DEF09F0E0EF09F01E
:10133A006CCFDDF00001DD31E832E8320F0BCB6F04
:10134A006896DDB5ABEF09F0ADEF09F0B6EF09F03D
:10135A00150ECB25D96EDA6A000EDA22DF70BDEFE0
:10136A0009F0180ECB25D96EDA6A000EDA22DF7080
:10137A00CB51D8A4C3EF09F0C5EF09F0C9EF09F0C2
:10138A0017EC1AF0D7EF09F0000E386E720E376EAE
:10139A00DD0E396E000E3A6E000E3C6E000E3B6E8C
:1013AA00A6EC1CF0492A030E4964DEEF09F0E0EFCF
:1013BA0009F096EF09F0A19A1200A09A0001BE5115
:1013CA00BF11D8B4EBEF09F0EDEF09F0FBEF09F02C
:1013DA00BEC0D9FFBFC0DAFFDFAEF6EF09F0F8EF03
:1013EA0009F0FBEF09F0A08AADEF0AF0030E1F180F
:1013FA00D8A402EF0AF004EF0AF006EF0AF0000E92
:10140A001F6E1F50D8A40CEF0AF00EEF0AF011EF6E
:10141A000AF0A08AADEF0AF0020E1F18D8A418EF3E
:10142A000AF01AEF0AF02DEF0AF0010EDE6F000E35
:10143A00DF6F000EE06F000EE16F020E1AEC10F083
:10144A00DEC0BEF0DFC0BFF0030E1F6EACEF0AF0C5
:10145A001F04D8A433EF0AF035EF0AF0ACEF0AF014
:10146A00400EC6653BEF0AF03DEF0AF041EF0AF085
:10147A00400EEA6F43EF0AF0C6C0EAF0EA51C65DD1
:10148A00C66F000EB86F050EB96FEAC0E9F0C55114
:10149A00D8A452EF0AF054EF0AF07EEF0AF065EF93
:1014AA000AF0BBC0D9FFBCC0DAFFB8C0E1FFB9C0BF
:1014BA00E2FFDFCFE7FFB84BB92BBB4BBC2BE907E9
:1014CA00E951D8A46BEF0AF06DEF0AF056EF0AF073
:1014DA0086EF0AF0BBC0D9FFBCC0DAFFB8C0E1FF93
:1014EA00B9C0E2FFDFCFE7FFB84BB92BBB4BBC2B30
:1014FA00E907E951D8A484EF0AF086EF0AF06FEF02
:10150A000AF0C651D8A48CEF0AF08EEF0AF09DEFCC
:10151A000AF0400EEA19D8A495EF0AF097EF0AF0FC
:10152A009BEF0AF0020E1F6E9DEF0AF0030E1F6E6C
:10153A00010EDE6F000EDF6F050EE06FEAC0E1F00C
:10154A00020E1AEC10F0DEC0BEF0DFC0BFF0A08AB7
:10155A001200DEC0E8F0DFC0E9F00001E251E31159
:10156A00D8A4BAEF0AF0BCEF0AF0BEEF0AF069EFAE
:10157A000BF0E8C0D9FFE9C0DAFFE0C0DFFFE251B3
:10158A00E825E46FE351E921E56FFF0EE425D96E02
:10159A00FF0EE521DA6EE0C0DFFFE35107E1030E3B
:1015AA00E25DD8B0DBEF0AF0DDEF0AF0DFEF0AF018
:1015BA0069EF0BF020EE01F0E851D926E951DA2261
:1015CA00E0C0DFFF20EE02F0E851D926E951DA2225
:1015DA00E0C0DFFFE251E825E46FE351E921E56F5E
:1015EA00FE0EE425D96EFF0EE521DA6EE0C0DFFFBC
:1015FA00E251E825E46FE351E921E56FFD0EE425A8
:10160A00D96EFF0EE521DA6EE0C0DFFFE35107E194
:10161A00070EE25DD8B014EF0BF016EF0BF018EFDF
:10162A000BF069EF0BF020EE03F0E851D926E951EF
:10163A00DA22E0C0DFFFE251E825E46FE351E92155
:10164A00E56FFC0EE425D96EFF0EE521DA6EE0C0E7
:10165A00DFFFE35107E1090EE25DD8B037EF0BF087
:10166A0039EF0BF03BEF0BF069EF0BF0E8C0E4F059
:10167A00E9C0E5F0E41FE51FE44BE52B030EE41592
:10168A00E66FE76BE651E827E751E923E651E25FA7
:10169A00E751E35BFC0EE217FF0EE31760EF0BF076
:1016AA00E8C0D9FFE9C0DAFFE0C0DFFFE207D8A04F
:1016BA00E307E84BE92BE251E311D8A467EF0BF0FB
:1016CA0069EF0BF055EF0BF012002BC035F02CC070
:1016DA0036F02F503010D8A475EF0BF077EF0BF0DF
:1016EA0079EF0BF024EF0CF035C0D9FF36C0DAFFE2
:1016FA002DC0DFFF2F503524316E30503620326E28
:10170A00FF0E3124D96EFF0E3220DA6E2DC0DFFFB4
:10171A00305007E1030E2F5CD8B096EF0BF098EF2C
:10172A000BF09AEF0BF024EF0CF020EE01F035509D
:10173A00D9263650DA222DC0DFFF20EE02F03550CE
:10174A00D9263650DA222DC0DFFF2F503524316ECC
:10175A0030503620326EFE0E3124D96EFF0E322002
:10176A00DA6E2DC0DFFF2F503524316E305036200F
:10177A00326EFD0E3124D96EFF0E3220DA6E2DC084
:10178A00DFFF305007E1070E2F5CD8B0CFEF0BF028
:10179A00D1EF0BF0D3EF0BF024EF0CF020EE03F0B7
:1017AA003550D9263650DA222DC0DFFF2F50352486
:1017BA00316E30503620326EFC0E3124D96EFF0E57
:1017CA003220DA6E2DC0DFFF305007E1090E2F5CA0
:1017DA00D8B0F2EF0BF0F4EF0BF0F6EF0BF024EFCA
:1017EA000CF035C031F036C032F0311E321E314AAB
:1017FA00322A030E3114336E346A3350352634508C
:10180A00362233502F5E3450305AFC0E2F16FF0EFC
:10181A0030161BEF0CF035C0D9FF36C0DAFF2DC0E9
:10182A00DFFF2F06D8A03006354A362A2F5030104F
:10183A00D8A422EF0CF024EF0CF010EF0CF01200F9
:10184A00800E04013019D8A42DEF0CF02FEF0CF004
:10185A00DAEF0CF0C00E0C6EC0EF0CF0920E096EAF
:10186A00080E0A6E000E0E6E120E0D6EDAEF0CF0F6
:10187A0004013251D8A444EF0CF046EF0CF086EF85
:10188A000CF03251020D070EF324F66E080EF42006
:10189A00F76E0900F5CF09F00A00F5CF0AF0020E3B
:1018AA0009240001DE6F000E0A20DF6FDEC0F6FF9A
:1018BA00DFC0F7FFF86A070EF76403D00800F55097
:1018CA0005D0F6CFE1FFF7CFE2FFE7500D6E030E2A
:1018DA0009240001DE6F000E0A20DF6FDEC0F6FF6A
:1018EA00DFC0F7FFF86A070EF76403D00800F55067
:1018FA0005D0F6CFE1FFF7CFE2FFE7500E6EDAEF41
:10190A000CF0000E0C6EDAEF0CF0030E04013261DB
:10191A0091EF0CF093EF0CF0B8EF0CF03251020D8E
:10192A00010EF324F66E080EF420F76E0900F5CFC7
:10193A0009F00A00F5CF0AF009C0F6FF0AC0F7FF5E
:10194A00F86A070EF76403D00800F55005D0F6CF01
:10195A00E1FFF7CFE2FFE7500001DE6FDE510D6EC7
:10196A000E6ADAEF0CF0000E0C6EDAEF0CF0000ED5
:10197A000C6EDAEF0CF033510001DE6FDF6BDF51D2
:10198A00000AD8B4CBEF0CF0BCEF0CF0DE51010A20
:10199A00D8B433EF0CF0030AD8B43DEF0CF0010AC7
:1019AA00D8B48AEF0CF0BCEF0CF01200800E0401E0
:1019BA003019D8A4E3EF0CF0E5EF0CF08AEF0DF044
:1019CA00C00E0C6E71EF0DF0920E096E080E0A6EC3
:1019DA00000E0E6E120E0D6E8AEF0DF03251D8A463
:1019EA00F9EF0CF0FBEF0CF039EF0DF03251020D6C
:1019FA00070EF324F66E080EF420F76E0900F5CFF1
:101A0A0009F00A00F5CF0AF0020E09242B6E000E27
:101A1A000A202C6E2BC0F6FF2CC0F7FFF86A070EBF
:101A2A00F76403D00800F55005D0F6CFE1FFF7CFF1
:101A3A00E2FFE7500D6E030E09242B6E000E0A20FA
:101A4A002C6E2BC0F6FF2CC0F7FFF86A070EF7645E
:101A5A0003D00800F55005D0F6CFE1FFF7CFE2FF3B
:101A6A00E7500E6E8AEF0DF0000E0C6E8AEF0DF045
:101A7A00030E326143EF0DF045EF0DF069EF0DF003
:101A8A003251020D010EF324F66E080EF420F76EA1
:101A9A000900F5CF09F00A00F5CF0AF009C0F6FFF0
:101AAA000AC0F7FFF86A070EF76403D00800F5507A
:101ABA0005D0F6CFE1FFF7CFE2FFE7502B6E2B50B0
:101ACA000D6E0E6A8AEF0DF0000E0C6E8AEF0DF0A5
:101ADA00000E0C6E8AEF0DF033512B6E2C6A2C50CF
:101AEA00000AD8B47BEF0DF06DEF0DF02B50010A10
:101AFA00D8B4E9EF0CF0030AD8B4F3EF0CF0010AFA
:101B0A00D8B43DEF0DF06DEF0DF01200A09A000E63
:101B1A006A6E000E686E000E706E710E0001DE6F46
:101B2A000F0EDF6F000EE16F000EE06F000EE36F25
:101B3A00020EE26FAEEC0AF0160E6F6E9F0E6B6E1F
:101B4A007B0E696E000E0001EA6FEA51040D000E69
:101B5A00F324D96E040EF420DA6EDE6ADE6ADE6AD7
:101B6A00DD6AEA2B0B0EEA65BDEF0DF0BFEF0DF053
:101B7A00AAEF0DF06D8C000E6E6E6D986D9C6896D6
:101B8A00000E0C6E000E046E000E066E000E056E40
:101B9A0068B6D2EF0DF0D4EF0DF0C4EF0DF0010EE0
:101BAA00226E010E216E000E206E000E0001C96F1A
:101BBA00000E256E000EEA6FEA51020D0F0EF32495
:101BCA00D96E000EF420DA6E000EDE6E000EDD6EA7
:101BDA00EA51020DAA0EF324D96E000EF420DA6E31
:101BEA00000EDE6E000EDD6E180EEA25D96EDA6A78
:101BFA00000EDA22000EDF6E150EEA25D96EDA6AB9
:101C0A00000EDA22000EDF6EEA2B020EEA6510EFF2
:101C1A000EF012EF0EF0E1EF0DF0080E0F6E040E4B
:101C2A00106E160E706E040E0401036F300E026FF2
:101C3A00200E016F040E006F008F000E2A6E000E38
:101C4A000001B46F000EB56F000EB66F000EB76FCD
:101C5A00000EC86F000E296E1200A09A000E6A6E5E
:101C6A00000E686E000E706E710E2B6E0F0E2C6ECB
:101C7A00000E2E6E000E2D6E000E306E020E2F6EAE
:101C8A006AEC0BF0160E6F6E9F0E6B6E7B0E696E12
:101C9A00000E376E3750040D000EF324D96E040E71
:101CAA00F420DA6EDE6ADE6ADE6ADD6A372A0B0E35
:101CBA00376462EF0EF064EF0EF04FEF0EF06D8CAA
:101CCA00000E6E6E6D986D9C6896000E0C6E000E7E
:101CDA00046E000E066E000E056E68B677EF0EF003
:101CEA0079EF0EF069EF0EF0010E226E010E216EF1
:101CFA00000E206E000E0001C96F000E256E000E48
:101D0A00376E3750020D0F0EF324D96E000EF420F1
:101D1A00DA6E000EDE6E000EDD6E3750020DAA0E70
:101D2A00F324D96E000EF420DA6E000EDE6E000E79
:101D3A00DD6E180E3724D96EDA6A000EDA22000E2A
:101D4A00DF6E150E3724D96EDA6A000EDA22000E1B
:101D5A00DF6E372A020E3764B5EF0EF0B7EF0EF0DA
:101D6A0086EF0EF0080E0F6E040E106E160E706ED1
:101D7A00040E0401036F300E026F200E016F040E71
:101D8A00006F008F000E2A6E000E0001B46F000E65
:101D9A00B56F000EB66F000EB76F000EC86F000E5B
:101DAA00296E120020EE01F01D50D9261E50DA22AB
:101DBA00DF500001DF6FDF51055C000E0658D8B016
:101DCA00E9EF0EF0EBEF0EF0EDEF0EF005C0DFF0ED
:101DDA00DF51055E000E065A000EDE6F04EF0FF0AB
:101DEA00500EDE25D96EDA6A040EDA2201C0E1FF4E
:101DFA0002C0E2FFDFCFE7FF014A022ADE2BDF51F2
:101E0A00DE5DD8A00BEF0FF00DEF0FF0F5EF0EF03F
:101E1A0005500610D8B414EF0FF016EF0FF04FEF7D
:101E2A000FF020EE01F01B50D9261C50DA22200EAA
:101E3A00DF6E20EE02F01B50D9261C50DA22500E1B
:101E4A00DE6E040EDD6E1DC0D9FF1EC0DAFFDFBCD8
:101E5A0031EF0FF033EF0FF041EF0FF01BC0D9FF56
:101E6A001CC0DAFF480EDF6E1BC0D9FF1CC0DAFFA8
:101E7A00000EDB8E78EF0FF01BC0D9FF1CC0DAFF13
:101E8A00080EDF6E1BC0D9FF1CC0DAFF000EDB8E06
:101E9A0078EF0FF020EE01F01B50D9261C50DA2201
:101EAA00200EDF6E20EE02F01B50D9261C50DA22DB
:101EBA00300EDE6E040EDD6E1BC0D9FF1CC0DAFFC9
:101ECA00040EDF6E1BC0D9FF1CC0DAFF000EDB8ECA
:101EDA00049E2350D8A474EF0FF076EF0FF078EF3A
:101EEA000FF0DDEC17F012006D980CBE7FEF0FF0CB
:101EFA0081EF0FF0C7EF0FF004AE86EF0FF088EF17
:101F0A000FF09BEF0FF0020E276E0001C951D8A403
:101F1A0091EF0FF093EF0FF095EF0FF0CCEC1AF072
:101F2A00000E216E000E226E19EF10F020EE01F065
:101F3A001B50D9261C50DA22200EDF6E20EE02F04A
:101F4A001B50D9261C50DA22300EDE6E040EDD6ECE
:101F5A001BC0D9FF1CC0DAFF0C0EDF6E1BC0D9FFF5
:101F6A001CC0DAFF000EDB8E0FC0D9FF10C0DAFFEB
:101F7A00040EDF6E0FC0D9FF10C0DAFF000EDB8E31
:101F8A0019EF10F0040130AFCDEF0FF0CFEF0FF0E3
:101F9A00EBEF0FF0010E276E2050D8A4D7EF0FF009
:101FAA00D9EF0FF0DBEF0FF0CCEC1AF0000E216E38
:101FBA00000E226E2350D8A4E5EF0FF0E7EF0FF0E2
:101FCA0019EF10F0DDEC17F019EF10F0020E276E82
:101FDA0020EE01F01B50D9261C50DA22200EDF6EAB
:101FEA0020EE02F01B50D9261C50DA22300EDE6E8B
:101FFA00040EDD6E1BC0D9FF1CC0DAFF040EDF6EB3
:10200A001BC0D9FF1CC0DAFF000EDB8E000E216E4A
:10201A00000E226E2350D8A415EF10F017EF10F01F
:10202A0019EF10F0E7EF0FF012000001E66F000160
:10203A00DE51D8B423EF10F025EF10F033EF10F093
:10204A00E651020D0F0EF324D96E000EF420DA6E5B
:10205A00DECFE7F0DDCFE8F03FEF10F0E651020DFA
:10206A00AA0EF324D96E000EF420DA6EDECFE7F062
:10207A00DDCFE8F0E751E811D8A446EF10F048EFB9
:10208A0010F04EEF10F0000EDE6F000EDF6FBAEFA9
:10209A0010F020EE02F0E751D926E851DA22DFC02B
:1020AA00DEFFE0C0DDFF20EE01F0E751D926E8515E
:1020BA00DA22E1C0DFFFE7C0D9FFE8C0DAFF400E4D
:1020CA00DF16E7C0D9FFE8C0DAFF000EDB86E7C0FB
:1020DA00D9FFE8C0DAFF000EDB8EDE51D8B478EF04
:1020EA0010F07AEF10F099EF10F0E651020D0F0E92
:1020FA00F324D96E000EF420DA6EDECFE2F0DDCFE3
:10210A00E3F0040EE219E46FE351E56FE651020DC4
:10211A000F0EF324D96E000EF420DA6EE4C0DEFF4F
:10212A00E5C0DDFFB6EF10F0E651020DAA0EF3246A
:10213A00D96E000EF420DA6EDECFE2F0DDCFE3F0E6
:10214A00040EE219E46FE351E56FE651020DAA0E9F
:10215A00F324D96E000EF420DA6EE4C0DEFFE5C087
:10216A00DDFFE7C0DEF0E8C0DFF012006D980CBEBC
:10217A00C1EF10F0C3EF10F009EF11F004AEC8EF91
:10218A0010F0CAEF10F0DDEF10F0020E276E00011A
:10219A00C951D8A4D3EF10F0D5EF10F0D7EF10F053
:1021AA0023EC1BF0000E216E000E226E5BEF11F085
:1021BA0020EE01F01B50D9261C50DA22200EDF6EC9
:1021CA0020EE02F01B50D9261C50DA22300EDE6EA9
:1021DA00040EDD6E1BC0D9FF1CC0DAFF0C0EDF6EC9
:1021EA001BC0D9FF1CC0DAFF000EDB8E0FC0D9FF5F
:1021FA0010C0DAFF040EDF6E0FC0D9FF10C0DAFF7D
:10220A00000EDB8E5BEF11F0040130AF0FEF11F01F
:10221A0011EF11F02DEF11F0010E276E2050D8A406
:10222A0019EF11F01BEF11F01DEF11F023EC1BF069
:10223A00000E216E000E226E2350D8A427EF11F053
:10224A0029EF11F05BEF11F055EC18F05BEF11F08C
:10225A00020E276E20EE01F01B50D9261C50DA22FE
:10226A00200EDF6E20EE02F01B50D9261C50DA2217
:10227A00300EDE6E040EDD6E1BC0D9FF1CC0DAFF05
:10228A00040EDF6E1BC0D9FF1CC0DAFF000EDB8E06
:10229A00000E216E000E226E2350D8A457EF11F0C3
:1022AA0059EF11F05BEF11F029EF11F0120020EE57
:1022BA0001F01D50D9261E50DA22DF502C6E2C5008
:1022CA00055C000E0658D8B06DEF11F06FEF11F0F3
:1022DA0071EF11F005C02CF02C50055E000E065A65
:1022EA00000E2B6E88EF11F0500E2B24D96EDA6A8D
:1022FA00040EDA2201C0E1FF02C0E2FFDFCFE7FFEE
:10230A00014A022A2B2A2C502B5CD8A08FEF11F0FD
:10231A0091EF11F079EF11F005500610D8B498EF4B
:10232A0011F09AEF11F0D3EF11F020EE01F01B50EB
:10233A00D9261C50DA22200EDF6E20EE02F01B5046
:10234A00D9261C50DA22500EDE6E040EDD6E1DC038
:10235A00D9FF1EC0DAFFDFBCB5EF11F0B7EF11F0FD
:10236A00C5EF11F01BC0D9FF1CC0DAFF480EDF6EA3
:10237A001BC0D9FF1CC0DAFF000EDB8EFCEF11F088
:10238A001BC0D9FF1CC0DAFF080EDF6E1BC0D9FFC5
:10239A001CC0DAFF000EDB8EFCEF11F020EE01F01C
:1023AA001B50D9261C50DA22200EDF6E20EE02F0D6
:1023BA001B50D9261C50DA22300EDE6E040EDD6E5A
:1023CA001BC0D9FF1CC0DAFF040EDF6E1BC0D9FF89
:1023DA001CC0DAFF000EDB8E049E2350D8A4F8EF4F
:1023EA0011F0FAEF11F0FCEF11F055EC18F01200B1
:1023FA00336E2B50D8B404EF12F006EF12F014EF3C
:10240A0012F03350020D0F0EF324D96E000EF42091
:10241A00DA6EDECF34F0DDCF35F020EF12F0335034
:10242A00020DAA0EF324D96E000EF420DA6EDECF66
:10243A0034F0DDCF35F034503510D8A427EF12F040
:10244A0029EF12F02FEF12F0000E2B6E000E2C6EF9
:10245A009BEF12F020EE02F03450D9263550DA22E2
:10246A002CC0DEFF2DC0DDFF20EE01F03450D9264E
:10247A003550DA222EC0DFFF34C0D9FF35C0DAFF6B
:10248A00400EDF1634C0D9FF35C0DAFF000EDB86F6
:10249A0034C0D9FF35C0DAFF000EDB8E2B50D8B41A
:1024AA0059EF12F05BEF12F07AEF12F03350020D8F
:1024BA000F0EF324D96E000EF420DA6EDECF2FF061
:1024CA00DDCF30F0040E2F18316E3050326E33509B
:1024DA00020D0F0EF324D96E000EF420DA6E31C00D
:1024EA00DEFF32C0DDFF97EF12F03350020DAA0E65
:1024FA00F324D96E000EF420DA6EDECF2FF0DDCF92
:10250A0030F0040E2F18316E3050326E3350020DF7
:10251A00AA0EF324D96E000EF420DA6E31C0DEFF63
:10252A0032C0DDFF34C02BF035C02CF0120004019C
:10253A003039E832030B0009D8B4A6EF12F0A8EF3D
:10254A0012F0F3EF12F02DEF13F00C8E080E296E35
:10255A002DEF13F025EC0CF02DEF13F0CDEC18F065
:10256A002DEF13F02A0E096E000E0A6E0C80010E72
:10257A000D6E0C8E2DEF13F0CCEC14F02DEF13F042
:10258A0055EC04F02DEF13F0DB0E04013425096E2F
:10259A000A6A000E0A220C80010E0D6E0C8E2DEFB7
:1025AA0013F00C8EDB0E04013425D96EDA6A000EA4
:1025BA00DA2232C4DFFF2DEF13F0000E0001EB6FB9
:1025CA00020EEA6F000EEC6F000EED6F000EEF6F59
:1025DA00000EEE6F61EC1CF02DEF13F0315101018A
:1025EA00006F016B0151000AD8B4FEEF12F02DEF13
:1025FA0013F00051000AD8B4C1EF12F0010AD8B49E
:10260A00C5EF12F0020AD8B4C5EF12F0060AD8B420
:10261A00AAEF12F0030AD8B4AFEF12F0010AD8B445
:10262A00E2EF12F00F0AD8B4B7EF12F0010AD8B4E9
:10263A00B3EF12F0030AD8B4C9EF12F0010AD8B402
:10264A00D6EF12F0070AD8B42DEF13F02DEF13F0DE
:10265A00120004013039E832030B0009D8B438EF0C
:10266A0013F03AEF13F082EF13F0BBEF13F00C8E76
:10267A00080E296EBBEF13F0DBEC0CF0BBEF13F086
:10268A0044EC19F0BBEF13F02A0E096E000E0A6E25
:10269A000C80010E0D6E0C8EBBEF13F0DBEC16F006
:1026AA00BBEF13F010EC06F0BBEF13F0DB0E342592
:1026BA00096E0A6A000E0A220C80010E0D6E0C8E3B
:1026CA00BBEF13F00C8EDB0E3425D96EDA6A000EDE
:1026DA00DA2232C4DFFFBBEF13F0000E386E020EAF
:1026EA00376E000E396E000E3A6E000E3C6E000E0A
:1026FA003B6EA6EC1CF0BBEF13F03151466E476AF5
:10270A004750000AD8B48CEF13F0BBEF13F04650D1
:10271A00000AD8B453EF13F0010AD8B457EF13F0F4
:10272A00020AD8B457EF13F0060AD8B43CEF13F0F4
:10273A00030AD8B441EF13F0010AD8B472EF13F0C8
:10274A000F0AD8B449EF13F0010AD8B445EF13F0D1
:10275A00030AD8B45BEF13F0010AD8B467EF13F099
:10276A00070AD8B4BBEF13F0BBEF13F01200200E28
:10277A000001DE6F0E5007E1200E0D5CD8B0C8EFE5
:10278A0013F0CAEF13F0E2EF13F00DC0DEF0285099
:10279A00D8A4D2EF13F0D4EF13F0D8EF13F0010E50
:1027AA00286EE2EF13F02804D8A4DEEF13F0E0EF6E
:1027BA0013F0E2EF13F0020E286EDE510D5E000EEA
:1027CA000E5A20EE01F00F50D9261050DA22DEC040
:1027DA00DFFF500EC26F040EC36F0CB0F7EF13F099
:1027EA00F9EF13F03BEF14F016EF14F009C0F6FFFF
:1027FA000AC0F7FFF86AC2C0D9FFC3C0DAFF070EE2
:10280A00F76403D00800F55005D0F6CFE1FFF7CF03
:10281A00E2FFE750DF6E094A0A2A0001C24BC32BC6
:10282A00DE07DE51D8A41CEF14F01EEF14F0FBEF04
:10283A0013F043EF14F009C0F6FF0AC0F7FFF86A75
:10284A00C2C0D9FFC3C0DAFF070EF76403D008007D
:10285A00F55005D0F6CFE1FFF7CFE2FFE750DF6E84
:10286A00094A0A2A0001C24BC32BDE07DE51D8A44B
:10287A0041EF14F043EF14F020EF14F01200200E91
:10288A002B6E0E5007E1200E0D5CD8B04FEF14F0FE
:10289A0051EF14F069EF14F00DC02BF02850D8A4B2
:1028AA0059EF14F05BEF14F05FEF14F0010E286E8D
:1028BA0069EF14F02804D8A465EF14F067EF14F058
:1028CA0069EF14F0020E286E2B500D5E000E0E5AA0
:1028DA0020EE01F00F50D9261050DA222BC0DFFF6C
:1028EA00500E0001C26F040EC36F0CB07FEF14F0DC
:1028FA0081EF14F0C3EF14F09EEF14F009C0F6FF55
:10290A000AC0F7FFF86AC2C0D9FFC3C0DAFF070ED0
:10291A00F76403D00800F55005D0F6CFE1FFF7CFF2
:10292A00E2FFE750DF6E094A0A2A0001C24BC32BB5
:10293A002B062B50D8A4A4EF14F0A6EF14F083EFC3
:10294A0014F0CBEF14F009C0F6FF0AC0F7FFF86ADB
:10295A00C2C0D9FFC3C0DAFF070EF76403D008006C
:10296A00F55005D0F6CFE1FFF7CFE2FFE750DF6E73
:10297A00094A0A2A0001C24BC32B2B062B50D8A4A2
:10298A00C9EF14F0CBEF14F0A8EF14F01200000E08
:10299A000401506F000E516F29EF15F00C8E2604BA
:1029AA00D8A4DAEF14F0DCEF14F044EF15F00401C8
:1029BA00508344EF15F00C8E44EF15F00C8E040191
:1029CA0034BFEAEF14F0ECEF14F0FEEF14F03451D8
:1029DA000F0B0001DE6FDE51020DAA0EF324D96E31
:1029EA00000EF420DA6EDECFE0F0DDCFE1F00EEF7C
:1029FA0015F034510F0B0001DE6FDE51020D0F0E80
:102A0A00F324D96E000EF420DA6EDECFE0F0DDCFCB
:102A1A00E1F0E0C0D9FFE1C0DAFFDFAE17EF15F051
:102A2A0019EF15F044EF15F0E0C0D9FFE1C0DAFF65
:102A3A00DFA422EF15F024EF15F044EF15F0010E94
:102A4A000401506F44EF15F030511F0B0001DE6F87
:102A5A00DF6BDF51000AD8B435EF15F044EF15F0FB
:102A6A00DE51000AD8B4D3EF14F0010AD8B4E0EF6B
:102A7A0014F0030AD8B4E3EF14F044EF15F00CAEE7
:102A8A0049EF15F04BEF15F052EF15F0500E096EA5
:102A9A00040E0A6E0C80020E0D6E12000FC0D9FFD2
:102AAA0010C0DAFF000EDFBC010E0001DF6F040E5A
:102ABA000F180F6E1050106E080E2918D8A468EF60
:102ACA0015F06AEF15F07CEF15F0040132517F0B17
:102ADA006E6E6E50D8B474EF15F076EF15F07AEF8B
:102AEA0015F0100E296E7CEF15F0040E296E2704DE
:102AFA00D8A482EF15F084EF15F0CCEF15F020EE94
:102B0A0002F00F50D9261050DA22500EDE6E040E53
:102B1A00DD6EBCEC13F0020E2818D8A497EF15F05E
:102B2A0099EF15F0A7EF15F00FC0D9FF10C0DAFF23
:102B3A00040EDF6E0FC0D9FF10C0DAFF000EDB8E65
:102B4A00D6EF15F00001DF51D8A4AEEF15F0B0EFC3
:102B5A0015F0BEEF15F00FC0D9FF10C0DAFF480E0E
:102B6A00DF6E0FC0D9FF10C0DAFF000EDB8ED6EF82
:102B7A0015F00FC0D9FF10C0DAFF080EDF6E0FC0C4
:102B8A00D9FF10C0DAFF000EDB8ED6EF15F004AEC7
:102B9A00D1EF15F0D3EF15F0D4EF15F0049E000E27
:102BAA00276E1200040130511F0BE806D8B4E0EF7B
:102BBA0015F0E2EF15F0E4EF15F058EF16F03039A2
:102BCA00E832030BE806D8B4EDEF15F0EFEF15F095
:102BDA00F1EF15F058EF16F03451D8B4F7EF15F0BD
:102BEA00F9EF15F036EF16F03405D8B4FFEF15F00B
:102BFA0001EF16F036EF16F058EF16F0CC0E096E0C
:102C0A00000E0A6E000E0E6E080E0D6E0C800C8EF3
:102C1A0058EF16F0CC0E096E000E0A6E0C8E58EFA5
:102C2A0016F036C405F037C406F0D40E016E000E55
:102C3A00026E000E076E000E086E048E58EF16F034
:102C4A00D40E096E000E0A6E000E0E6E070E0D6E81
:102C5A00C10E0C6E58EF16F032C4C4F00C8E58EF49
:102C6A0016F031510001DE6FDF6BDF51000AD8B474
:102C7A0041EF16F058EF16F0DE51000AD8B403EF10
:102C8A0016F0010AD8B40FEF16F0210AD8B416EFDD
:102C9A0016F0010AD8B425EF16F0030AD8B431EFBA
:102CAA0016F058EF16F012000FC0D9FF10C0DAFF65
:102CBA00000EDFBC010E2C6E040E0F180F6E1050A2
:102CCA00106E080E2918D8A46DEF16F06FEF16F0E3
:102CDA0081EF16F0040132517F0B6E6E6E50D8B43C
:102CEA0079EF16F07BEF16F07FEF16F0100E296ED3
:102CFA0081EF16F0040E296E2704D8A487EF16F088
:102D0A0089EF16F0D0EF16F020EE02F00F50D92618
:102D1A001050DA22500EDE6E040EDD6E44EC14F012
:102D2A00020E2818D8A49CEF16F09EEF16F0ACEF0E
:102D3A0016F00FC0D9FF10C0DAFF040EDF6E0FC005
:102D4A00D9FF10C0DAFF000EDB8EDAEF16F02C5036
:102D5A00D8A4B2EF16F0B4EF16F0C2EF16F00FC017
:102D6A00D9FF10C0DAFF480EDF6E0FC0D9FF10C0BE
:102D7A00DAFF000EDB8EDAEF16F00FC0D9FF10C0B3
:102D8A00DAFF080EDF6E0FC0D9FF10C0DAFF000E9F
:102D9A00DB8EDAEF16F004AED5EF16F0D7EF16F0A9
:102DAA00D8EF16F0049E000E276E1200000E0401E2
:102DBA00506F000E516F33EF17F00C8E2604D8A413
:102DCA00E9EF16F0EBEF16F04DEF17F050834DEFE9
:102DDA0017F00C8E4DEF17F00C8E34BFF7EF16F08C
:102DEA00F9EF16F00AEF17F034510F0B2B6E2B5038
:102DFA00020DAA0EF324D96E000EF420DA6EDECF8D
:102E0A002DF0DDCF2EF019EF17F034510F0B2B6E8A
:102E1A002B50020D0F0EF324D96E000EF420DA6E39
:102E2A00DECF2DF0DDCF2EF02DC0D9FF2EC0DAFF78
:102E3A00DFAE22EF17F024EF17F04DEF17F02DC099
:102E4A00D9FF2EC0DAFFDFA42DEF17F02FEF17F00E
:102E5A004DEF17F0010E506F4DEF17F030511F0B69
:102E6A002B6E2C6A2C50000AD8B43EEF17F04DEFA7
:102E7A0017F02B50000AD8B4E2EF16F0010AD8B4C2
:102E8A00EEEF16F0030AD8B4F1EF16F04DEF17F093
:102E9A000CAE52EF17F054EF17F05BEF17F0500E2D
:102EAA00096E040E0A6E0C80020E0D6E12000401E9
:102EBA0030511F0BE806D8B465EF17F067EF17F02B
:102ECA0069EF17F0DCEF17F03039E832030BE80648
:102EDA00D8B472EF17F074EF17F076EF17F0DCEF53
:102EEA0017F03451D8B47CEF17F07EEF17F0BBEF30
:102EFA0017F03405D8B484EF17F086EF17F0BBEF5C
:102F0A0017F0DCEF17F0CC0E096E000E0A6E000EF9
:102F1A000E6E080E0D6E0C800C8EDCEF17F0CC0EC8
:102F2A00096E000E0A6E0C8EDCEF17F036C405F03F
:102F3A0037C406F0D40E016E000E026E000E076E44
:102F4A00000E086E048EDCEF17F0D40E096E000E28
:102F5A000A6E000E0E6E070E0D6EC10E0C6EDCEFC1
:102F6A0017F032C4C4F00C8EDCEF17F031512B6E1F
:102F7A002C6A2C50000AD8B4C5EF17F0DCEF17F012
:102F8A002B50000AD8B488EF17F0010AD8B494EF8E
:102F9A0017F0210AD8B49BEF17F0010AD8B4AAEFA8
:102FAA0017F0030AD8B4B6EF17F0DCEF17F01200E7
:102FBA002250D8A4E3EF17F0E5EF17F054EF18F01A
:102FCA00010E226E2150D8A4EDEF17F0EFEF17F0A3
:102FDA0054EF18F0010E216E020E2718D8A4F8EF4C
:102FEA0017F0FAEF17F010EF18F020EE01F00F507B
:102FFA00D9261050DA22000EDF6E0FC0D9FF10C09A
:10300A00DAFF480EDF6E0FC0D9FF10C0DAFF000EDC
:10301A00DB8E54EF18F02704D8A416EF18F018EF37
:10302A0018F054EF18F0000E246E20EE01F01D5037
:10303A00D9261E50DA22200EDF6E20EE02F01D5035
:10304A00D9261E50DA22300EDE6E040EDD6E1DC049
:10305A00D9FF1EC0DAFF040EDF6E1DC0D9FF1EC0E5
:10306A00DAFF000EDB8E010E246E20EE01F01B50FB
:10307A00D9261C50DA22200EDF6E20EE02F01B50F9
:10308A00D9261C50DA22300EDE6E040EDD6E1BC00D
:10309A00D9FF1CC0DAFF800EDF6E54EF18F0120061
:1030AA002250D8A45BEF18F05DEF18F0CCEF18F0BF
:1030BA00010E226E2150D8A465EF18F067EF18F0C0
:1030CA00CCEF18F0010E216E020E2718D8A470EF6B
:1030DA0018F072EF18F088EF18F020EE01F00F5098
:1030EA00D9261050DA22000EDF6E0FC0D9FF10C0A9
:1030FA00DAFF480EDF6E0FC0D9FF10C0DAFF000EEC
:10310A00DB8ECCEF18F02704D8A48EEF18F090EFDE
:10311A0018F0CCEF18F0000E246E20EE01F01D50CE
:10312A00D9261E50DA22200EDF6E20EE02F01D5044
:10313A00D9261E50DA22300EDE6E040EDD6E1DC058
:10314A00D9FF1EC0DAFF040EDF6E1DC0D9FF1EC0F4
:10315A00DAFF000EDB8E010E246E20EE01F01B500A
:10316A00D9261C50DA22200EDF6E20EE02F01B5008
:10317A00D9261C50DA22300EDE6E040EDD6E1BC01C
:10318A00D9FF1CC0DAFF800EDF6ECCEF18F01200F8
:10319A000C8E710E0001DE6F0F0EDF6F000EE16FF5
:1031AA00000EE06F000EE36F020EE26FAEEC0AF063
:1031BA00000E0001DE6F040EDF6F000EE16F000EDD
:1031CA00E06F000EE36F300EE26FAEEC0AF06D8C2A
:1031DA00000E0001F26F180EF225D96EDA6A000E9F
:1031EA00DA22000EDF6E150EF225D96EDA6A000EAB
:1031FA00DA22000EDF6EF22B020EF26507EF19F0EB
:10320A0009EF19F0F0EF18F0DB0EDE6F000EDF6F3A
:10321A00000EE16F000EE06F000EE36F020EE26F28
:10322A00AEEC0AF06D9C080E0F6E040E106E000EC6
:10323A001D6E040E1E6E1DC01BF01EC01CF032C493
:10324A002AF02A50D8A42CEF19F02EEF19F032EFF9
:10325A0019F0100E296E43EF19F0000E0001EB6F02
:10326A00010EEA6F2A0EEC6F000EED6F000EEF6F83
:10327A00010EEE6F61EC1CF0200E296E12000C8E0E
:10328A00710E2B6E0F0E2C6E000E2E6E000E2D6E12
:10329A00000E306E020E2F6E6AEC0BF0000E2B6ED3
:1032AA00040E2C6E000E2E6E000E2D6E000E306E69
:1032BA00300E2F6E6AEC0BF06D8C000E3F6E180EFE
:1032CA003F24D96EDA6A000EDA22000EDF6E150E7E
:1032DA003F24D96EDA6A000EDA22000EDF6E3F2A28
:1032EA00020E3F647BEF19F07DEF19F064EF19F0DD
:1032FA00DB0E2B6E000E2C6E000E2E6E000E2D6E47
:10330A00000E306E020E2F6E6AEC0BF06D9C080EEA
:10331A000F6E040E106E000E1D6E040E1E6E1DC082
:10332A001BF01EC01CF032C42AF02A50D8A4A0EF09
:10333A0019F0A2EF19F0A6EF19F0100E296EB6EFE8
:10334A0019F0000E386E010E376E2A0E396E000E15
:10335A003A6E000E3C6E010E3B6EA6EC1CF0200E7F
:10336A00296E12002D0E0001CA6FDDC002F1FD0E9A
:10337A0001010217D8A4C4EF19F0C6EF19F009EF3A
:10338A001AF0DDC002F1D89002333F0E0217025143
:10339A00040D000EF3241D6E040EF4201E6E1DC0D3
:1033AA001BF01EC01CF0040E1B181B6E1C501C6E5A
:1033BA001DC0D9FF1EC0DAFFDF30E8320F0B0D0A3D
:1033CA00D8A4EAEF19F0ECEF19F005EF1AF0300E75
:1033DA000001DE6F040EDF6F20EE02F01D50D926C9
:1033EA001E50DA22DECFE0F0DDCFE1F0000EE36F0F
:1033FA00080EE26FD6EC1EF0D0EC1BF016EF1AF0B6
:10340A00EAEC1CF016EF1AF00001DD51FD0B040A7C
:10341A00D8A412EF1AF014EF1AF016EF1AF053ECC0
:10342A0015F012002D0E0001CA6FDDC048F0FD0E26
:10343A004816D8A423EF1AF025EF1AF067EF1AF00E
:10344A00DDC048F0D89048323F0E48164850040D67
:10345A00000EF3241D6E040EF4201E6E1DC01BF018
:10346A001EC01CF0040E1B181B6E1C501C6E1DC0C7
:10347A00D9FF1EC0DAFFDF30E8320F0B0D0AD8A4DD
:10348A0049EF1AF04BEF1AF063EF1AF0300E2B6E79
:10349A00040E2C6E20EE02F01D50D9261E50DA22A0
:1034AA00DECF2DF0DDCF2EF0000E306E080E2F6E1F
:1034BA00FFEC1EF019EC1CF073EF1AF024EC1DF06F
:1034CA0073EF1AF0DD51FD0B040AD8A46FEF1AF05E
:1034DA0071EF1AF073EF1AF059EC16F012000001AE
:1034EA00E36F000E0001E46F040EE56FDE51DF6F3B
:1034FA00E06BD890DF37E037E351E16FE26BD890A9
:10350A00E137E237D890E137E237DF51E127E0517E
:10351A00E223D890E137E237D890E137E237E15138
:10352A00E427E251E523E4C0D9FFE5C0DAFFDF9ED4
:10353A00DE51D8A4A3EF1AF0A5EF1AF0B3EF1AF0F0
:10354A00E351020DAA0EF324D96E000EF420DA6EAE
:10355A00E4C0DEFFE5C0DDFFBFEF1AF0E351020D64
:10356A000F0EF324D96E000EF420DA6EE4C0DEFFEB
:10357A00E5C0DDFFE4C0D9FFE5C0DAFFDF9C20EE3D
:10358A0004F0E451D926E551DA22DF8C1200000E4C
:10359A00206E000E0001C96F020E2718D8A4D8EFBA
:1035AA001AF0DAEF1AF0FAEF1AF020EE01F01B50D7
:1035BA00D9261C50DA22200EDF6E20EE02F01B50B4
:1035CA00D9261C50DA22500EDE6E040EDD6E1BC0A8
:1035DA00D9FF1CC0DAFF480EDF6E1BC0D9FF1CC022
:1035EA00DAFF000EDB8E22EF1BF00D500401365D70
:1035FA000E503759D8B004EF1BF006EF1BF00AEF54
:10360A001BF036C40DF037C40EF0BCEC13F020EEFC
:10361A0002F00F50D9261050DA22500EDE6E040E38
:10362A00DD6E0FC0D9FF10C0DAFF480EDF6E0FC083
:10363A00D9FF10C0DAFF000EDB8E1200000E206EDA
:10364A00000E0001C96F020E2718D8A42FEF1BF035
:10365A0031EF1BF051EF1BF020EE01F01B50D92681
:10366A001C50DA22200EDF6E20EE02F01B50D92603
:10367A001C50DA22500EDE6E040EDD6E1BC0D9FF1E
:10368A001CC0DAFF480EDF6E1BC0D9FF1CC0DAFF70
:10369A00000EDB8E79EF1BF00D500401365D0E50E3
:1036AA003759D8B05BEF1BF05DEF1BF061EF1BF0F1
:1036BA0036C40DF037C40EF044EC14F020EE02F0DC
:1036CA000F50D9261050DA22500EDE6E040EDD6E2F
:1036DA000FC0D9FF10C0DAFF480EDF6E0FC0D9FF46
:1036EA0010C0DAFF000EDB8E1200306E000E316E53
:1036FA00040E326E2B502C6E2D6AD8902C362D3635
:10370A0030502E6E2F6AD8902E362F36D8902E36FD
:10371A002F362C502E262D502F22D8902E362F366B
:10372A00D8902E362F362E5031262F50322231C0C5
:10373A00D9FF32C0DAFFDF9E2B50D8A4A7EF1BF0C7
:10374A00A9EF1BF0B7EF1BF03050020DAA0EF324BD
:10375A00D96E000EF420DA6E31C0DEFF32C0DDFF12
:10376A00C3EF1BF03050020D0F0EF324D96E000E7A
:10377A00F420DA6E31C0DEFF32C0DDFF31C0D9FF7E
:10378A0032C0DAFFDF9C20EE04F03150D9263250E5
:10379A00DA22DF8C1200000E286E000E236E000E55
:1037AA00206E000E0001C96F000E246E000E276EF7
:1037BA000FC0D9FF10C0DAFF7F0EDF16040E0F18F4
:1037CA000F6E1050106E0FC0D9FF10C0DAFF7F0EB7
:1037DA00DF16040E0F180F6E1050106E1BC0D9FFA3
:1037EA001CC0DAFF7F0EDF16000E0C6E000E0E6E86
:1037FA00000E0D6E000E046E000E066E000E056EB3
:10380A009CEC12F0000E0001EB6F030EEA6F000E43
:10381A00EC6F000EED6F000EEF6F000EEE6F61ECB5
:10382A001CF079EC0FF01200000E286E000E236EC9
:10383A00000E206E000E0001C96F000E246E000EED
:10384A00276E0FC0D9FF10C0DAFF7F0EDF16040EF5
:10385A000F180F6E1050106E0FC0D9FF10C0DAFF8C
:10386A007F0EDF16040E0F180F6E1050106E1BC05D
:10387A00D9FF1CC0DAFF7F0EDF16000E0C6E000E99
:10388A000E6E000E0D6E000E046E000E066E000E19
:10389A00056E2EEC13F0000E386E030E376E000E16
:1038AA00396E000E3A6E000E3C6E000E3B6EA6ECB0
:1038BA001CF0BBEC10F012006BEF1CF05EEC1DF07C
:1038CA00A5EF1CF0D7EC15F0A5EF1CF0EAC0F0F05C
:1038DA00EBC0F1F00001F151000AD8B47BEF1CF003
:1038EA007F0AD8B49EEF1CF0A5EF1CF0F051010A34
:1038FA00D8B463EF1CF0030AD8B4A5EF1CF0010A90
:10390A00D8B467EF1CF0060AD8B4A5EF1CF0770A02
:10391A00D8B4A5EF1CF0010AD8B4A5EF1CF0070A29
:10392A00D8B4A5EF1CF0010AD8B4A5EF1CF0A5EF96
:10393A001CF0F051FF0AD8B4A5EF1CF0A5EF1CF05B
:10394A001200B0EF1CF092EC1DF0E9EF1CF05CECF9
:10395A0017F0E9EF1CF037C03DF038C03EF03E509A
:10396A00000AD8B4BFEF1CF07F0AD8B4E2EF1CF00B
:10397A00E9EF1CF03D50010AD8B4A8EF1CF0030A85
:10398A00D8B4E9EF1CF0010AD8B4ACEF1CF0060A6F
:10399A00D8B4E9EF1CF0770AD8B4E9EF1CF0010AB1
:1039AA00D8B4E9EF1CF0070AD8B4E9EF1CF0010A11
:1039BA00D8B4E9EF1CF0E9EF1CF03D50FF0AD8B487
:1039CA00E9EF1CF0E9EF1CF01200020E2718D8A448
:1039DA00F1EF1CF0F3EF1CF0F7EF1CF0D7EC0EF050
:1039EA0023EF1DF0000E276E2450D8A4FFEF1CF021
:1039FA0001EF1DF021EF1DF020EE01F01B50D9263A
:103A0A001C50DA22200EDF6E20EE02F01B50D9265F
:103A1A001C50DA22300EDE6E040EDD6E1BC0D9FF9A
:103A2A001CC0DAFF0C0EDF6E1BC0D9FF1CC0DAFF08
:103A3A00000EDB8E23EF1DF0000E246E1200020E24
:103A4A002718D8A42BEF1DF02DEF1DF031EF1DF034
:103A5A005CEC11F05DEF1DF0000E276E2450D8A427
:103A6A0039EF1DF03BEF1DF05BEF1DF020EE01F08A
:103A7A001B50D9261C50DA22200EDF6E20EE02F0EF
:103A8A001B50D9261C50DA22300EDE6E040EDD6E73
:103A9A001BC0D9FF1CC0DAFF0C0EDF6E1BC0D9FF9A
:103AAA001CC0DAFF000EDB8E5DEF1DF0000E246EE7
:103ABA001200000E0001D46F4B0ED56F000ED66FA8
:103ACA00000ED76F000ED86F000ED96F080EDA6F8E
:103ADA00000EC76F1A0EE66F010EACEC1EF01E0E3A
:103AEA000001E66F020EACEC1EF0000E0001DE6F64
:103AFA00400EDF6F050EE06F400EE16F020E1AEC0A
:103B0A0010F0DEC0C0F0DFC0C1F0000E0001BE6FD1
:103B1A00000EBF6F000E1F6E1200000E0001D46F60
:103B2A004B0ED56F000ED66F000ED76F000ED86FF2
:103B3A00000ED96F080EDA6F000EC76F1A0E336EB9
:103B4A00010E27EC1FF01E0E336E020E27EC1FF03B
:103B5A00000E2B6E400E2C6E050E2D6E400E2E6E34
:103B6A00020EFDEC11F02BC0C0F02CC0C1F0000E0B
:103B7A000001BE6F000EBF6F000E1F6E1200000E16
:103B8A000001DF6F000EDE6FDFBFD4EF1DF0DF51E3
:103B9A0008E1DE29D8A0D4EF1DF0D6EF1DF0D8EF4A
:103BAA001DF0F3EF1DF0000EE16F000EE06FE1BFB4
:103BBA00E7EF1DF0E15108E1E029D8A0E7EF1DF099
:103BCA00E9EF1DF0EBEF1DF0EFEF1DF0E04BE12BFD
:103BDA00DCEF1DF0DE4BDF2BC9EF1DF0120070A0E9
:103BEA00F9EF1DF0FBEF1DF022EF1EF01DC0D9FF0B
:103BFA001EC0DAFF800EDE18D8A406EF1EF008EF0A
:103C0A001EF021EF1EF00FC0D9FF10C0DAFF840E9C
:103C1A00DE18D8A413EF1EF015EF1EF021EF1EF0E8
:103C2A001DC0D9FF1EC0DAFF0C0EDF6E1DC0D9FF02
:103C3A001EC0DAFF000EDB8E7090689A120070A028
:103C4A0029EF1EF02BEF1EF052EF1EF01DC0D9FF18
:103C5A001EC0DAFF800EDE18D8A436EF1EF038EF49
:103C6A001EF051EF1EF00FC0D9FF10C0DAFF840E0C
:103C7A00DE18D8A443EF1EF045EF1EF051EF1EF0F8
:103C8A001DC0D9FF1EC0DAFF0C0EDF6E1DC0D9FFA2
:103C9A001EC0DAFF000EDB8E7090689A12000600D2
:103CAA00E1CF4AF0E2CF4BF0D9CF4CF0DACF4DF06A
:103CBA00F3CF4EF0F4CF4FF0F6CF50F0F7CF51F0EC
:103CCA00F8CF52F0F5CF53F022EC20F053C0F5FFB5
:103CDA0052C0F8FF51C0F7FF50C0F6FF4FC0F4FFC3
:103CEA004EC0F3FF4DC0DAFF4CC0D9FF4BC0E2FF14
:103CFA004AC0E1FF54921100000E946E000E8B6EC2
:103D0A00958093EC20F0B6EC07F0D2EC1FF0000996
:103D1A00D8B492EF1EF094EF1EF088EF1EF083A045
:103D2A0099EF1EF09BEF1EF088EF1EF08B807EEC61
:103D3A0020F0C4EC1DF083B0A5EF1EF0A7EF1EF033
:103D4A00A0EF1EF08B9088EF1EF007EF00F0000145
:103D5A00E96F0001E6A5B4EF1EF0B6EF1EF0BBEF67
:103D6A001EF0000EDE6FE95174EC1AF00001E6A3B2
:103D7A00C1EF1EF0C3EF1EF0C8EF1EF0010EDE6F9A
:103D8A00E95174EC1AF0700E0001E925E76FE86B4F
:103D9A000F0EE823E7C0D9FFE8C0DAFFE6C0DFFF6D
:103DAA001200E0C0E7F0E1C0E8F0DEC0E5F0DFC0F5
:103DBA00E6F0F0EF1EF0E7C0D9FFE8C0DAFFDF5007
:103DCA00E46FE74BE82BE5C0D9FFE6C0DAFFE4C0B1
:103DDA00DFFFE54BE62B0001E207D8A0E307E22963
:103DEA0006E1E329D8A4FCEF1EF0FEEF1EF0E0EF97
:103DFA001EF012002DC033F02EC034F02BC031F06B
:103E0A002CC032F019EF1FF033C0D9FF34C0DAFFEB
:103E1A00DF50356E334A342A31C0D9FF32C0DAFF57
:103E2A0035C0DFFF314A322A2F06D8A030062F28A4
:103E3A0006E13028D8A424EF1FF026EF1FF009EF7F
:103E4A001FF01200366E33A42DEF1FF02FEF1FF074
:103E5A0034EF1FF0000E2B6E36507AEC1BF033A2B3
:103E6A0039EF1FF03BEF1FF040EF1FF0010E2B6EF2
:103E7A0036507AEC1BF0700E3624346E356A0F0E0B
:103E8A00352234C0D9FF35C0DAFF33C0DFFF120054
:103E9A00340EF66E410EF76E000EF86E00EEF9F073
:103EAA0010EE07F00900F5CFEEFFE550E150FAE118
:103EBA0000EE60F07E0EEE6AE806FDE100EE01F02B
:103ECA002A0EEE6AE806FDE154905492000EF86E4E
:103EDA00000181EF1EF02950D8A476EF1FF078EF89
:103EEA001FF090EF1FF0000E6D6E000E696E160E39
:103EFA006F6E9F0E6B6E7B0E696EA28AA08A87EF29
:103F0A001FF06D866DA68CEF1FF08EEF1FF086EF07
:103F1A001FF0010E296E1200000E256E000E000120
:103F2A00EB6F740EEA6F000EEC6F000EED6F000E71
:103F3A00EF6F000EEE6F61EC1CF06D926994A7EFC3
:103F4A001FF0689468B4ACEF1FF0AEEF1FF0A6EF55
:103F5A001FF0000E0001C86F1200000E256E000E41
:103F6A00386E740E376E000E396E000E3A6E000E01
:103F7A003C6E000E3B6EA6EC1CF06D926994C7EF86
:103F8A001FF0689468B4CCEF1FF0CEEF1FF0C6EFB5
:103F9A001FF0000E0001C86F12001F0E2964D8EF2F
:103FAA001FF0DAEF1FF0E7EF1FF06DB2DFEF1FF03F
:103FBA00E1EF1FF0E7EF1FF0000E0001DF6FDE698F
:103FCA00ECEF1FF0000E0001DF6F000EDE6FDE5116
:103FDA001200010E0001B427000EB523B623B72341
:103FEA002550D8A4FBEF1FF0FDEF1FF007EF20F0DC
:103FFA00C82BC851D8A404EF20F006EF20F007EF31
:10400A0020F0C8691200010E0001B427000EB52382
:10401A00B623B7232550D8A415EF20F017EF20F0C8
:10402A0021EF20F0C82BC851D8A41EEF20F020EFB2
:10403A0020F021EF20F0C8691200F2AC27EF20F03F
:10404A0029EF20F039EF20F0A0AA2EEF20F030EF70
:10405A0020F039EF20F0A1AA35EF20F037EF20F059
:10406A0039EF20F0CEEC08F01200698468986D826E
:10407A00010E256E000E0001C86F000EEB6F750E63
:10408A00EA6F000EEC6F000EED6F000EEF6F000E80
:10409A00EE6F61EC1CF01200698468986D82010E63
:1040AA00256E000E0001C86F000E386E750E376E51
:1040BA00000E396E000E3A6E000E3C6E000E3B6E1C
:1040CA00A6EC1CF01200A09A1F50D8A46FEF20F0A3
:1040DA0071EF20F07CEF20F0DEC0BBF0DFC0BCF057
:1040EA00E0C0C6F0010E0001C56F010E1F6EA08A66
:1040FA00120020EEF9F010EEEBF0060EDBCFE3FF34
:10410A00E806FCE2EB0E0001DE6F000EDF6F060E22
:10411A00E06F68EC20F0E2EC09F01200F28EF28C0B
:10412A008BEC0DF070EC1FF01200666C61700D0ADA
:01413A000084
:020000040020DA
:08000000FFFFFFFFFFFFFFFF00
:020000040030CA
:0E000000210E391EFF8381FF0FC00FE00F405D
:00000001FF
