:020000040000FA
:0400000007EF00F016
:0A000800548288ED1EF056EF1FF041
:1008000000A4084C0872080908090243000201000C
:10081000C032090400000102020100052400100199
:100820000424020205240600010524010001070535
:1008300081030A000209040100020A000000070502
:100840000202400000070582024000002603440027
:1008500069006C007300680061006E0020005200A7
:1008600020004A006100790061006B006F006400A5
:1008700079002003540065007300740020005500C7
:1008800053004200200044006500760069006300C8
:1008900065001201000202000020D8040A000001D5
:0908A00001020001040309040037
:1008AA0004013205D8A45CEF04F05EEF04F078EF9F
:1008BA0004F030511F0B0009D8A466EF04F068EF6A
:1008CA0004F078EF04F00C8E030E3119D8A470EFFF
:1008DA0004F072EF04F076EF04F0010E266E78EF62
:1008EA0004F0000E266E3251D8A47EEF04F080EF99
:1008FA0004F015EF06F030511F0B020AD8A488EF56
:10090A0004F08AEF04F015EF06F034510F0B0009DA
:10091A00D8B492EF04F094EF04F015EF06F03451D6
:10092A000F0B0001F36F030EF3619EEF04F0A0EFCB
:10093A0004F015EF06F0200E2918D8A4A7EF04F04A
:10094A00A9EF04F015EF06F00C8E040134BFB0EFE6
:10095A0004F0B2EF04F0D3EF04F034510F0B0001AE
:10096A00F36FF351020DAA0EF324D96E000EF42090
:10097A00DA6EDECF03F1DDCF04F1040134510F0B3F
:10098A000001F36FF46B150EF325D96E000EF421F6
:10099A00DA6EDF500101026FF2EF04F034510F0BEF
:1009AA000001F36FF351020D0F0EF324D96E000EFE
:1009BA00F420DA6EDECF03F1DDCF04F10401345105
:1009CA000F0B0001F36FF46B180EF325D96E000EAE
:1009DA00F421DA6EDF500101026F02B1F7EF04F081
:1009EA00F9EF04F001EF05F0FB0E0315036FFF0E9C
:1009FA000415046F06EF05F0040E0311036F04518A
:100A0A00046F040134BF0CEF05F00EEF05F020EF80
:100A1A0005F034510F0B0001F36FF351020DAA0ECA
:100A2A00F324D96E000EF420DA6E03C1DEFF04C18E
:100A3A00DDFF30EF05F034510F0B0001F36FF35176
:100A4A00020D0F0EF324D96E000EF420DA6E03C1E4
:100A5A00DEFF04C1DDFF030E04013119D8A438EF0B
:100A6A0005F03AEF05F076EF05F003C1D9FF04C1AE
:100A7A00DAFF0101DFAE44EF05F046EF05F068EF5B
:100A8A0005F0040134BF4CEF05F04EEF05F05CEFC2
:100A9A0005F034510F0B0001F36FF46B150EF325BB
:100AAA00D96E000EF421DA6EDF8268EF05F0345158
:100ABA000F0B0001F36FF46B180EF325D96E000EBD
:100ACA00F421DA6EDF8203C1D9FF04C1DAFF000E16
:100ADA00DB8403C1D9FF04C1DAFF000EDB8E15EFF8
:100AEA0006F0040E01010319036F0451046F03C1D8
:100AFA00D9FF04C1DAFFDFAE85EF05F087EF05F015
:100B0A00A4EF05F003C1D9FF04C1DAFF7F0EDF1697
:100B1A0003C1D9FF04C1DAFF000EDB8C000E00010D
:100B2A00EC6F050EEB6F03C1EDF004C1EEF0000EA1
:100B3A00F06F020EEF6F62EC1CF0AAEF05F003C132
:100B4A00D9FF04C1DAFF000EDB8C040E0101031980
:100B5A00036F0451046F02B3B5EF05F0B7EF05F068
:100B6A00C2EF05F003C1D9FF04C1DAFFDFAEC0EF5F
:100B7A0005F0C2EF05F0FAEF05F0040134BFC8EF43
:100B8A0005F0CAEF05F0D8EF05F034510F0B00015C
:100B9A00F36FF46B150EF325D96E000EF421DA6E9D
:100BAA00DF92E4EF05F034510F0B0001F36FF46BA1
:100BBA00180EF325D96E000EF421DA6EDF9203C106
:100BCA00D9FF04C1DAFF3B0EDF16000EEC6F050EEB
:100BDA00EB6F03C1EDF004C1EEF0000EF06F020EF0
:100BEA00EF6F62EC1CF000EF06F003C1D9FF04C1FD
:100BFA00DAFF3B0EDF16040134510F0B0001F36FCD
:100C0A00F46B700EF3250101006F0F0E0001F42141
:100C1A000101016F00C1D9FF01C1DAFFFE0EDF1623
:100C2A00120004013205D8A41DEF06F01FEF06F0EA
:100C3A0039EF06F030511F0B0009D8A427EF06F050
:100C4A0029EF06F039EF06F00C8E030E3119D8A4FD
:100C5A0031EF06F033EF06F037EF06F0010E266E9D
:100C6A0039EF06F0000E266E3251D8A43FEF06F097
:100C7A0041EF06F0BBEF07F030511F0B020AD8A470
:100C8A0049EF06F04BEF06F0BBEF07F034510F0BBC
:100C9A000009D8B453EF06F055EF06F0BBEF07F0A2
:100CAA0034510F0B3F6E030E3F605EEF06F060EFAC
:100CBA0006F0BBEF07F0200E2918D8A467EF06F05C
:100CCA0069EF06F0BBEF07F00C8E34BF6FEF06F04A
:100CDA0071EF06F08EEF06F034510F0B3F6E3F5066
:100CEA00020DAA0EF324D96E000EF420DA6EDECFBE
:100CFA0044F0DDCF45F034510F0B3F6E406A150EBC
:100D0A003F24D96E000E4020DA6EDF50436EA9EF01
:100D1A0006F034510F0B3F6E3F50020D0F0EF324B5
:100D2A00D96E000EF420DA6EDECF44F0DDCF45F046
:100D3A0034510F0B3F6E406A180E3F24D96E000ED5
:100D4A004020DA6EDF50436E43B0AEEF06F0B0EFEC
:100D5A0006F0B8EF06F0FB0E4414446EFF0E45147D
:100D6A00456EBDEF06F0040E4410446E4550456EC4
:100D7A0034BFC2EF06F0C4EF06F0D5EF06F03451E7
:100D8A000F0B3F6E3F50020DAA0EF324D96E000ED0
:100D9A00F420DA6E44C0DEFF45C0DDFFE4EF06F062
:100DAA0034510F0B3F6E3F50020D0F0EF324D96ED4
:100DBA00000EF420DA6E44C0DEFF45C0DDFF030EEC
:100DCA003119D8A4EBEF06F0EDEF06F025EF07F0A6
:100DDA0044C0D9FF45C0DAFFDFAEF6EF06F0F8EF00
:100DEA0006F017EF07F034BFFDEF06F0FFEF06F04D
:100DFA000CEF07F034510F0B3F6E406A150E3F247B
:100E0A00D96E000E4020DA6EDF8217EF07F03451F8
:100E1A000F0B3F6E406A180E3F24D96E000E402019
:100E2A00DA6EDF8244C0D9FF45C0DAFF000EDB84E8
:100E3A0044C0D9FF45C0DAFF000EDB8EBBEF07F0D6
:100E4A00040E4418446E4550456E44C0D9FF45C04F
:100E5A00DAFFDFAE33EF07F035EF07F051EF07F0B7
:100E6A0044C0D9FF45C0DAFF7F0EDF1644C0D9FF60
:100E7A0045C0DAFF000EDB8C000E386E050E376EA9
:100E8A0044C039F045C03AF0000E3C6E020E3B6E8B
:100E9A00A7EC1CF057EF07F044C0D9FF45C0DAFFB2
:100EAA00000EDB8C040E4418446E4550456E43B266
:100EBA0061EF07F063EF07F06EEF07F044C0D9FF68
:100ECA0045C0DAFFDFAE6CEF07F06EEF07F0A4EF74
:100EDA0007F0040134BF74EF07F076EF07F083EFF1
:100EEA0007F034510F0B3F6E406A150E3F24D96E3E
:100EFA00000E4020DA6EDF928EEF07F034510F0BAE
:100F0A003F6E406A180E3F24D96E000E4020DA6EFA
:100F1A00DF9244C0D9FF45C0DAFF3B0EDF16000E50
:100F2A00386E050E376E44C039F045C03AF0000EEF
:100F3A003C6E020E3B6EA7EC1CF0AAEF07F044C011
:100F4A00D9FF45C0DAFF3B0EDF16040134510F0BFF
:100F5A003F6E406A700E3F24416E0F0E4020426E73
:100F6A0041C0D9FF42C0DAFFFE0EDF161200290483
:100F7A00D8A4C2EF07F0C4EF07F0D1EF07F06DBABB
:100F8A00C9EF07F0CBEF07F0D1EF07F0000E686E5C
:100F9A0069806988020E296E68A4D6EF07F0D8EF37
:100FAA0007F0E2EF07F069A4DDEF07F0DFEF07F0E3
:100FBA00E2EF07F068949AEC1FF06DA2E7EF07F0F2
:100FCA00E9EF07F0ECEF07F0A19AD2EF08F068A07A
:100FDA00F1EF07F0F3EF07F000EF08F069A0F8EF80
:100FEA0007F0FAEF07F000EF08F090EC0DF0A08A96
:100FFA00040E296E689068A805EF08F007EF08F05C
:10100A0010EF08F069A80CEF08F00EEF08F010EFE7
:10101A0008F043EC20F068AC15EF08F017EF08F081
:10102A0044EF08F069AC1CEF08F01EEF08F02DEF52
:10103A0008F0000E0001EC6F730EEB6F000EED6FFF
:10104A00000EEE6F000EF06F010EEF6F62EC1CF0F7
:10105A00689CF7EC1FF00001CA51D8B437EF08F0CA
:10106A0039EF08F03AEF08F0CA07CA51D8A440EF9E
:10107A0008F042EF08F044EF08F0E1EC17F068AA34
:10108A0049EF08F04BEF08F054EF08F069AA50EF67
:10109A0008F052EF08F054EF08F028EC1EF068A2AE
:1010AA0059EF08F05BEF08F072EF08F069A260EF01
:1010BA0008F062EF08F072EF08F07F0E0001EC6FA3
:1010CA00EB69000EED6F000EEE6F000EF06F010E71
:1010DA00EF6F62EC1CF0000E6A6E040E296078EF66
:1010EA0008F07AEF08F07DEF08F0A19AD2EF08F045
:1010FA0069A682EF08F084EF08F0D1EF08F0000E3D
:10110A000001F86F68A68CEF08F08EEF08F0D1EFB7
:10111A0008F06CCFDEF0DE31E832E8320F0BCB6F2D
:10112A006896DEB59BEF08F09DEF08F0A6EF08F091
:10113A00150ECB25D96EDA6A000EDA22DF70ADEF12
:10114A0008F0180ECB25D96EDA6A000EDA22DF70A3
:10115A00CB51D8A4B3EF08F0B5EF08F0B9EF08F017
:10116A00BBEC19F0C7EF08F0000EEC6F720EEB6FD4
:10117A00DE0EED6F000EEE6F000EF06F000EEF6FD9
:10118A0062EC1CF00001F82B030EF865CFEF08F0B3
:10119A00D1EF08F087EF08F0A19A12002904D8A429
:1011AA00D9EF08F0DBEF08F0E8EF08F06DBAE0EFEE
:1011BA0008F0E2EF08F0E8EF08F0000E686E6980C8
:1011CA006988020E296E68A4EDEF08F0EFEF08F0C7
:1011DA00F9EF08F069A4F4EF08F0F6EF08F0F9EF78
:1011EA0008F06894BBEC1FF06DA2FEEF08F000EF68
:1011FA0009F003EF09F0A19AE6EF09F068A008EFF9
:10120A0009F00AEF09F017EF09F069A00FEF09F0EA
:10121A0011EF09F017EF09F037EC0EF0A08A040E6F
:10122A00296E689068A81CEF09F01EEF09F027EFF5
:10123A0009F069A823EF09F025EF09F027EF09F073
:10124A005AEC20F068AC2CEF09F02EEF09F05AEFB7
:10125A0009F069AC33EF09F035EF09F043EF09F013
:10126A00000E386E730E376E000E396E000E3A6E2F
:10127A00000E3C6E010E3B6EA7EC1CF0689C11EC54
:10128A0020F00001CA51D8B44DEF09F04FEF09F030
:10129A0050EF09F0CA07CA51D8A456EF09F058EF1F
:1012AA0009F05AEF09F059EC18F068AA5FEF09F053
:1012BA0061EF09F06AEF09F069AA66EF09F068EFD1
:1012CA0009F06AEF09F058EC1EF068A26FEF09F016
:1012DA0071EF09F087EF09F069A276EF09F078EF6C
:1012EA0009F087EF09F07F0E386E3768000E396E05
:1012FA00000E3A6E000E3C6E010E3B6EA7EC1CF01F
:10130A00000E6A6E040E29608DEF09F08FEF09F066
:10131A0092EF09F0A19AE6EF09F069A697EF09F0B2
:10132A0099EF09F0E5EF09F0000E496E68A6A0EF03
:10133A0009F0A2EF09F0E5EF09F06CCFDEF0000149
:10134A00DE31E832E8320F0BCB6F6896DEB5B0EFCC
:10135A0009F0B2EF09F0BBEF09F0150ECB25D96EF3
:10136A00DA6A000EDA22DF70C2EF09F0180ECB2516
:10137A00D96EDA6A000EDA22DF70CB51D8A4C8EF30
:10138A0009F0CAEF09F0CEEF09F018EC1AF0DCEF19
:10139A0009F0000E386E720E376EDE0E396E000ED0
:1013AA003A6E000E3C6E000E3B6EA7EC1CF0492A0A
:1013BA00030E4964E3EF09F0E5EF09F09BEF09F04A
:1013CA00A19A1200A09A0001BE51BF11D8B4F0EF41
:1013DA0009F0F2EF09F000EF0AF0BEC0D9FFBFC072
:1013EA00DAFFDFAEFBEF09F0FDEF09F000EF0AF0DC
:1013FA00A08AB2EF0AF0030E1F18D8A407EF0AF06A
:10140A0009EF0AF00BEF0AF0000E1F6E1F50D8A466
:10141A0011EF0AF013EF0AF016EF0AF0A08AB2EF02
:10142A000AF0020E1F18D8A41DEF0AF01FEF0AF0E7
:10143A0032EF0AF0010EDF6F000EE06F000EE16F6F
:10144A00000EE26F020E1FEC10F0DFC0BEF0E0C02B
:10145A00BFF0030E1F6EB1EF0AF01F04D8A438EFD5
:10146A000AF03AEF0AF0B1EF0AF0400EC66540EF13
:10147A000AF042EF0AF046EF0AF0400EEB6F48EF2F
:10148A000AF0C6C0EBF0EB51C65DC66F000EB86F2E
:10149A00050EB96FEBC0EAF0C551D8A457EF0AF0B0
:1014AA0059EF0AF083EF0AF06AEF0AF0BBC0D9FFDE
:1014BA00BCC0DAFFB8C0E1FFB9C0E2FFDFCFE7FF87
:1014CA00B84BB92BBB4BBC2BEA07EA51D8A470EF37
:1014DA000AF072EF0AF05BEF0AF08BEF0AF0BBC07A
:1014EA00D9FFBCC0DAFFB8C0E1FFB9C0E2FFDFCF65
:1014FA00E7FFB84BB92BBB4BBC2BEA07EA51D8A480
:10150A0089EF0AF08BEF0AF074EF0AF0C651D8A4FB
:10151A0091EF0AF093EF0AF0A2EF0AF0400EEB19EE
:10152A00D8A49AEF0AF09CEF0AF0A0EF0AF0020E94
:10153A001F6EA2EF0AF0030E1F6E010EDF6F000E80
:10154A00E06F050EE16FEBC0E2F0020E1FEC10F047
:10155A00DFC0BEF0E0C0BFF0A08A1200DFC0E9F031
:10156A00E0C0EAF00001E351E411D8A4BFEF0AF0A9
:10157A00C1EF0AF0C3EF0AF06EEF0BF0E9C0D9FF32
:10158A00EAC0DAFFE1C0DFFFE351E925E56FE45184
:10159A00EA21E66FFF0EE525D96EFF0EE621DA6E27
:1015AA00E1C0DFFFE45107E1030EE35DD8B0E0EFED
:1015BA000AF0E2EF0AF0E4EF0AF06EEF0BF020EE29
:1015CA0001F0E951D926EA51DA22E1C0DFFF20EE23
:1015DA0002F0E951D926EA51DA22E1C0DFFFE351EC
:1015EA00E925E56FE451EA21E66FFE0EE525D96E9D
:1015FA00FF0EE621DA6EE1C0DFFFE351E925E56F70
:10160A00E451EA21E66FFD0EE525D96EFF0EE621CB
:10161A00DA6EE1C0DFFFE45107E1070EE35DD8B0FF
:10162A0019EF0BF01BEF0BF01DEF0BF06EEF0BF049
:10163A0020EE03F0E951D926EA51DA22E1C0DFFFB0
:10164A00E351E925E56FE451EA21E66FFC0EE52551
:10165A00D96EFF0EE621DA6EE1C0DFFFE45107E141
:10166A00090EE35DD8B03CEF0BF03EEF0BF040EF14
:10167A000BF06EEF0BF0E9C0E5F0EAC0E6F0E51F0B
:10168A00E61FE54BE62B030EE515E76FE86BE7511E
:10169A00E927E851EA23E751E35FE851E45BFC0EEE
:1016AA00E317FF0EE41765EF0BF0E9C0D9FFEAC0B4
:1016BA00DAFFE1C0DFFFE307D8A0E407E94BEA2B32
:1016CA00E351E411D8A46CEF0BF06EEF0BF05AEF74
:1016DA000BF012002BC035F02CC036F02F50301012
:1016EA00D8A47AEF0BF07CEF0BF07EEF0BF029EF2A
:1016FA000CF035C0D9FF36C0DAFF2DC0DFFF2F50FE
:10170A003524316E30503620326EFF0E3124D96EB8
:10171A00FF0E3220DA6E2DC0DFFF305007E1030ED4
:10172A002F5CD8B09BEF0BF09DEF0BF09FEF0BF007
:10173A0029EF0CF020EE01F03550D9263650DA2286
:10174A002DC0DFFF20EE02F03550D9263650DA22BE
:10175A002DC0DFFF2F503524316E30503620326EC7
:10176A00FE0E3124D96EFF0E3220DA6E2DC0DFFF55
:10177A002F503524316E30503620326EFD0E312412
:10178A00D96EFF0E3220DA6E2DC0DFFF305007E12E
:10179A00070E2F5CD8B0D4EF0BF0D6EF0BF0D8EFD2
:1017AA000BF029EF0CF020EE03F03550D926365015
:1017BA00DA222DC0DFFF2F503524316E305036200B
:1017CA00326EFC0E3124D96EFF0E3220DA6E2DC035
:1017DA00DFFF305007E1090E2F5CD8B0F7EF0BF0AE
:1017EA00F9EF0BF0FBEF0BF029EF0CF035C031F0FD
:1017FA0036C032F0311E321E314A322A030E3114FB
:10180A00336E346A335035263450362233502F5EC5
:10181A003450305AFC0E2F16FF0E301620EF0CF003
:10182A0035C0D9FF36C0DAFF2DC0DFFF2F06D8A09A
:10183A003006354A362A2F503010D8A427EF0CF03C
:10184A0029EF0CF015EF0CF01200800E040130198C
:10185A00D8A432EF0CF034EF0CF0DFEF0CF0C00E2E
:10186A000C6EC5EF0CF0920E096E080E0A6E000E91
:10187A000E6E120E0D6EDFEF0CF004013251D8A479
:10188A0049EF0CF04BEF0CF08BEF0CF03251020DDC
:10189A00070EF324F66E080EF420F76E0900F5CF52
:1018AA0009F00A00F5CF0AF0020E09240001DF6FE1
:1018BA00000E0A20E06FDFC0F6FFE0C0F7FFF86A0B
:1018CA00070EF76403D00800F55005D0F6CFE1FF04
:1018DA00F7CFE2FFE7500D6E030E09240001DF6F18
:1018EA00000E0A20E06FDFC0F6FFE0C0F7FFF86ADB
:1018FA00070EF76403D00800F55005D0F6CFE1FFD4
:10190A00F7CFE2FFE7500E6EDFEF0CF0000E0C6E21
:10191A00DFEF0CF0030E0401326196EF0CF098EF42
:10192A000CF0BDEF0CF03251020D010EF324F66EED
:10193A00080EF420F76E0900F5CF09F00A00F5CF7A
:10194A000AF009C0F6FF0AC0F7FFF86A070EF76443
:10195A0003D00800F55005D0F6CFE1FFF7CFE2FF3C
:10196A00E7500001DF6FDF510D6E0E6ADFEF0CF0FA
:10197A00000E0C6EDFEF0CF0000E0C6EDFEF0CF0B9
:10198A0033510001DF6FE06BE051000AD8B4D0EFA9
:10199A000CF0C1EF0CF0DF51010AD8B438EF0CF0AB
:1019AA00030AD8B442EF0CF0010AD8B48FEF0CF056
:1019BA00C1EF0CF01200800E04013019D8A4E8EF30
:1019CA000CF0EAEF0CF08FEF0DF0C00E0C6E76EF14
:1019DA000DF0920E096E080E0A6E000E0E6E120EB1
:1019EA000D6E8FEF0DF03251D8A4FEEF0CF000EF20
:1019FA000DF03EEF0DF03251020D070EF324F66E94
:101A0A00080EF420F76E0900F5CF09F00A00F5CFA9
:101A1A000AF0020E09242B6E000E0A202C6E2BC02F
:101A2A00F6FF2CC0F7FFF86A070EF76403D0080028
:101A3A00F55005D0F6CFE1FFF7CFE2FFE7500D6E84
:101A4A00030E09242B6E000E0A202C6E2BC0F6FF03
:101A5A002CC0F7FFF86A070EF76403D00800F550A8
:101A6A0005D0F6CFE1FFF7CFE2FFE7500E6E8FEF1A
:101A7A000DF0000E0C6E8FEF0DF0030E326148EF81
:101A8A000DF04AEF0DF06EEF0DF03251020D010E1E
:101A9A00F324F66E080EF420F76E0900F5CF09F06C
:101AAA000A00F5CF0AF009C0F6FF0AC0F7FFF86A84
:101ABA00070EF76403D00800F55005D0F6CFE1FF12
:101ACA00F7CFE2FFE7502B6E2B500D6E0E6A8FEFA9
:101ADA000DF0000E0C6E8FEF0DF0000E0C6E8FEFF6
:101AEA000DF033512B6E2C6A2C50000AD8B480EFBB
:101AFA000DF072EF0DF02B50010AD8B4EEEF0CF096
:101B0A00030AD8B4F8EF0CF0010AD8B442EF0DF08A
:101B1A0072EF0DF01200A09A000E6A6E000E686E47
:101B2A00000E706E710E0001DF6F0F0EE06F000E77
:101B3A00E26F000EE16F000EE46F020EE36FB3EC8A
:101B4A000AF0160E6F6E9F0E6B6E7B0E696E000E9C
:101B5A000001EB6FEB51040D000EF324D96E040E55
:101B6A00F420DA6EDE6ADE6ADE6ADD6AEB2B0B0EC1
:101B7A00EB65C2EF0DF0C4EF0DF0AFEF0DF06D8C19
:101B8A00000E6E6E6D986D9C6896000E0C6E000EBF
:101B9A00046E000E066E000E056E68B6D7EF0DF0E5
:101BAA00D9EF0DF0C9EF0DF0010E226E010E216E74
:101BBA00000E206E000E0001C96F000E256E000E89
:101BCA00EB6FEB51020D0F0EF324D96E000EF420C9
:101BDA00DA6E000EDE6E000EDD6EEB51020DAA0EFD
:101BEA00F324D96E000EF420DA6E000EDE6E000EBB
:101BFA00DD6E180EEB25D96EDA6A000EDA22000EB7
:101C0A00DF6E150EEB25D96EDA6A000EDA22000EA7
:101C1A00DF6EEB2B020EEB6515EF0EF017EF0EF0F1
:101C2A00E6EF0DF0080E0F6E040E106E160E706EB3
:101C3A00040E0401036F300E026F200E016F040EB2
:101C4A00006F008F000E2A6E000E0001B46F000EA6
:101C5A00B56F000EB66F000EB76F000EC86F000E9C
:101C6A00296E1200A09A000E6A6E000E686E000EAF
:101C7A00706E710E2B6E0F0E2C6E000E2E6E000EF5
:101C8A002D6E000E306E020E2F6E6FEC0BF0160EDC
:101C9A006F6E9F0E6B6E7B0E696E000E376E37503D
:101CAA00040D000EF324D96E040EF420DA6EDE6AF7
:101CBA00DE6ADE6ADD6A372A0B0E376467EF0EF0DA
:101CCA0069EF0EF054EF0EF06D8C000E6E6E6D988B
:101CDA006D9C6896000E0C6E000E046E000E066E69
:101CEA00000E056E68B67CEF0EF07EEF0EF06EEF1A
:101CFA000EF0010E226E010E216E000E206E000EF5
:101D0A000001C96F000E256E000E376E3750020DA6
:101D1A000F0EF324D96E000EF420DA6E000EDE6E7A
:101D2A00000EDD6E3750020DAA0EF324D96E000E96
:101D3A00F420DA6E000EDE6E000EDD6E180E372409
:101D4A00D96EDA6A000EDA22000EDF6E150E37241B
:101D5A00D96EDA6A000EDA22000EDF6E372A020E18
:101D6A003764BAEF0EF0BCEF0EF08BEF0EF0080EF0
:101D7A000F6E040E106E160E706E040E0401036FC1
:101D8A00300E026F200E016F040E006F008F000EDE
:101D9A002A6E000E0001B46F000EB56F000EB66F0A
:101DAA00000EB76F000EC86F000E296E120020EEEB
:101DBA0001F01D50D9261E50DA22DF500001E06FD3
:101DCA00E051055C000E0658D8B0EEEF0EF0F0EFC9
:101DDA000EF0F2EF0EF005C0E0F0E051055E000EE5
:101DEA00065A000EDF6F09EF0FF0500EDF25D96E8D
:101DFA00DA6A040EDA2201C0E1FF02C0E2FFDFCF95
:101E0A00E7FF014A022ADF2BE051DF5DD8A010EF7D
:101E1A000FF012EF0FF0FAEF0EF005500610D8B4DB
:101E2A0019EF0FF01BEF0FF054EF0FF020EE01F057
:101E3A001B50D9261C50DA22200EDF6E20EE02F04B
:101E4A001B50D9261C50DA22500EDE6E040EDD6EAF
:101E5A001DC0D9FF1EC0DAFFDFBC36EF0FF038EF26
:101E6A000FF046EF0FF01BC0D9FF1CC0DAFF480E77
:101E7A00DF6E1BC0D9FF1CC0DAFF000EDB8E7DEFC0
:101E8A000FF01BC0D9FF1CC0DAFF080EDF6E1BC0A3
:101E9A00D9FF1CC0DAFF000EDB8E7DEF0FF020EEBB
:101EAA0001F01B50D9261C50DA22200EDF6E20EEDC
:101EBA0002F01B50D9261C50DA22300EDE6E040EB8
:101ECA00DD6E1BC0D9FF1CC0DAFF040EDF6E1BC01B
:101EDA00D9FF1CC0DAFF000EDB8E049E2350D8A463
:101EEA0079EF0FF07BEF0FF07DEF0FF0E1EC17F0D9
:101EFA0012006D980CBE84EF0FF086EF0FF0CCEF56
:101F0A000FF004AE8BEF0FF08DEF0FF0A0EF0FF094
:101F1A00020E276E0001C951D8A496EF0FF098EF70
:101F2A000FF09AEF0FF0CDEC1AF0000E216E000EB2
:101F3A00226E1EEF10F020EE01F01B50D9261C5025
:101F4A00DA22200EDF6E20EE02F01B50D9261C503A
:101F5A00DA22300EDE6E040EDD6E1BC0D9FF1CC005
:101F6A00DAFF0C0EDF6E1BC0D9FF1CC0DAFF000EB1
:101F7A00DB8E0FC0D9FF10C0DAFF040EDF6E0FC070
:101F8A00D9FF10C0DAFF000EDB8E1EEF10F004013D
:101F9A0030AFD2EF0FF0D4EF0FF0F0EF0FF0010EE9
:101FAA00276E2050D8A4DCEF0FF0DEEF0FF0E0EF41
:101FBA000FF0CDEC1AF0000E216E000E226E2350A7
:101FCA00D8A4EAEF0FF0ECEF0FF01EEF10F0E1ECFF
:101FDA0017F01EEF10F0020E276E20EE01F01B50D4
:101FEA00D9261C50DA22200EDF6E20EE02F01B509A
:101FFA00D9261C50DA22300EDE6E040EDD6E1BC0AE
:10200A00D9FF1CC0DAFF040EDF6E1BC0D9FF1CC04B
:10201A00DAFF000EDB8E000E216E000E226E2350B8
:10202A00D8A41AEF10F01CEF10F01EEF10F0ECEF2E
:10203A000FF012000001E76F0001DF51D8B428EF5A
:10204A0010F02AEF10F038EF10F0E751020D0F0EE2
:10205A00F324D96E000EF420DA6EDECFE8F0DDCF7D
:10206A00E9F044EF10F0E751020DAA0EF324D96EFD
:10207A00000EF420DA6EDECFE8F0DDCFE9F0E851A9
:10208A00E911D8A44BEF10F04DEF10F053EF10F018
:10209A00000EDF6F000EE06FBFEF10F020EE02F0CF
:1020AA00E851D926E951DA22E0C0DEFFE1C0DDFFBE
:1020BA0020EE01F0E851D926E951DA22E2C0DFFF29
:1020CA00E8C0D9FFE9C0DAFF400EDF16E8C0D9FF41
:1020DA00E9C0DAFF000EDB86E8C0D9FFE9C0DAFF03
:1020EA00000EDB8EDF51D8B47DEF10F07FEF10F0D9
:1020FA009EEF10F0E751020D0F0EF324D96E000E79
:10210A00F420DA6EDECFE3F0DDCFE4F0040EE3195B
:10211A00E56FE451E66FE751020D0F0EF324D96E15
:10212A00000EF420DA6EE5C0DEFFE6C0DDFFBBEF8D
:10213A0010F0E751020DAA0EF324D96E000EF42016
:10214A00DA6EDECFE3F0DDCFE4F0040EE319E56FDB
:10215A00E451E66FE751020DAA0EF324D96E000E80
:10216A00F420DA6EE5C0DEFFE6C0DDFFE8C0DFF08E
:10217A00E9C0E0F012006D980CBEC6EF10F0C8EF8F
:10218A0010F00EEF11F004AECDEF10F0CFEF10F01B
:10219A00E2EF10F0020E276E0001C951D8A4D8EF61
:1021AA0010F0DAEF10F0DCEF10F024EC1BF0000E68
:1021BA00216E000E226E60EF11F020EE01F01B502E
:1021CA00D9261C50DA22200EDF6E20EE02F01B50B8
:1021DA00D9261C50DA22300EDE6E040EDD6E1BC0CC
:1021EA00D9FF1CC0DAFF0C0EDF6E1BC0D9FF1CC062
:1021FA00DAFF000EDB8E0FC0D9FF10C0DAFF040E23
:10220A00DF6E0FC0D9FF10C0DAFF000EDB8E60EF61
:10221A0011F0040130AF14EF11F016EF11F032EFA4
:10222A0011F0010E276E2050D8A41EEF11F020EFF6
:10223A0011F022EF11F024EC1BF0000E216E000EBB
:10224A00226E2350D8A42CEF11F02EEF11F060EF7C
:10225A0011F059EC18F060EF11F0020E276E20EE23
:10226A0001F01B50D9261C50DA22200EDF6E20EE18
:10227A0002F01B50D9261C50DA22300EDE6E040EF4
:10228A00DD6E1BC0D9FF1CC0DAFF040EDF6E1BC057
:10229A00D9FF1CC0DAFF000EDB8E000E216E000E85
:1022AA00226E2350D8A45CEF11F05EEF11F060EFBC
:1022BA0011F02EEF11F0120020EE01F01D50D92678
:1022CA001E50DA22DF502C6E2C50055C000E065888
:1022DA00D8B072EF11F074EF11F076EF11F005C07B
:1022EA002CF02C50055E000E065A000E2B6E8DEF58
:1022FA0011F0500E2B24D96EDA6A040EDA2201C0CC
:10230A00E1FF02C0E2FFDFCFE7FF014A022A2B2AE0
:10231A002C502B5CD8A094EF11F096EF11F07EEFC1
:10232A0011F005500610D8B49DEF11F09FEF11F08F
:10233A00D8EF11F020EE01F01B50D9261C50DA22FA
:10234A00200EDF6E20EE02F01B50D9261C50DA2236
:10235A00500EDE6E040EDD6E1DC0D9FF1EC0DAFF00
:10236A00DFBCBAEF11F0BCEF11F0CAEF11F01BC0DD
:10237A00D9FF1CC0DAFF480EDF6E1BC0D9FF1CC094
:10238A00DAFF000EDB8E01EF12F01BC0D9FF1CC072
:10239A00DAFF080EDF6E1BC0D9FF1CC0DAFF000E81
:1023AA00DB8E01EF12F020EE01F01B50D9261C50F3
:1023BA00DA22200EDF6E20EE02F01B50D9261C50C6
:1023CA00DA22300EDE6E040EDD6E1BC0D9FF1CC091
:1023DA00DAFF040EDF6E1BC0D9FF1CC0DAFF000E45
:1023EA00DB8E049E2350D8A4FDEF11F0FFEF11F00D
:1023FA0001EF12F059EC18F01200336E2B50D8B4DA
:10240A0009EF12F00BEF12F019EF12F03350020D30
:10241A000F0EF324D96E000EF420DA6EDECF34F0FC
:10242A00DDCF35F025EF12F03350020DAA0EF3245A
:10243A00D96E000EF420DA6EDECF34F0DDCF35F03F
:10244A0034503510D8A42CEF12F02EEF12F034EFDE
:10245A0012F0000E2B6E000E2C6EA0EF12F020EE82
:10246A0002F03450D9263550DA222CC0DEFF2DC0B6
:10247A00DDFF20EE01F03450D9263550DA222EC085
:10248A00DFFF34C0D9FF35C0DAFF400EDF1634C093
:10249A00D9FF35C0DAFF000EDB8634C0D9FF35C05C
:1024AA00DAFF000EDB8E2B50D8B45EEF12F060EF2D
:1024BA0012F07FEF12F03350020D0F0EF324D96E93
:1024CA00000EF420DA6EDECF2FF0DDCF30F0040EEE
:1024DA002F18316E3050326E3350020D0F0EF32426
:1024EA00D96E000EF420DA6E31C0DEFF32C0DDFF95
:1024FA009CEF12F03350020DAA0EF324D96E000E8F
:10250A00F420DA6EDECF2FF0DDCF30F0040E2F1874
:10251A00316E3050326E3350020DAA0EF324D96E4A
:10252A00000EF420DA6E31C0DEFF32C0DDFF34C0A7
:10253A002BF035C02CF0120004013039E832030BBD
:10254A000009D8B4ABEF12F0ADEF12F0F7EF12F0CA
:10255A0031EF13F00C8E080E296E31EF13F02AECCE
:10256A000CF031EF13F0D1EC18F031EF13F02A0E22
:10257A00096E000E0A6E0C80010E0D6E0C8E31EF84
:10258A0013F0D0EC14F031EF13F055EC04F031EF06
:10259A0013F0DC0E04013425096E0A6A000E0A22C1
:1025AA000C80010E0D6E0C8E31EF13F00C8EDC0ECA
:1025BA0004013425D96EDA6A000EDA2232C4DFFF4A
:1025CA0031EF13F0000EEC6F020EEB6F000EED6FA1
:1025DA00000EEE6F000EF06F000EEF6F62EC1CF053
:1025EA0031EF13F031510001F56FF66BF651000A25
:1025FA00D8B402EF13F031EF13F0F551000AD8B452
:10260A00C6EF12F0010AD8B4CAEF12F0020AD8B41F
:10261A00CAEF12F0060AD8B4AFEF12F0030AD8B420
:10262A00B4EF12F0010AD8B4E7EF12F00F0AD8B4E7
:10263A00BCEF12F0010AD8B4B8EF12F0030AD8B40A
:10264A00CEEF12F0010AD8B4DBEF12F0070AD8B4C1
:10265A0031EF13F031EF13F0120004013039E83290
:10266A00030B0009D8B43CEF13F03EEF13F086EFEA
:10267A0013F0BFEF13F00C8E080E296EBFEF13F0A4
:10268A00E0EC0CF0BFEF13F048EC19F0BFEF13F0D9
:10269A002A0E096E000E0A6E0C80010E0D6E0C8E4B
:1026AA00BFEF13F0DFEC16F0BFEF13F016EC06F0F5
:1026BA00BFEF13F0DC0E3425096E0A6A000E0A22F7
:1026CA000C80010E0D6E0C8EBFEF13F00C8EDC0E1B
:1026DA003425D96EDA6A000EDA2232C4DFFFBFEF80
:1026EA0013F0000E386E020E376E000E396E000EB1
:1026FA003A6E000E3C6E000E3B6EA7EC1CF0BFEF6C
:10270A0013F03151466E476A4750000AD8B490EF29
:10271A0013F0BFEF13F04650000AD8B457EF13F086
:10272A00010AD8B45BEF13F0020AD8B45BEF13F0D6
:10273A00060AD8B440EF13F0030AD8B445EF13F0F1
:10274A00010AD8B476EF13F00F0AD8B44DEF13F09C
:10275A00010AD8B449EF13F0030AD8B45FEF13F0B3
:10276A00010AD8B46BEF13F0070AD8B4BFEF13F01D
:10277A00BFEF13F01200200E0001DF6F0E5007E1C9
:10278A00200E0D5CD8B0CCEF13F0CEEF13F0E6EFCD
:10279A0013F00DC0DFF02850D8A4D6EF13F0D8EF0D
:1027AA0013F0DCEF13F0010E286EE6EF13F02804A5
:1027BA00D8A4E2EF13F0E4EF13F0E6EF13F0020E01
:1027CA00286EDF510D5E000E0E5A20EE01F00F50FA
:1027DA00D9261050DA22DFC0DFFF500EC26F040E76
:1027EA00C36F0CB0FBEF13F0FDEF13F03FEF14F0E3
:1027FA001AEF14F009C0F6FF0AC0F7FFF86AC2C060
:10280A00D9FFC3C0DAFF070EF76403D00800F550FA
:10281A0005D0F6CFE1FFF7CFE2FFE750DF6E094AB6
:10282A000A2A0001C24BC32BDF07DF51D8A420EFCD
:10283A0014F022EF14F0FFEF13F047EF14F009C081
:10284A00F6FF0AC0F7FFF86AC2C0D9FFC3C0DAFFB1
:10285A00070EF76403D00800F55005D0F6CFE1FF64
:10286A00F7CFE2FFE750DF6E094A0A2A0001C24B9E
:10287A00C32BDF07DF51D8A445EF14F047EF14F05C
:10288A0024EF14F01200200E2B6E0E5007E1200EDA
:10289A000D5CD8B053EF14F055EF14F06DEF14F04F
:1028AA000DC02BF02850D8A45DEF14F05FEF14F0A0
:1028BA0063EF14F0010E286E6DEF14F02804D8A40B
:1028CA0069EF14F06BEF14F06DEF14F0020E286E3E
:1028DA002B500D5E000E0E5A20EE01F00F50D92635
:1028EA001050DA222BC0DFFF500E0001C26F040E17
:1028FA00C36F0CB083EF14F085EF14F0C7EF14F038
:10290A00A2EF14F009C0F6FF0AC0F7FFF86AC2C0C6
:10291A00D9FFC3C0DAFF070EF76403D00800F550E9
:10292A0005D0F6CFE1FFF7CFE2FFE750DF6E094AA5
:10293A000A2A0001C24BC32B2B062B50D8A4A8EF9E
:10294A0014F0AAEF14F087EF14F0CFEF14F009C0D7
:10295A00F6FF0AC0F7FFF86AC2C0D9FFC3C0DAFFA0
:10296A00070EF76403D00800F55005D0F6CFE1FF53
:10297A00F7CFE2FFE750DF6E094A0A2A0001C24B8D
:10298A00C32B2B062B50D8A4CDEF14F0CFEF14F0A5
:10299A00ACEF14F01200000E0401506F000E516FDC
:1029AA002DEF15F00C8E2604D8A4DEEF14F0E0EF1C
:1029BA0014F048EF15F00401508348EF15F00C8E1F
:1029CA0048EF15F00C8E040134BFEEEF14F0F0EF6F
:1029DA0014F002EF15F034510F0B0001DF6FDF51D5
:1029EA00020DAA0EF324D96E000EF420DA6EDECFA1
:1029FA00E1F0DDCFE2F012EF15F034510F0B0001D8
:102A0A00DF6FDF51020D0F0EF324D96E000EF42092
:102A1A00DA6EDECFE1F0DDCFE2F0E1C0D9FFE2C04D
:102A2A00DAFFDFAE1BEF15F01DEF15F048EF15F0DA
:102A3A00E1C0D9FFE2C0DAFFDFA426EF15F028EFE4
:102A4A0015F048EF15F0010E0401506F48EF15F02C
:102A5A0030511F0B0001DF6FE06BE051000AD8B460
:102A6A0039EF15F048EF15F0DF51000AD8B4D7EF67
:102A7A0014F0010AD8B4E4EF14F0030AD8B4E7EF6B
:102A8A0014F048EF15F00CAE4DEF15F04FEF15F0BE
:102A9A0056EF15F0500E096E040E0A6E0C80020EE7
:102AAA000D6E12000FC0D9FF10C0DAFF000EDFBC96
:102ABA00010E0001E06F040E0F180F6E1050106E19
:102ACA00080E2918D8A46CEF15F06EEF15F080EFF8
:102ADA0015F0040132517F0B6E6E6E50D8B478EF48
:102AEA0015F07AEF15F07EEF15F0100E296E80EFD3
:102AFA0015F0040E296E2704D8A486EF15F088EF86
:102B0A0015F0D0EF15F020EE02F00F50D926105034
:102B1A00DA22500EDE6E040EDD6EC0EC13F0020EE9
:102B2A002818D8A49BEF15F09DEF15F0ABEF15F020
:102B3A000FC0D9FF10C0DAFF040EDF6E0FC0D9FF35
:102B4A0010C0DAFF000EDB8EDAEF15F00001E0515B
:102B5A00D8A4B2EF15F0B4EF15F0C2EF15F00FC01C
:102B6A00D9FF10C0DAFF480EDF6E0FC0D9FF10C0C0
:102B7A00DAFF000EDB8EDAEF15F00FC0D9FF10C0B6
:102B8A00DAFF080EDF6E0FC0D9FF10C0DAFF000EA1
:102B9A00DB8EDAEF15F004AED5EF15F0D7EF15F0AE
:102BAA00D8EF15F0049E000E276E12000401305172
:102BBA001F0BE806D8B4E4EF15F0E6EF15F0E8EFDE
:102BCA0015F05CEF16F03039E832030BE806D8B49A
:102BDA00F1EF15F0F3EF15F0F5EF15F05CEF16F0E5
:102BEA003451D8B4FBEF15F0FDEF15F03AEF16F0BB
:102BFA003405D8B403EF16F005EF16F03AEF16F0E5
:102C0A005CEF16F0CD0E096E000E0A6E000E0E6E07
:102C1A00080E0D6E0C800C8E5CEF16F0CD0E096E50
:102C2A00000E0A6E0C8E5CEF16F036C405F037C43F
:102C3A0006F0D50E016E000E026E000E076E000E33
:102C4A00086E048E5CEF16F0D50E096E000E0A6E41
:102C5A00000E0E6E070E0D6EC10E0C6E5CEF16F0B6
:102C6A0032C4C4F00C8E5CEF16F031510001DF6FF4
:102C7A00E06BE051000AD8B445EF16F05CEF16F0AD
:102C8A00DF51000AD8B407EF16F0010AD8B413EFDF
:102C9A0016F0210AD8B41AEF16F0010AD8B429EFAF
:102CAA0016F0030AD8B435EF16F05CEF16F01200EE
:102CBA000FC0D9FF10C0DAFF000EDFBC010E2C6E68
:102CCA00040E0F180F6E1050106E080E2918D8A493
:102CDA0071EF16F073EF16F085EF16F0040132511A
:102CEA007F0B6E6E6E50D8B47DEF16F07FEF16F044
:102CFA0083EF16F0100E296E85EF16F0040E296E7A
:102D0A002704D8A48BEF16F08DEF16F0D4EF16F047
:102D1A0020EE02F00F50D9261050DA22500EDE6E45
:102D2A00040EDD6E48EC14F0020E2818D8A4A0EFA9
:102D3A0016F0A2EF16F0B0EF16F00FC0D9FF10C0D0
:102D4A00DAFF040EDF6E0FC0D9FF10C0DAFF000EE3
:102D5A00DB8EDEEF16F02C50D8A4B6EF16F0B8EFE3
:102D6A0016F0C6EF16F00FC0D9FF10C0DAFF480EF2
:102D7A00DF6E0FC0D9FF10C0DAFF000EDB8EDEEF68
:102D8A0016F00FC0D9FF10C0DAFF080EDF6E0FC0B1
:102D9A00D9FF10C0DAFF000EDB8EDEEF16F004AEAC
:102DAA00D9EF16F0DBEF16F0DCEF16F0049E000EFA
:102DBA00276E1200000E0401506F000E516F37EF9C
:102DCA0017F00C8E2604D8A4EDEF16F0EFEF16F0EC
:102DDA0051EF17F0508351EF17F00C8E51EF17F0A7
:102DEA000C8E34BFFBEF16F0FDEF16F00EEF17F066
:102DFA0034510F0B2B6E2B50020DAA0EF324D96EF1
:102E0A00000EF420DA6EDECF2DF0DDCF2EF01DEFAE
:102E1A0017F034510F0B2B6E2B50020D0F0EF324AB
:102E2A00D96E000EF420DA6EDECF2DF0DDCF2EF053
:102E3A002DC0D9FF2EC0DAFFDFAE26EF17F028EF3C
:102E4A0017F051EF17F02DC0D9FF2EC0DAFFDFA41B
:102E5A0031EF17F033EF17F051EF17F0010E506F03
:102E6A0051EF17F030511F0B2B6E2C6A2C50000AB1
:102E7A00D8B442EF17F051EF17F02B50000AD8B42C
:102E8A00E6EF16F0010AD8B4F2EF16F0030AD8B446
:102E9A00F5EF16F051EF17F00CAE56EF17F058EFAA
:102EAA0017F05FEF17F0500E096E040E0A6E0C80D1
:102EBA00020E0D6E1200040130511F0BE806D8B441
:102ECA0069EF17F06BEF17F06DEF17F0E0EF17F0FF
:102EDA003039E832030BE806D8B476EF17F078EF0A
:102EEA0017F07AEF17F0E0EF17F03451D8B480EF0B
:102EFA0017F082EF17F0BFEF17F03405D8B488EF58
:102F0A0017F08AEF17F0BFEF17F0E0EF17F0CD0ECA
:102F1A00096E000E0A6E000E0E6E080E0D6E0C8003
:102F2A000C8EE0EF17F0CD0E096E000E0A6E0C8EB5
:102F3A00E0EF17F036C405F037C406F0D50E016E7F
:102F4A00000E026E000E076E000E086E048EE0EF91
:102F5A0017F0D50E096E000E0A6E000E0E6E070EE1
:102F6A000D6EC10E0C6EE0EF17F032C4C4F00C8E79
:102F7A00E0EF17F031512B6E2C6A2C50000AD8B4AE
:102F8A00C9EF17F0E0EF17F02B50000AD8B48CEF16
:102F9A0017F0010AD8B498EF17F0210AD8B49FEFB6
:102FAA0017F0010AD8B4AEEF17F0030AD8B4BAEF93
:102FBA0017F0E0EF17F012002250D8A4E7EF17F04D
:102FCA00E9EF17F058EF18F0010E226E2150D8A43D
:102FDA00F1EF17F0F3EF17F058EF18F0010E216E2A
:102FEA00020E2718D8A4FCEF17F0FEEF17F014EF23
:102FFA0018F020EE01F00F50D9261050DA22000EF8
:10300A00DF6E0FC0D9FF10C0DAFF480EDF6E0FC0A7
:10301A00D9FF10C0DAFF000EDB8E58EF18F0270434
:10302A00D8A41AEF18F01CEF18F058EF18F0000E99
:10303A00246E20EE01F01D50D9261E50DA22200EF1
:10304A00DF6E20EE02F01D50D9261E50DA22300E15
:10305A00DE6E040EDD6E1DC0D9FF1EC0DAFF040E3F
:10306A00DF6E1DC0D9FF1EC0DAFF000EDB8E010E17
:10307A00246E20EE01F01B50D9261C50DA22200EB5
:10308A00DF6E20EE02F01B50D9261C50DA22300ED9
:10309A00DE6E040EDD6E1BC0D9FF1CC0DAFF800E87
:1030AA00DF6E58EF18F012002250D8A45FEF18F024
:1030BA0061EF18F0D0EF18F0010E226E2150D8A45B
:1030CA0069EF18F06BEF18F0D0EF18F0010E216ECF
:1030DA00020E2718D8A474EF18F076EF18F08CEFC8
:1030EA0018F020EE01F00F50D9261050DA22000E07
:1030FA00DF6E0FC0D9FF10C0DAFF480EDF6E0FC0B7
:10310A00D9FF10C0DAFF000EDB8ED0EF18F02704CB
:10311A00D8A492EF18F094EF18F0D0EF18F0000E40
:10312A00246E20EE01F01D50D9261E50DA22200E00
:10313A00DF6E20EE02F01D50D9261E50DA22300E24
:10314A00DE6E040EDD6E1DC0D9FF1EC0DAFF040E4E
:10315A00DF6E1DC0D9FF1EC0DAFF000EDB8E010E26
:10316A00246E20EE01F01B50D9261C50DA22200EC4
:10317A00DF6E20EE02F01B50D9261C50DA22300EE8
:10318A00DE6E040EDD6E1BC0D9FF1CC0DAFF800E96
:10319A00DF6ED0EF18F012000C8E710E0001DF6F97
:1031AA000F0EE06F000EE26F000EE16F000EE46F8B
:1031BA00020EE36FB3EC0AF0000E0001DF6F040E9B
:1031CA00E06F000EE26F000EE16F000EE46F300E4A
:1031DA00E36FB3EC0AF06D8C000E0001F36F180E6A
:1031EA00F325D96EDA6A000EDA22000EDF6E150EAA
:1031FA00F325D96EDA6A000EDA22000EDF6EF32B9F
:10320A00020EF3650BEF19F00DEF19F0F4EF18F059
:10321A00DC0EDF6F000EE06F000EE26F000EE16F52
:10322A00000EE46F020EE36FB3EC0AF06D9C080E19
:10323A000F6E040E106E000E1D6E040E1E6E1DC063
:10324A001BF01EC01CF032C42AF02A50D8A430EF5A
:10325A0019F032EF19F036EF19F0100E296E47EF18
:10326A0019F0000E0001EC6F010EEB6F2A0EED6FE4
:10327A00000EEE6F000EF06F010EEF6F62EC1CF0A5
:10328A00200E296E12000C8E710E2B6E0F0E2C6EF4
:10329A00000E2E6E000E2D6E000E306E020E2F6E78
:1032AA006FEC0BF0000E2B6E040E2C6E000E2E6EC1
:1032BA00000E2D6E000E306E300E2F6E6FEC0BF07E
:1032CA006D8C000E3F6E180E3F24D96EDA6A000E1E
:1032DA00DA22000EDF6E150E3F24D96EDA6A000E6E
:1032EA00DA22000EDF6E3F2A020E3F647FEF19F0EA
:1032FA0081EF19F068EF19F0DC0E2B6E000E2C6EC0
:10330A00000E2E6E000E2D6E000E306E020E2F6E07
:10331A006FEC0BF06D9C080E0F6E040E106E000E13
:10332A001D6E040E1E6E1DC01BF01EC01CF032C4A2
:10333A002AF02A50D8A4A4EF19F0A6EF19F0AAEFA0
:10334A0019F0100E296EBAEF19F0000E386E010E40
:10335A00376E2A0E396E000E3A6E000E3C6E010E62
:10336A003B6EA7EC1CF0200E296E12002D0E0001F8
:10337A00CA6FDEC0F7F0FD0EF717D8A4C7EF19F031
:10338A00C9EF19F00BEF1AF0DEC0F7F0D890F73357
:10339A003F0EF717F751040D000EF3241D6E040EAD
:1033AA00F4201E6E1DC01BF01EC01CF0040E1B185C
:1033BA001B6E1C501C6E1DC0D9FF1EC0DAFFDF3009
:1033CA00E8320F0B0D0AD8A4EDEF19F0EFEF19F060
:1033DA0007EF1AF0300EDF6F040EE06F20EE02F0F6
:1033EA001D50D9261E50DA22DECFE1F0DDCFE2F001
:1033FA00000EE46F080EE36FDFEC1EF0D1EC1BF059
:10340A0017EF1AF0EBEC1CF017EF1AF0DE51FD0B78
:10341A00040AD8A413EF1AF015EF1AF017EF1AF0EE
:10342A0057EC15F012002D0E0001CA6FDEC048F0ED
:10343A00FD0E4816D8A424EF1AF026EF1AF068EF0A
:10344A001AF0DEC048F0D89048323F0E481648506D
:10345A00040D000EF3241D6E040EF4201E6E1DC012
:10346A001BF01EC01CF0040E1B181B6E1C501C6E99
:10347A001DC0D9FF1EC0DAFFDF30E8320F0B0D0A7C
:10348A00D8A44AEF1AF04CEF1AF064EF1AF0300E93
:10349A002B6E040E2C6E20EE02F01D50D9261E5003
:1034AA00DA22DECF2DF0DDCF2EF0000E306E080EC0
:1034BA002F6E08EC1FF01AEC1CF074EF1AF025ECD2
:1034CA001DF074EF1AF0DE51FD0B040AD8A470EF58
:1034DA001AF072EF1AF074EF1AF05DEC16F012009F
:1034EA000001E46F000E0001E56F040EE66FDF5184
:1034FA00E06FE16BD890E037E137E451E26FE36BBC
:10350A00D890E237E337D890E237E337E051E22741
:10351A00E151E323D890E237E337D890E237E33733
:10352A00E251E527E351E623E5C0D9FFE6C0DAFF19
:10353A00DF9EDF51D8A4A4EF1AF0A6EF1AF0B4EF79
:10354A001AF0E451020DAA0EF324D96E000EF420EB
:10355A00DA6EE5C0DEFFE6C0DDFFC0EF1AF0E45127
:10356A00020D0F0EF324D96E000EF420DA6EE5C0B8
:10357A00DEFFE6C0DDFFE5C0D9FFE6C0DAFFDF9C6B
:10358A0020EE04F0E551D926E651DA22DF8C12004A
:10359A00000E206E000E0001C96F020E2718D8A473
:1035AA00D9EF1AF0DBEF1AF0FBEF1AF020EE01F078
:1035BA001B50D9261C50DA22200EDF6E20EE02F0B4
:1035CA001B50D9261C50DA22500EDE6E040EDD6E18
:1035DA001BC0D9FF1CC0DAFF480EDF6E1BC0D9FF23
:1035EA001CC0DAFF000EDB8E23EF1BF00D50040126
:1035FA00365D0E503759D8B005EF1BF007EF1BF0B8
:10360A000BEF1BF036C40DF037C40EF0C0EC13F00C
:10361A0020EE02F00F50D9261050DA22500EDE6E3C
:10362A00040EDD6E0FC0D9FF10C0DAFF480EDF6E40
:10363A000FC0D9FF10C0DAFF000EDB8E1200000E99
:10364A00206E000E0001C96F020E2718D8A430EFB1
:10365A001BF032EF1BF052EF1BF020EE01F01B5073
:10366A00D9261C50DA22200EDF6E20EE02F01B5003
:10367A00D9261C50DA22500EDE6E040EDD6E1BC0F7
:10368A00D9FF1CC0DAFF480EDF6E1BC0D9FF1CC071
:10369A00DAFF000EDB8E7AEF1BF00D500401365D67
:1036AA000E503759D8B05CEF1BF05EEF1BF062EF9B
:1036BA001BF036C40DF037C40EF048EC14F020EEBF
:1036CA0002F00F50D9261050DA22500EDE6E040E88
:1036DA00DD6E0FC0D9FF10C0DAFF480EDF6E0FC0D3
:1036EA00D9FF10C0DAFF000EDB8E1200306E000E1A
:1036FA00316E040E326E2B502C6E2D6AD8902C36F9
:10370A002D3630502E6E2F6AD8902E362F36D890FE
:10371A002E362F362C502E262D502F22D8902E366C
:10372A002F36D8902E362F362E5031262F50322251
:10373A0031C0D9FF32C0DAFFDF9E2B50D8A4A8EFE0
:10374A001BF0AAEF1BF0B8EF1BF03050020DAA0EC7
:10375A00F324D96E000EF420DA6E31C0DEFF32C0D7
:10376A00DDFFC4EF1BF03050020D0F0EF324D96EAB
:10377A00000EF420DA6E31C0DEFF32C0DDFF31C048
:10378A00D9FF32C0DAFFDF9C20EE04F03150D9268F
:10379A003250DA22DF8C1200000E286E000E236EE1
:1037AA00000E206E000E0001C96F000E246E000E7E
:1037BA00276E0FC0D9FF10C0DAFF7F0EDF16040E86
:1037CA000F180F6E1050106E0FC0D9FF10C0DAFF1D
:1037DA007F0EDF16040E0F180F6E1050106E1BC0EE
:1037EA00D9FF1CC0DAFF7F0EDF16000E0C6E000E2A
:1037FA000E6E000E0D6E000E046E000E066E000EAA
:10380A00056EA1EC12F0000E0001EC6F030EEB6FD7
:10381A00000EED6F000EEE6F000EF06F000EEF6FF0
:10382A0062EC1CF07EEC0FF01200000E286E000E07
:10383A00236E000E206E000E0001C96F000E246E6A
:10384A00000E276E0FC0D9FF10C0DAFF7F0EDF16F9
:10385A00040E0F180F6E1050106E0FC0D9FF10C053
:10386A00DAFF7F0EDF16040E0F180F6E1050106E5F
:10387A001BC0D9FF1CC0DAFF7F0EDF16000E0C6ECC
:10388A00000E0E6E000E0D6E000E046E000E066E19
:10389A00000E056E32EC13F0000E386E030E376E12
:1038AA00000E396E000E3A6E000E3C6E000E3B6E34
:1038BA00A7EC1CF0C0EC10F012006CEF1CF05FECEF
:1038CA001DF0A6EF1CF0DBEC15F0A6EF1CF0EBC028
:1038DA00F1F0ECC0F2F00001F251000AD8B47CEF2A
:1038EA001CF07F0AD8B49FEF1CF0A6EF1CF0F15130
:1038FA00010AD8B464EF1CF0030AD8B4A6EF1CF08E
:10390A00010AD8B468EF1CF0060AD8B4A6EF1CF076
:10391A00770AD8B4A6EF1CF0010AD8B4A6EF1CF0B7
:10392A00070AD8B4A6EF1CF0010AD8B4A6EF1CF017
:10393A00A6EF1CF0F151FF0AD8B4A6EF1CF0A6EFCF
:10394A001CF01200B1EF1CF0C6EC1DF0EAEF1CF0FF
:10395A0060EC17F0EAEF1CF037C03DF038C03EF0DB
:10396A003E50000AD8B4C0EF1CF07F0AD8B4E3EF87
:10397A001CF0EAEF1CF03D50010AD8B4A9EF1CF084
:10398A00030AD8B4EAEF1CF0010AD8B4ADEF1CF070
:10399A00060AD8B4EAEF1CF0770AD8B4EAEF1CF0AA
:1039AA00010AD8B4EAEF1CF0070AD8B4EAEF1CF00F
:1039BA00010AD8B4EAEF1CF0EAEF1CF03D50FF0A06
:1039CA00D8B4EAEF1CF0EAEF1CF01200020E271836
:1039DA00D8A4F2EF1CF0F4EF1CF0F8EF1CF0DCECCA
:1039EA000EF024EF1DF0000E276E2450D8A400EF2D
:1039FA001DF002EF1DF022EF1DF020EE01F01B502A
:103A0A00D9261C50DA22200EDF6E20EE02F01B505F
:103A1A00D9261C50DA22300EDE6E040EDD6E1BC073
:103A2A00D9FF1CC0DAFF0C0EDF6E1BC0D9FF1CC009
:103A3A00DAFF000EDB8E24EF1DF0000E246E12005A
:103A4A00020E2718D8A42CEF1DF02EEF1DF032EF2E
:103A5A001DF061EC11F05EEF1DF0000E276E245090
:103A6A00D8A43AEF1DF03CEF1DF05CEF1DF020EEFC
:103A7A0001F01B50D9261C50DA22200EDF6E20EEF0
:103A8A0002F01B50D9261C50DA22300EDE6E040ECC
:103A9A00DD6E1BC0D9FF1CC0DAFF0C0EDF6E1BC027
:103AAA00D9FF1CC0DAFF000EDB8E5EEF1DF0000EA0
:103ABA00246E1200000E0001D56F4B0ED66F000E59
:103ACA00D76F000ED86F000ED96F000EDA6F080E8E
:103ADA00DB6F000EC76F1A0EE76F010EB5EC1EF012
:103AEA001E0E0001E76F020EB5EC1EF0000E00017B
:103AFA00DF6F400EE06F050EE16F400EE26F020EBF
:103B0A001FEC10F0DFC0C0F0E0C0C1F0000E0001F1
:103B1A00BE6F000EBF6F000E1F6E1200000E946E75
:103B2A00000E8B6E95809CEC20F0BCEC07F0DBEC71
:103B3A001FF00009D8B4A4EF1DF0A6EF1DF09AEF0C
:103B4A001DF0A3EC20F00101056F0551D8B4B0EFC8
:103B5A001DF0B2EF1DF09AEF1DF08B8087EC20F07C
:103B6A00F8EC1DF0A3EC20F00009D8A4BFEF1DF07B
:103B7A00C1EF1DF0B7EF1DF08B909AEF1DF007EF24
:103B8A0000F0000E0001D56F4B0ED66F000ED76FF6
:103B9A00000ED86F000ED96F000EDA6F080EDB6FB9
:103BAA00000EC76F1A0E336E010E30EC1FF01E0E98
:103BBA00336E020E30EC1FF0000E2B6E400E2C6E90
:103BCA00050E2D6E400E2E6E020E02EC12F02BC068
:103BDA00C0F02CC0C1F0000E0001BE6F000EBF6F16
:103BEA00000E1F6E1200000E0001E06F000EDF6F64
:103BFA00E0BF08EF1EF0E05108E1DF29D8A008EF86
:103C0A001EF00AEF1EF00CEF1EF027EF1EF0000E5A
:103C1A00E26F000EE16FE2BF1BEF1EF0E25108E116
:103C2A00E129D8A01BEF1EF01DEF1EF01FEF1EF0BA
:103C3A0023EF1EF0E14BE22B10EF1EF0DF4BE02BDF
:103C4A00FDEF1DF0120070A02DEF1EF02FEF1EF0F9
:103C5A0056EF1EF01DC0D9FF1EC0DAFF800EDE1817
:103C6A00D8A43AEF1EF03CEF1EF055EF1EF00FC03D
:103C7A00D9FF10C0DAFF840EDE18D8A447EF1EF071
:103C8A0049EF1EF055EF1EF01DC0D9FF1EC0DAFF26
:103C9A000C0EDF6E1DC0D9FF1EC0DAFF000EDB8ED0
:103CAA007090689A120070A05DEF1EF05FEF1EF030
:103CBA0086EF1EF01DC0D9FF1EC0DAFF800EDE1887
:103CCA00D8A46AEF1EF06CEF1EF085EF1EF00FC04D
:103CDA00D9FF10C0DAFF840EDE18D8A477EF1EF0E1
:103CEA0079EF1EF085EF1EF01DC0D9FF1EC0DAFF66
:103CFA000C0EDF6E1DC0D9FF1EC0DAFF000EDB8E70
:103D0A007090689A12000600E1CF4AF0E2CF4BF0B9
:103D1A00D9CF4CF0DACF4DF0F3CF4EF0F4CF4FF0CD
:103D2A00F6CF50F0F7CF51F0F8CF52F0F5CF53F06D
:103D3A002BEC20F053C0F5FF52C0F8FF51C0F7FF3B
:103D4A0050C0F6FF4FC0F4FF4EC0F3FF4DC0DAFF7C
:103D5A004CC0D9FF4BC0E2FF4AC0E1FF54921100A8
:103D6A000001EA6F0001E7A5BDEF1EF0BFEF1EF0EC
:103D7A00C4EF1EF0000EDF6FEA5175EC1AF0000175
:103D8A00E7A3CAEF1EF0CCEF1EF0D1EF1EF0010E32
:103D9A00DF6FEA5175EC1AF0700E0001EA25E86F40
:103DAA00E96B0F0EE923E8C0D9FFE9C0DAFFE7C0E3
:103DBA00DFFF1200E1C0E8F0E2C0E9F0DFC0E6F0A0
:103DCA00E0C0E7F0F9EF1EF0E8C0D9FFE9C0DAFF7A
:103DDA00DF50E56FE84BE92BE6C0D9FFE7C0DAFF11
:103DEA00E5C0DFFFE64BE72B0001E307D8A0E407B5
:103DFA00E32906E1E429D8A405EF1FF007EF1FF035
:103E0A00E9EF1EF012002DC033F02EC034F02BC0A3
:103E1A0031F02CC032F022EF1FF033C0D9FF34C08A
:103E2A00DAFFDF50356E334A342A31C0D9FF32C047
:103E3A00DAFF35C0DFFF314A322A2F06D8A0300612
:103E4A002F2806E13028D8A42DEF1FF02FEF1FF0FE
:103E5A0012EF1FF01200366E33A436EF1FF038EF60
:103E6A001FF03DEF1FF0000E2B6E36507BEC1BF05F
:103E7A0033A242EF1FF044EF1FF049EF1FF0010E8B
:103E8A002B6E36507BEC1BF0700E3624346E356A7E
:103E9A000F0E352234C0D9FF35C0DAFF33C0DFFF39
:103EAA001200500EF66E410EF76E000EF86E00EE1E
:103EBA00F9F010EE07F00900F5CFEEFFE550E150FA
:103ECA00FAE100EE60F07F0EEE6AE806FDE100EE30
:103EDA0001F02A0EEE6AE806FDE154905492000EB3
:103EEA00F86E000193EF1DF02950D8A47FEF1FF060
:103EFA0081EF1FF099EF1FF0000E6D6E000E696ED4
:103F0A00160E6F6E9F0E6B6E7B0E696EA28AA08A6A
:103F1A0090EF1FF06D866DA695EF1FF097EF1FF0DB
:103F2A008FEF1FF0010E296E1200000E256E000E93
:103F3A000001EC6F740EEB6F000EED6F000EEE6F6A
:103F4A00000EF06F000EEF6F62EC1CF06D92699438
:103F5A00B0EF1FF0689468B4B5EF1FF0B7EF1FF029
:103F6A00AFEF1FF0000E0001C86F1200000E256EA1
:103F7A00000E386E740E376E000E396E000E3A6EF1
:103F8A00000E3C6E000E3B6EA7EC1CF06D9269941D
:103F9A00D0EF1FF0689468B4D5EF1FF0D7EF1FF089
:103FAA00CFEF1FF0000E0001C86F12001F0E296428
:103FBA00E1EF1FF0E3EF1FF0F0EF1FF06DB2E8EF53
:103FCA001FF0EAEF1FF0F0EF1FF0000E0001E06FA4
:103FDA00DF69F5EF1FF0000E0001E06F000EDF6FE2
:103FEA00DF511200010E0001B427000EB523B623DB
:103FFA00B7232550D8A404EF20F006EF20F010EFE5
:10400A0020F0C82BC851D8A40DEF20F00FEF20F0F4
:10401A0010EF20F0C8691200010E0001B427000E4B
:10402A00B523B623B7232550D8A41EEF20F020EFDE
:10403A0020F02AEF20F0C82BC851D8A427EF20F08F
:10404A0029EF20F02AEF20F0C8691200F2AC30EF15
:10405A0020F032EF20F042EF20F0A0AA37EF20F054
:10406A0039EF20F042EF20F0A1AA3EEF20F040EF16
:10407A0020F042EF20F0D3EC08F01200698468982F
:10408A006D82010E256E000E0001C86F000EEC6FE6
:10409A00750EEB6F000EED6F000EEE6F000EF06FF7
:1040AA00000EEF6F62EC1CF01200698468986D8252
:1040BA00010E256E000E0001C86F000E386E750ED7
:1040CA00376E000E396E000E3A6E000E3C6E000E10
:1040DA003B6EA7EC1CF01200A09A1F50D8A478EFF0
:1040EA0020F07AEF20F085EF20F0DFC0BBF0E0C0CF
:1040FA00BCF0E1C0C6F0010E0001C56F010E1F6ED3
:10410A00A08A120020EEF9F010EEECF0060EDBCFDA
:10411A00E3FFE806FCE2EC0E0001DF6F000EE06F41
:10412A00060EE16F71EC20F0E7EC09F01200F28E56
:10413A00F28C90EC0DF079EC1FF01200010E83A0C6
:0D414A00000E12001200464C41500D0A00FC
:020000040020DA
:08000000FFFFFFFFFFFFFFFF00
:020000040030CA
:0E000000210E391EFF8381FF0FC00FE00F405D
:00000001FF
