:020000040000FA
:0400000007EF00F016
:0A0008005482FBED1EF052EF1FF0D2
:1008000000A4084C0872080908090243000201000C
:10081000C032090400000102020100052400100199
:100820000424020205240600010524010001070535
:1008300081030A000209040100020A000000070502
:100840000202400000070582024000002603440027
:1008500069006C007300680061006E0020005200A7
:1008600020004A006100790061006B006F006400A5
:1008700079002003540065007300740020005500C7
:1008800053004200200044006500760069006300C8
:1008900065001201000202000020D8040A000001D5
:0908A00001020001040309040037
:1008AA0004013205D8A45CEF04F05EEF04F078EF9F
:1008BA0004F030511F0B0009D8A466EF04F068EF6A
:1008CA0004F078EF04F00C8E030E3119D8A470EFFF
:1008DA0004F072EF04F076EF04F0010E256E78EF63
:1008EA0004F0000E256E3251D8A47EEF04F080EF9A
:1008FA0004F00FEF06F030511F0B020AD8A488EF5C
:10090A0004F08AEF04F00FEF06F034510F0B0009E0
:10091A00D8B492EF04F094EF04F00FEF06F03451DC
:10092A000F0B0001B36F030EB3619EEF04F0A0EF4B
:10093A0004F00FEF06F0200E2818D8A4A7EF04F051
:10094A00A9EF04F00FEF06F00C8E040134BFB0EFEC
:10095A0004F0B2EF04F0D2EF04F034510F0B0001AF
:10096A00B36FB351020D6A0EF324D96E000EF42050
:10097A00DA6EDECFB8F0DDCFB9F0040134510F0BD7
:10098A000001B36FB46B150EB325D96E000EB421F6
:10099A00DA6EDF50B76FF0EF04F034510F0B00013D
:1009AA00B36FB351020D0F0EF324D96E000EF4206B
:1009BA00DA6EDECFB8F0DDCFB9F0040134510F0B97
:1009CA000001B36FB46B180EB325D96E000EB421B3
:1009DA00DA6EDF50B76FB7B1F5EF04F0F7EF04F056
:1009EA00FFEF04F0FB0EB815B86FFF0EB915B96F1B
:1009FA0004EF05F0040EB811B86FB951B96F0401CC
:100A0A0034BF0AEF05F00CEF05F01EEF05F0345184
:100A1A000F0B0001B36FB351020D6A0EF324D96EA6
:100A2A00000EF420DA6EB8C0DEFFB9C0DDFF2EEF8B
:100A3A0005F034510F0B0001B36FB351020D0F0EC5
:100A4A00F324D96E000EF420DA6EB8C0DEFFB9C006
:100A5A00DDFF030E04013119D8A436EF05F038EF93
:100A6A0005F074EF05F0B8C0D9FFB9C0DAFF00018C
:100A7A00DFAE42EF05F044EF05F066EF05F0040142
:100A8A0034BF4AEF05F04CEF05F05AEF05F0345148
:100A9A000F0B0001B36FB46B150EB325D96E000EA0
:100AAA00B421DA6EDF8266EF05F034510F0B0001D4
:100ABA00B36FB46B180EB325D96E000EB421DA6E7B
:100ACA00DF82B8C0D9FFB9C0DAFF000EDB84B8C034
:100ADA00D9FFB9C0DAFF000EDB8E0FEF06F0040E65
:100AEA000001B819B86FB951B96FB8C0D9FFB9C008
:100AFA00DAFFDFAE83EF05F085EF05F0A1EF05F031
:100B0A00B8C0D9FFB9C0DAFF7F0EDF16B8C0D9FF67
:100B1A00B9C0DAFF000EDB8C000EAC6F050EAB6FAE
:100B2A00B8C0ADF0B9C0AEF0000EB06F020EAF6F34
:100B3A0038EC1DF0A7EF05F0B8C0D9FFB9C0DAFF4D
:100B4A00000EDB8C040E0001B819B86FB951B96FE9
:100B5A00B7B3B2EF05F0B4EF05F0BFEF05F0B8C0D8
:100B6A00D9FFB9C0DAFFDFAEBDEF05F0BFEF05F080
:100B7A00F7EF05F0040134BFC5EF05F0C7EF05F044
:100B8A00D5EF05F034510F0B0001B36FB46B150E9E
:100B9A00B325D96E000EB421DA6EDF92E1EF05F0CB
:100BAA0034510F0B0001B36FB46B180EB325D96E15
:100BBA00000EB421DA6EDF92B8C0D9FFB9C0DAFFED
:100BCA003B0EDF16000EAC6F050EAB6FB8C0ADF072
:100BDA00B9C0AEF0000EB06F020EAF6F38EC1DF068
:100BEA00FDEF05F0B8C0D9FFB9C0DAFF3B0EDF163A
:100BFA00040134510F0B0001B36FB46B700EB325AF
:100C0A00B56F0F0EB421B66FB5C0D9FFB6C0DAFF03
:100C1A00FE0EDF16120004013205D8A417EF06F003
:100C2A0019EF06F033EF06F030511F0B0009D8A474
:100C3A0021EF06F023EF06F033EF06F00C8E030ED9
:100C4A003119D8A42BEF06F02DEF06F031EF06F09C
:100C5A00010E256E33EF06F0000E256E3251D8A430
:100C6A0039EF06F03BEF06F0B5EF07F030511F0BF6
:100C7A00020AD8A443EF06F045EF06F0B5EF07F0F5
:100C8A0034510F0B0009D8B44DEF06F04FEF06F0C0
:100C9A00B5EF07F034510F0B3F6E030E3F6058EF6C
:100CAA0006F05AEF06F0B5EF07F0200E2818D8A480
:100CBA0061EF06F063EF06F0B5EF07F00C8E34BF74
:100CCA0069EF06F06BEF06F088EF06F034510F0B70
:100CDA003F6E3F50020D6A0EF324D96E000EF420C7
:100CEA00DA6EDECF44F0DDCF45F034510F0B3F6EA4
:100CFA00406A150E3F24D96E000E4020DA6EDF508E
:100D0A00436EA3EF06F034510F0B3F6E3F50020DB6
:100D1A000F0EF324D96E000EF420DA6EDECF44F003
:100D2A00DDCF45F034510F0B3F6E406A180E3F2459
:100D3A00D96E000E4020DA6EDF50436E43B0A8EF42
:100D4A0006F0AAEF06F0B2EF06F0FB0E4414446E6A
:100D5A00FF0E4514456EB7EF06F0040E4410446EBC
:100D6A004550456E34BFBCEF06F0BEEF06F0CFEF3C
:100D7A0006F034510F0B3F6E3F50020D6A0EF324FA
:100D8A00D96E000EF420DA6E44C0DEFF45C0DDFFE6
:100D9A00DEEF06F034510F0B3F6E3F50020D0F0E7F
:100DAA00F324D96E000EF420DA6E44C0DEFF45C08B
:100DBA00DDFF030E3119D8A4E5EF06F0E7EF06F0E0
:100DCA001FEF07F044C0D9FF45C0DAFFDFAEF0EFEE
:100DDA0006F0F2EF06F011EF07F034BFF7EF06F076
:100DEA00F9EF06F006EF07F034510F0B3F6E406A39
:100DFA00150E3F24D96E000E4020DA6EDF8211EF05
:100E0A0007F034510F0B3F6E406A180E3F24D96E1B
:100E1A00000E4020DA6EDF8244C0D9FF45C0DAFFF7
:100E2A00000EDB8444C0D9FF45C0DAFF000EDB8E1A
:100E3A00B5EF07F0040E4418446E4550456E44C0A1
:100E4A00D9FF45C0DAFFDFAE2DEF07F02FEF07F02D
:100E5A004BEF07F044C0D9FF45C0DAFF7F0EDF161B
:100E6A0044C0D9FF45C0DAFF000EDB8C000E386E95
:100E7A00050E376E44C039F045C03AF0000E3C6E9C
:100E8A00020E3B6E7DEC1DF051EF07F044C0D9FF16
:100E9A0045C0DAFF000EDB8C040E4418446E455040
:100EAA00456E43B25BEF07F05DEF07F068EF07F0BE
:100EBA0044C0D9FF45C0DAFFDFAE66EF07F068EF3E
:100ECA0007F09EEF07F0040134BF6EEF07F070EFF2
:100EDA0007F07DEF07F034510F0B3F6E406A150E95
:100EEA003F24D96E000E4020DA6EDF9288EF07F0B9
:100EFA0034510F0B3F6E406A180E3F24D96E000E14
:100F0A004020DA6EDF9244C0D9FF45C0DAFF3B0EBB
:100F1A00DF16000E386E050E376E44C039F045C034
:100F2A003AF0000E3C6E020E3B6E7DEC1DF0A4EF13
:100F3A0007F044C0D9FF45C0DAFF3B0EDF160401B3
:100F4A0034510F0B3F6E406A700E3F24416E0F0EF4
:100F5A004020426E41C0D9FF42C0DAFFFE0EDF16C2
:100F6A0012002804D8A4BCEF07F0BEEF07F0CBEFBD
:100F7A0007F06DBAC3EF07F0C5EF07F0CBEF07F044
:100F8A00000E686E69806988020E286E68A4D0EF28
:100F9A0007F0D2EF07F0DCEF07F069A4D7EF07F00C
:100FAA00D9EF07F0DCEF07F0689413EC20F06DA29C
:100FBA00E1EF07F0E3EF07F0E6EF07F0A19ACCEFD5
:100FCA0008F068A0EBEF07F0EDEF07F0FAEF07F093
:100FDA0069A0F2EF07F0F4EF07F0FAEF07F064EC1C
:100FEA000EF0A08A040E286E689068A8FFEF07F03A
:100FFA0001EF08F00AEF08F069A806EF08F008EF19
:10100A0008F00AEF08F0BCEC20F068AC0FEF08F02B
:10101A0011EF08F03EEF08F069AC16EF08F018EF90
:10102A0008F027EF08F0000E0001AC6F730EAB6FEB
:10103A00000EAD6F000EAE6F000EB06F010EAF6FF7
:10104A0038EC1DF0689C70EC20F000018B51D8B48C
:10105A0031EF08F033EF08F034EF08F08B078B51CB
:10106A00D8A43AEF08F03CEF08F03EEF08F0B7ECEE
:10107A0018F068AA43EF08F045EF08F04EEF08F0C1
:10108A0069AA4AEF08F04CEF08F04EEF08F09BEC23
:10109A001EF068A253EF08F055EF08F06CEF08F065
:1010AA0069A25AEF08F05CEF08F06CEF08F07F0EC7
:1010BA000001AC6FAB69000EAD6F000EAE6F000E93
:1010CA00B06F010EAF6F38EC1DF0000E6A6E040EA1
:1010DA00286072EF08F074EF08F077EF08F0A19A31
:1010EA00CCEF08F069A67CEF08F07EEF08F0CBEFB2
:1010FA0008F0000E0001BD6F68A686EF08F088EFC1
:10110A0008F0CBEF08F06CCF9EF09E31E832E8325F
:10111A000F0B8C6F68969EB595EF08F097EF08F065
:10112A00A0EF08F0150E8C25D96EDA6A000EDA22C5
:10113A00DF70A7EF08F0180E8C25D96EDA6A000E58
:10114A00DA22DF708C51D8A4ADEF08F0AFEF08F0C7
:10115A00B3EF08F091EC1AF0C1EF08F0000EAC6F93
:10116A00720EAB6F9E0EAD6F000EAE6F000EB06FBB
:10117A00000EAF6F38EC1DF00001BD2B030EBD65EC
:10118A00C9EF08F0CBEF08F081EF08F0A19A12003E
:10119A002804D8A4D3EF08F0D5EF08F0E2EF08F05E
:1011AA006DBADAEF08F0DCEF08F0E2EF08F0000EB3
:1011BA00686E69806988020E286E68A4E7EF08F0F5
:1011CA00E9EF08F0F3EF08F069A4EEEF08F0F0EFAA
:1011DA0008F0F3EF08F0689434EC20F06DA2F8EF11
:1011EA0008F0FAEF08F0FDEF08F0A19AE0EF09F035
:1011FA0068A002EF09F004EF09F011EF09F069A005
:10120A0009EF09F00BEF09F011EF09F00BEC0FF001
:10121A00A08A040E286E689068A816EF09F018EFE5
:10122A0009F021EF09F069A81DEF09F01FEF09F095
:10123A0021EF09F0D3EC20F068AC26EF09F028EF93
:10124A0009F054EF09F069AC2DEF09F02FEF09F01E
:10125A003DEF09F0000E386E730E376E000E396ED0
:10126A00000E3A6E000E3C6E010E3B6E7DEC1DF0D8
:10127A00689C8AEC20F000018B51D8B447EF09F042
:10128A0049EF09F04AEF09F08B078B51D8A450EFC8
:10129A0009F052EF09F054EF09F02FEC19F068AA9F
:1012AA0059EF09F05BEF09F064EF09F069AA60EF02
:1012BA0009F062EF09F064EF09F0CBEC1EF068A2C6
:1012CA0069EF09F06BEF09F081EF09F069A270EF9D
:1012DA0009F072EF09F081EF09F07F0E386E376876
:1012EA00000E396E000E3A6E000E3C6E010E3B6E19
:1012FA007DEC1DF0000E6A6E040E286087EF09F07F
:10130A0089EF09F08CEF09F0A19AE0EF09F069A6DC
:10131A0091EF09F093EF09F0DFEF09F0000E496E43
:10132A0068A69AEF09F09CEF09F0DFEF09F06CCF9D
:10133A009EF000019E31E832E8320F0B8C6F6896FE
:10134A009EB5AAEF09F0ACEF09F0B5EF09F0150E5A
:10135A008C25D96EDA6A000EDA22DF70BCEF09F04A
:10136A00180E8C25D96EDA6A000EDA22DF708C51DB
:10137A00D8A4C2EF09F0C4EF09F0C8EF09F0EEEC07
:10138A001AF0D6EF09F0000E386E720E376E9E0E06
:10139A00396E000E3A6E000E3C6E000E3B6E7DEC0E
:1013AA001DF0492A030E4964DDEF09F0DFEF09F069
:1013BA0095EF09F0A19A1200000E946E000E8B6E42
:1013CA00958095829584958667EC21F0010E00013F
:1013DA00BE6F010EBF6F010EC06F010EC16FB6EC7A
:1013EA0007F054EC20F00009D8B4FEEF09F000EF42
:1013FA000AF0F4EF09F080EC21F00001C26F7AECF8
:10140A0021F00001C36F74EC21F00001C46F6EEC8F
:10141A0021F00001C56FC251D8A416EF0AF018EFE7
:10142A000AF023EF0AF0BE05D8A41EEF0AF020EF57
:10143A000AF023EF0AF08B803FEC21F00001C2058D
:10144A00D8A42AEF0AF02CEF0AF037EF0AF0BE51BF
:10145A00D8A432EF0AF034EF0AF037EF0AF08B9093
:10146A003FEC21F0C2C0BEF00001C351D8A440EF46
:10147A000AF042EF0AF04DEF0AF0BF05D8A448EF90
:10148A000AF04AEF0AF04DEF0AF08B822AEC21F0BB
:10149A000001C305D8A454EF0AF056EF0AF061EF31
:1014AA000AF0BF51D8A45CEF0AF05EEF0AF061EFD0
:1014BA000AF08B922AEC21F0C3C0BFF00001C4519C
:1014CA00D8A46AEF0AF06CEF0AF077EF0AF0C005C9
:1014DA00D8A472EF0AF074EF0AF077EF0AF08B845F
:1014EA0000EC21F00001C405D8A47EEF0AF080EFD9
:1014FA000AF08BEF0AF0C051D8A486EF0AF088EF01
:10150A000AF08BEF0AF08B9400EC21F0C4C0C0F013
:10151A000001C551D8A494EF0AF096EF0AF0A1EFA2
:10152A000AF0C105D8A49CEF0AF09EEF0AF0A1EFD9
:10153A000AF08B8615EC21F00001C505D8A4A8EFA6
:10154A000AF0AAEF0AF0B5EF0AF0C151D8A4B0EF39
:10155A000AF0B2EF0AF0B5EF0AF08B9615EC21F01B
:10156A00C5C0C1F0F4EF09F007EF00F0A09A00013E
:10157A007E517F11D8B4C4EF0AF0C6EF0AF0D4EF57
:10158A000AF07EC0D9FF7FC0DAFFDFAECFEF0AF0E4
:10159A00D1EF0AF0D4EF0AF0A08A86EF0BF0030E1F
:1015AA001F18D8A4DBEF0AF0DDEF0AF0DFEF0AF02C
:1015BA00000E1F6E1F50D8A4E5EF0AF0E7EF0AF0FD
:1015CA00EAEF0AF0A08A86EF0BF0020E1F18D8A4E1
:1015DA00F1EF0AF0F3EF0AF006EF0BF0010E9F6F3E
:1015EA00000EA06F000EA16F000EA26F020E96EC05
:1015FA0011F09FC07EF0A0C07FF0030E1F6E85EF32
:10160A000BF01F04D8A40CEF0BF00EEF0BF085EFD4
:10161A000BF0400E866514EF0BF016EF0BF01AEF85
:10162A000BF0400EAB6F1CEF0BF086C0ABF0AB516A
:10163A00865D866F000E786F050E796FABC0AAF0D3
:10164A008551D8A42BEF0BF02DEF0BF057EF0BF0D1
:10165A003EEF0BF07BC0D9FF7CC0DAFF78C0E1FF18
:10166A0079C0E2FFDFCFE7FF784B792B7B4B7C2BEE
:10167A00AA07AA51D8A444EF0BF046EF0BF02FEFBC
:10168A000BF05FEF0BF07BC0D9FF7CC0DAFF78C0AC
:10169A00E1FF79C0E2FFDFCFE7FF784B792B7B4B85
:1016AA007C2BAA07AA51D8A45DEF0BF05FEF0BF0D1
:1016BA0048EF0BF08651D8A465EF0BF067EF0BF0FB
:1016CA0076EF0BF0400EAB19D8A46EEF0BF070EF6B
:1016DA000BF074EF0BF0020E1F6E76EF0BF0030E99
:1016EA001F6E010E9F6F000EA06F050EA16FABC09B
:1016FA00A2F0020E96EC11F09FC07EF0A0C07FF01F
:10170A00A08A12009FC0A9F0A0C0AAF00001A351AC
:10171A00A411D8A493EF0BF095EF0BF097EF0BF011
:10172A0042EF0CF0A9C0D9FFAAC0DAFFA1C0DFFFBF
:10173A00A351A925A56FA451AA21A66FFF0EA5251D
:10174A00D96EFF0EA621DA6EA1C0DFFFA45107E110
:10175A00030EA35DD8B0B4EF0BF0B6EF0BF0B8EF01
:10176A000BF042EF0CF020EE01F0A951D926AA5154
:10177A00DA22A1C0DFFF20EE02F0A951D926AA5130
:10178A00DA22A1C0DFFFA351A925A56FA451AA217E
:10179A00A66FFE0EA525D96EFF0EA621DA6EA1C090
:1017AA00DFFFA351A925A56FA451AA21A66FFD0E9B
:1017BA00A525D96EFF0EA621DA6EA1C0DFFFA451BE
:1017CA0007E1070EA35DD8B0EDEF0BF0EFEF0BF0DA
:1017DA00F1EF0BF042EF0CF020EE03F0A951D926FD
:1017EA00AA51DA22A1C0DFFFA351A925A56FA451EE
:1017FA00AA21A66FFC0EA525D96EFF0EA621DA6EC8
:10180A00A1C0DFFFA45107E1090EA35DD8B010EF14
:10181A000CF012EF0CF014EF0CF042EF0CF0A9C030
:10182A00A5F0AAC0A6F0A51FA61FA54BA62B030EBE
:10183A00A515A76FA86BA751A927A851AA23A75135
:10184A00A35FA851A45BFC0EA317FF0EA41739EFE0
:10185A000CF0A9C0D9FFAAC0DAFFA1C0DFFFA30715
:10186A00D8A0A407A94BAA2BA351A411D8A440EF2E
:10187A000CF042EF0CF02EEF0CF012002BC035F0FA
:10188A002CC036F02F503010D8A44EEF0CF050EF89
:10189A000CF052EF0CF0FDEF0CF035C0D9FF36C05A
:1018AA00DAFF2DC0DFFF2F503524316E305036203D
:1018BA00326EFF0E3124D96EFF0E3220DA6E2DC041
:1018CA00DFFF305007E1030E2F5CD8B06FEF0CF04A
:1018DA0071EF0CF073EF0CF0FDEF0CF020EE01F05D
:1018EA003550D9263650DA222DC0DFFF20EE02F01D
:1018FA003550D9263650DA222DC0DFFF2F50352435
:10190A00316E30503620326EFE0E3124D96EFF0E03
:10191A003220DA6E2DC0DFFF2F503524316E305061
:10192A003620326EFD0E3124D96EFF0E3220DA6E69
:10193A002DC0DFFF305007E1070E2F5CD8B0A8EFAB
:10194A000CF0AAEF0CF0ACEF0CF0FDEF0CF020EE6F
:10195A0003F03550D9263650DA222DC0DFFF2F503A
:10196A003524316E30503620326EFC0E3124D96E59
:10197A00FF0E3220DA6E2DC0DFFF305007E1090E6C
:10198A002F5CD8B0CBEF0CF0CDEF0CF0CFEF0CF012
:10199A00FDEF0CF035C031F036C032F0311E321E88
:1019AA00314A322A030E3114336E346A33503526E3
:1019BA003450362233502F5E3450305AFC0E2F16D4
:1019CA00FF0E3016F4EF0CF035C0D9FF36C0DAFF3F
:1019DA002DC0DFFF2F06D8A03006354A362A2F50F1
:1019EA003010D8A4FBEF0CF0FDEF0CF0E9EF0CF08F
:1019FA001200800E04013019D8A406EF0DF008EF8A
:101A0A000DF0B3EF0DF0C00E0C6E99EF0DF0920EC3
:101A1A00096E080E0A6E000E0E6E120E0D6EB3EFF0
:101A2A000DF004013251D8A41DEF0DF01FEF0DF097
:101A3A005FEF0DF03251020D070EF324F66E080E19
:101A4A00F420F76E0900F5CF09F00A00F5CF0AF085
:101A5A00020E092400019F6F000E0A20A06F9FC08A
:101A6A00F6FFA0C0F7FFF86A070EF76403D0080074
:101A7A00F55005D0F6CFE1FFF7CFE2FFE7500D6E44
:101A8A00030E092400019F6F000E0A20A06F9FC059
:101A9A00F6FFA0C0F7FFF86A070EF76403D0080044
:101AAA00F55005D0F6CFE1FFF7CFE2FFE7500E6E13
:101ABA00B3EF0DF0000E0C6EB3EF0DF0030E040140
:101ACA0032616AEF0DF06CEF0DF091EF0DF03251CB
:101ADA00020D010EF324F66E080EF420F76E0900CB
:101AEA00F5CF09F00A00F5CF0AF009C0F6FF0AC0DF
:101AFA00F7FFF86A070EF76403D00800F55005D01F
:101B0A00F6CFE1FFF7CFE2FFE75000019F6F9F5149
:101B1A000D6E0E6AB3EF0DF0000E0C6EB3EF0DF002
:101B2A00000E0C6EB3EF0DF0335100019F6FA06BE6
:101B3A00A051000AD8B4A4EF0DF095EF0DF09F5113
:101B4A00010AD8B40CEF0DF0030AD8B416EF0DF061
:101B5A00010AD8B463EF0DF095EF0DF01200800E74
:101B6A0004013019D8A4BCEF0DF0BEEF0DF063EFFD
:101B7A000EF0C00E0C6E4AEF0EF0920E096E080EB1
:101B8A000A6E000E0E6E120E0D6E63EF0EF03251DB
:101B9A00D8A4D2EF0DF0D4EF0DF012EF0EF03251BF
:101BAA00020D070EF324F66E080EF420F76E0900F4
:101BBA00F5CF09F00A00F5CF0AF0020E09242B6EC0
:101BCA00000E0A202C6E2BC0F6FF2CC0F7FFF86A15
:101BDA00070EF76403D00800F55005D0F6CFE1FFF1
:101BEA00F7CFE2FFE7500D6E030E09242B6E000EAD
:101BFA000A202C6E2BC0F6FF2CC0F7FFF86A070EDE
:101C0A00F76403D00800F55005D0F6CFE1FFF7CF0F
:101C1A00E2FFE7500E6E63EF0EF0000E0C6E63EFFC
:101C2A000EF0030E32611CEF0EF01EEF0EF042EFC3
:101C3A000EF03251020D010EF324F66E080EF42056
:101C4A00F76E0900F5CF09F00A00F5CF0AF009C0CE
:101C5A00F6FF0AC0F7FFF86A070EF76403D0080018
:101C6A00F55005D0F6CFE1FFF7CFE2FFE7502B6E34
:101C7A002B500D6E0E6A63EF0EF0000E0C6E63EFC2
:101C8A000EF0000E0C6E63EF0EF033512B6E2C6AC1
:101C9A002C50000AD8B454EF0EF046EF0EF02B5039
:101CAA00010AD8B4C2EF0DF0030AD8B4CCEF0DF094
:101CBA00010AD8B416EF0EF046EF0EF01200A09A01
:101CCA00000E6A6E000E686E000E706E710E0001D4
:101CDA009F6F0F0EA06F000EA26F000EA16F000E75
:101CEA00A46F020EA36F87EC0BF0160E6F6E9F0E99
:101CFA006B6E7B0E696E000E0001AB6FAB51040D6B
:101D0A00000EF324D96E040EF420DA6EDE6ADE6A5F
:101D1A00DE6ADD6AAB2B0B0EAB6596EF0EF098EF21
:101D2A000EF083EF0EF06D8C000E6E6E6D986D9C4A
:101D3A006896000E0C6E000E046E000E066E000E03
:101D4A00056E68B6ABEF0EF0ADEF0EF09DEF0EF03C
:101D5A00010E216E010E206E000E00018A6F000E28
:101D6A00896F000E246E000EAB6FAB51020D0F0E81
:101D7A00F324D96E000EF420DA6E000EDE6E000E29
:101D8A00DD6EAB51020D6A0EF324D96E000EF420FB
:101D9A00DA6E000EDE6E000EDD6E180EAB25D96E01
:101DAA00DA6A000EDA22000EDF6E150EAB25D96E46
:101DBA00DA6A000EDA22000EDF6EAB2B020EAB657A
:101DCA00E9EF0EF0EBEF0EF0BAEF0EF0080E0F6E21
:101DDA00040E106E160E706E040E0401036F300EA0
:101DEA00026F200E016F040E006F008F000E2A6E24
:101DFA00000E0001746F000E756F000E766F000EF4
:101E0A00776F000E886F000E286E1200A09A000EDF
:101E1A006A6E000E686E000E706E710E2B6E0F0EDB
:101E2A002C6E000E2E6E000E2D6E000E306E020EFF
:101E3A002F6E43EC0CF0160E6F6E9F0E6B6E7B0EC0
:101E4A00696E000E376E3750040D000EF324D96EFA
:101E5A00040EF420DA6EDE6ADE6ADE6ADD6A372A8A
:101E6A000B0E37643BEF0FF03DEF0FF028EF0FF04A
:101E7A006D8C000E6E6E6D986D9C6896000E0C6EE1
:101E8A00000E046E000E066E000E056E68B650EF68
:101E9A000FF052EF0FF042EF0FF0010E216E010E1C
:101EAA00206E000E00018A6F000E896F000E246EEC
:101EBA00000E376E3750020D0F0EF324D96E000E46
:101ECA00F420DA6E000EDE6E000EDD6E3750020D63
:101EDA006A0EF324D96E000EF420DA6E000EDE6E5E
:101EEA00000EDD6E180E3724D96EDA6A000EDA2279
:101EFA00000EDF6E150E3724D96EDA6A000EDA226A
:101F0A00000EDF6E372A020E37648EEF0FF090EF65
:101F1A000FF05FEF0FF0080E0F6E040E106E160E24
:101F2A00706E040E0401036F300E026F200E016FF3
:101F3A00040E006F008F000E2A6E000E0001746FEF
:101F4A00000E756F000E766F000E776F000E886FA9
:101F5A00000E286E12006D980CBEB6EF0FF0B8EFA7
:101F6A000FF0FEEF0FF004AEBDEF0FF0BFEF0FF072
:101F7A00D2EF0FF0020E266E00018951D8A4C8EFE5
:101F8A000FF0CAEF0FF0CCEF0FF0A3EC1BF0000E2E
:101F9A00206E000E216E51EF10F020EE01F01B5062
:101FAA00D9261C50DA22200EDF6E20EE02F01B50DA
:101FBA00D9261C50DA22300EDE6E040EDD6E1BC0EE
:101FCA00D9FF1CC0DAFF0C0EDF6E1BC0D9FF1CC084
:101FDA00DAFF000EDB8E0FC0D9FF10C0DAFF040E45
:101FEA00DF6E0FC0D9FF10C0DAFF000EDB8E51EF93
:101FFA0010F0040130AF04EF10F006EF10F023EFF9
:10200A0010F0010E266E00018A51D8A40FEF10F0CD
:10201A0011EF10F013EF10F0A3EC1BF0000E206E7E
:10202A00000E216E2250D8A41DEF10F01FEF10F001
:10203A0051EF10F0B7EC18F051EF10F0020E266EC7
:10204A0020EE01F01B50D9261C50DA22200EDF6E3A
:10205A0020EE02F01B50D9261C50DA22300EDE6E1A
:10206A00040EDD6E1BC0D9FF1CC0DAFF040EDF6E42
:10207A001BC0D9FF1CC0DAFF000EDB8E000E206EDB
:10208A00000E216E2250D8A44DEF10F04FEF10F041
:10209A0051EF10F01FEF10F0120020EE01F01D506A
:1020AA00D9261E50DA22DF500001A06FA051055C2C
:1020BA00000E0658D8B064EF10F066EF10F068EF23
:1020CA0010F005C0A0F0A051055E000E065A000EE1
:1020DA009F6F7FEF10F0500E9F25D96EDA6A040EBB
:1020EA00DA2201C0E1FF02C0E2FFDFCFE7FF014AC7
:1020FA00022A9F2BA0519F5DD8A086EF10F088EF8F
:10210A0010F070EF10F005500610D8B48FEF10F0F1
:10211A0091EF10F0CAEF10F020EE01F01B50D92613
:10212A001C50DA22200EDF6E20EE02F01B50D92658
:10213A001C50DA22500EDE6E040EDD6E1DC0D9FF71
:10214A001EC0DAFFDFBCACEF10F0AEEF10F0BCEF50
:10215A0010F01BC0D9FF1CC0DAFF480EDF6E1BC08F
:10216A00D9FF1CC0DAFF000EDB8EF3EF10F01BC0A4
:10217A00D9FF1CC0DAFF080EDF6E1BC0D9FF1CC0D6
:10218A00DAFF000EDB8EF3EF10F020EE01F01B50A9
:10219A00D9261C50DA22200EDF6E20EE02F01B50E8
:1021AA00D9261C50DA22300EDE6E040EDD6E1BC0FC
:1021BA00D9FF1CC0DAFF040EDF6E1BC0D9FF1CC09A
:1021CA00DAFF000EDB8E049E2250D8A4EFEF10F047
:1021DA00F1EF10F0F3EF10F0B7EC18F012006D9871
:1021EA000CBEFAEF10F0FCEF10F042EF11F004AE63
:1021FA0001EF11F003EF11F016EF11F0020E266E47
:10220A0000018951D8A40CEF11F00EEF11F010EF74
:10221A0011F0FAEC1BF0000E206E000E216E95EF05
:10222A0011F020EE01F01B50D9261C50DA22200EA4
:10223A00DF6E20EE02F01B50D9261C50DA22300E37
:10224A00DE6E040EDD6E1BC0D9FF1CC0DAFF0C0E59
:10225A00DF6E1BC0D9FF1CC0DAFF000EDB8E0FC079
:10226A00D9FF10C0DAFF040EDF6E0FC0D9FF10C00D
:10227A00DAFF000EDB8E95EF11F0040130AF48EF64
:10228A0011F04AEF11F067EF11F0010E266E00010E
:10229A008A51D8A453EF11F055EF11F057EF11F00E
:1022AA00FAEC1BF0000E206E000E216E2250D8A40C
:1022BA0061EF11F063EF11F095EF11F02FEC19F0C7
:1022CA0095EF11F0020E266E20EE01F01B50D92672
:1022DA001C50DA22200EDF6E20EE02F01B50D926A7
:1022EA001C50DA22300EDE6E040EDD6E1BC0D9FFE2
:1022FA001CC0DAFF040EDF6E1BC0D9FF1CC0DAFF58
:10230A00000EDB8E000E206E000E216E2250D8A425
:10231A0091EF11F093EF11F095EF11F063EF11F0D7
:10232A0012000001A76F00019F51D8B49FEF11F06E
:10233A00A1EF11F0AFEF11F0A751020D0F0EF32428
:10234A00D96E000EF420DA6EDECFA8F0DDCFA9F048
:10235A00BBEF11F0A751020D6A0EF324D96E000EDD
:10236A00F420DA6EDECFA8F0DDCFA9F0A851A911CA
:10237A00D8A4C2EF11F0C4EF11F0CAEF11F0000EA9
:10238A009F6F000EA06F36EF12F020EE02F0A851F8
:10239A00D926A951DA22A0C0DEFFA1C0DDFF20EEB6
:1023AA0001F0A851D926A951DA22A2C0DFFFA8C09C
:1023BA00D9FFA9C0DAFF400EDF16A8C0D9FFA9C00D
:1023CA00DAFF000EDB86A8C0D9FFA9C0DAFF000E2B
:1023DA00DB8E9F51D8B4F4EF11F0F6EF11F015EF40
:1023EA0012F0A751020D0F0EF324D96E000EF4203D
:1023FA00DA6EDECFA3F0DDCFA4F0040EA319A56F29
:10240A00A451A66FA751020D0F0EF324D96E000E28
:10241A00F420DA6EA5C0DEFFA6C0DDFF32EF12F0AF
:10242A00A751020D6A0EF324D96E000EF420DA6E5B
:10243A00DECFA3F0DDCFA4F0040EA319A56FA4513B
:10244A00A66FA751020D6A0EF324D96E000EF4206E
:10245A00DA6EA5C0DEFFA6C0DDFFA8C09FF0A9C046
:10246A00A0F0120020EE01F01D50D9261E50DA22EB
:10247A00DF502C6E2C50055C000E0658D8B048EF81
:10248A0012F04AEF12F04CEF12F005C02CF02C506B
:10249A00055E000E065A000E2B6E63EF12F0500E08
:1024AA002B24D96EDA6A040EDA2201C0E1FF02C0D7
:1024BA00E2FFDFCFE7FF014A022A2B2A2C502B5CCE
:1024CA00D8A06AEF12F06CEF12F054EF12F0055038
:1024DA000610D8B473EF12F075EF12F0AEEF12F0E7
:1024EA0020EE01F01B50D9261C50DA22200EDF6E96
:1024FA0020EE02F01B50D9261C50DA22500EDE6E56
:10250A00040EDD6E1DC0D9FF1EC0DAFFDFBC90EFDE
:10251A0012F092EF12F0A0EF12F01BC0D9FF1CC00C
:10252A00DAFF480EDF6E1BC0D9FF1CC0DAFF000EAF
:10253A00DB8ED7EF12F01BC0D9FF1CC0DAFF080EE2
:10254A00DF6E1BC0D9FF1CC0DAFF000EDB8ED7EF8F
:10255A0012F020EE01F01B50D9261C50DA22200E70
:10256A00DF6E20EE02F01B50D9261C50DA22300E04
:10257A00DE6E040EDD6E1BC0D9FF1CC0DAFF040E2E
:10258A00DF6E1BC0D9FF1CC0DAFF000EDB8E049E73
:10259A002250D8A4D3EF12F0D5EF12F0D7EF12F0F1
:1025AA002FEC19F01200336E2B50D8B4DFEF12F073
:1025BA00E1EF12F0EFEF12F03350020D0F0EF32499
:1025CA00D96E000EF420DA6EDECF34F0DDCF35F0AE
:1025DA00FBEF12F03350020D6A0EF324D96E000E8F
:1025EA00F420DA6EDECF34F0DDCF35F0345035101A
:1025FA00D8A402EF13F004EF13F00AEF13F0000E61
:10260A002B6E000E2C6E76EF13F020EE02F0345093
:10261A00D9263550DA222CC0DEFF2DC0DDFF20EE90
:10262A0001F03450D9263550DA222EC0DFFF34C0EB
:10263A00D9FF35C0DAFF400EDF1634C0D9FF35C0E6
:10264A00DAFF000EDB8634C0D9FF35C0DAFF000E90
:10265A00DB8E2B50D8B434EF13F036EF13F055EF6E
:10266A0013F03350020D0F0EF324D96E000EF4202E
:10267A00DA6EDECF2FF0DDCF30F0040E2F18316E78
:10268A003050326E3350020D0F0EF324D96E000E05
:10269A00F420DA6E31C0DEFF32C0DDFF72EF13F0D4
:1026AA003350020D6A0EF324D96E000EF420DA6E4E
:1026BA00DECF2FF0DDCF30F0040E2F18316E305000
:1026CA00326E3350020D6A0EF324D96E000EF420D6
:1026DA00DA6E31C0DEFF32C0DDFF34C02BF035C008
:1026EA002CF0120004013039E832030B0009D8B487
:1026FA0081EF13F083EF13F0CDEF13F007EF14F02F
:10270A000C8E080E286E07EF14F0FEEC0CF007EFA3
:10271A0014F0A7EC19F007EF14F02A0E096E000E58
:10272A000A6E0C80010E0D6E0C8E07EF14F0A6ECEB
:10273A0015F007EF14F055EC04F007EF14F09C0EB7
:10274A0004013425096E0A6A000E0A220C80010E61
:10275A000D6E0C8E07EF14F00C8E9C0E04013425BE
:10276A00D96EDA6A000EDA2232C4DFFF07EF14F0FC
:10277A00000EAC6F020EAB6F000EAD6F000EAE6FA7
:10278A00000EB06F000EAF6F38EC1DF007EF14F0BB
:10279A0031510001BA6FBB6BBB51000AD8B4D8EFF4
:1027AA0013F007EF14F0BA51000AD8B49CEF13F0F3
:1027BA00010AD8B4A0EF13F0020AD8B4A0EF13F0BC
:1027CA00060AD8B485EF13F0030AD8B48AEF13F0D7
:1027DA00010AD8B4BDEF13F00F0AD8B492EF13F080
:1027EA00010AD8B48EEF13F0030AD8B4A4EF13F099
:1027FA00010AD8B4B1EF13F0070AD8B407EF14F0FE
:10280A0007EF14F0120004013039E832030B000913
:10281A00D8B412EF14F014EF14F05CEF14F095EF43
:10282A0014F00C8E080E286E95EF14F0B4EC0DF02F
:10283A0095EF14F01EEC1AF095EF14F02A0E096EBB
:10284A00000E0A6E0C80010E0D6E0C8E95EF14F0C0
:10285A00B5EC17F095EF14F010EC06F095EF14F0C4
:10286A009C0E3425096E0A6A000E0A220C80010E9B
:10287A000D6E0C8E95EF14F00C8E9C0E3425D96ECD
:10288A00DA6A000EDA2232C4DFFF95EF14F0000E86
:10289A00386E020E376E000E396E000E3A6E000E5A
:1028AA003C6E000E3B6E7DEC1DF095EF14F031513D
:1028BA00466E476A4750000AD8B466EF14F095EF9F
:1028CA0014F04650000AD8B42DEF14F0010AD8B417
:1028DA0031EF14F0020AD8B431EF14F0060AD8B472
:1028EA0016EF14F0030AD8B41BEF14F0010AD8B497
:1028FA004CEF14F00F0AD8B423EF14F0010AD8B43D
:10290A001FEF14F0030AD8B435EF14F0010AD8B453
:10291A0041EF14F0070AD8B495EF14F095EF14F0CC
:10292A001200200E00019F6F0E5007E1200E0D5C71
:10293A00D8B0A2EF14F0A4EF14F0BCEF14F00DC05D
:10294A009FF02750D8A4ACEF14F0AEEF14F0B2EF1A
:10295A0014F0010E276EBCEF14F02704D8A4B8EFC8
:10296A0014F0BAEF14F0BCEF14F0020E276E9F5168
:10297A000D5E000E0E5A20EE01F00F50D9261050AF
:10298A00DA229FC0DFFF500E826F040E836F0CB0F5
:10299A00D1EF14F0D3EF14F015EF15F0F0EF14F0B7
:1029AA0009C0F6FF0AC0F7FFF86A82C0D9FF83C0E0
:1029BA00DAFF070EF76403D00800F55005D0F6CF0A
:1029CA00E1FFF7CFE2FFE750DF6E094A0A2A00016A
:1029DA00824B832B9F079F51D8A4F6EF14F0F8EF90
:1029EA0014F0D5EF14F01DEF15F009C0F6FF0AC078
:1029FA00F7FFF86A82C0D9FF83C0DAFF070EF764CF
:102A0A0003D00800F55005D0F6CFE1FFF7CFE2FF7B
:102A1A00E750DF6E094A0A2A0001824B832B9F077F
:102A2A009F51D8A41BEF15F01DEF15F0FAEF14F023
:102A3A001200200E2B6E0E5007E1200E0D5CD8B04E
:102A4A0029EF15F02BEF15F043EF15F00DC02BF021
:102A5A002750D8A433EF15F035EF15F039EF15F0FC
:102A6A00010E276E43EF15F02704D8A43FEF15F0A7
:102A7A0041EF15F043EF15F0020E276E2B500D5E55
:102A8A00000E0E5A20EE01F00F50D9261050DA220D
:102A9A002BC0DFFF500E0001826F040E836F0CB053
:102AAA0059EF15F05BEF15F09DEF15F078EF15F083
:102ABA0009C0F6FF0AC0F7FFF86A82C0D9FF83C0CF
:102ACA00DAFF070EF76403D00800F55005D0F6CFF9
:102ADA00E1FFF7CFE2FFE750DF6E094A0A2A000159
:102AEA00824B832B2B062B50D8A47EEF15F080EF58
:102AFA0015F05DEF15F0A5EF15F009C0F6FF0AC055
:102B0A00F7FFF86A82C0D9FF83C0DAFF070EF764BD
:102B1A0003D00800F55005D0F6CFE1FFF7CFE2FF6A
:102B2A00E750DF6E094A0A2A0001824B832B2B06E3
:102B3A002B50D8A4A3EF15F0A5EF15F082EF15F0EE
:102B4A001200000E0401506F000E516F03EF16F0D1
:102B5A000C8E2504D8A4B4EF15F0B6EF15F01EEFCD
:102B6A0016F0040150831EEF16F00C8E1EEF16F0BD
:102B7A000C8E040134BFC4EF15F0C6EF15F0D8EF80
:102B8A0015F034510F0B00019F6F9F51020D6A0E11
:102B9A00F324D96E000EF420DA6EDECFA1F0DDCF79
:102BAA00A2F0E8EF15F034510F0B00019F6F9F510F
:102BBA00020D0F0EF324D96E000EF420DA6EDECF6A
:102BCA00A1F0DDCFA2F0A1C0D9FFA2C0DAFFDFAE2B
:102BDA00F1EF15F0F3EF15F01EEF16F0A1C0D9FFD3
:102BEA00A2C0DAFFDFA4FCEF15F0FEEF15F01EEF2E
:102BFA0016F0010E0401506F1EEF16F030511F0B34
:102C0A0000019F6FA06BA051000AD8B40FEF16F015
:102C1A001EEF16F09F51000AD8B4ADEF15F0010A65
:102C2A00D8B4BAEF15F0030AD8B4BDEF15F01EEF09
:102C3A0016F00CAE23EF16F025EF16F02CEF16F077
:102C4A00500E096E040E0A6E0C80020E0D6E1200F2
:102C5A000FC0D9FF10C0DAFF000EDFBC010E000161
:102C6A00A06F040E0F180F6E1050106E080E281861
:102C7A00D8A442EF16F044EF16F056EF16F004010E
:102C8A0032517F0B6E6E6E50D8B44EEF16F050EF85
:102C9A0016F054EF16F0100E286E56EF16F0040ECA
:102CAA00286E2604D8A45CEF16F05EEF16F0A6EFA5
:102CBA0016F020EE02F00F50D9261050DA22500EEC
:102CCA00DE6E040EDD6E96EC14F0020E2718D8A400
:102CDA0071EF16F073EF16F081EF16F00FC0D9FFFF
:102CEA0010C0DAFF040EDF6E0FC0D9FF10C0DAFF82
:102CFA00000EDB8EB0EF16F00001A051D8A488EFC9
:102D0A0016F08AEF16F098EF16F00FC0D9FF10C030
:102D1A00DAFF480EDF6E0FC0D9FF10C0DAFF000ECF
:102D2A00DB8EB0EF16F00FC0D9FF10C0DAFF080E25
:102D3A00DF6E0FC0D9FF10C0DAFF000EDB8EB0EFD6
:102D4A0016F004AEABEF16F0ADEF16F0AEEF16F0DC
:102D5A00049E000E266E1200040130511F0BE80675
:102D6A00D8B4BAEF16F0BCEF16F0BEEF16F032EF99
:102D7A0017F03039E832030BE806D8B4C7EF16F07B
:102D8A00C9EF16F0CBEF16F032EF17F03451D8B482
:102D9A00D1EF16F0D3EF16F010EF17F03405D8B4D0
:102DAA00D9EF16F0DBEF16F010EF17F032EF17F04D
:102DBA008D0E096E000E0A6E000E0E6E080E0D6E56
:102DCA000C800C8E32EF17F08D0E096E000E0A6E13
:102DDA000C8E32EF17F036C405F037C406F0950EA4
:102DEA00016E000E026E000E076E000E086E048E53
:102DFA0032EF17F0950E096E000E0A6E000E0E6E77
:102E0A00070E0D6EC10E0C6E32EF17F032C484F04D
:102E1A000C8E32EF17F0315100019F6FA06BA05159
:102E2A00000AD8B41BEF17F032EF17F09F51000ACF
:102E3A00D8B4DDEF16F0010AD8B4E9EF16F0210A8A
:102E4A00D8B4F0EF16F0010AD8B4FFEF16F0030A6F
:102E5A00D8B40BEF17F032EF17F012000FC0D9FFFA
:102E6A0010C0DAFF000EDFBC010E2C6E040E0F1824
:102E7A000F6E1050106E080E2818D8A447EF17F0DE
:102E8A0049EF17F05BEF17F0040132517F0B6E6EBA
:102E9A006E50D8B453EF17F055EF17F059EF17F0FB
:102EAA00100E286E5BEF17F0040E286E2604D8A4C5
:102EBA0061EF17F063EF17F0AAEF17F020EE02F0B8
:102ECA000F50D9261050DA22500EDE6E040EDD6E37
:102EDA001EEC15F0020E2718D8A476EF17F078EF3B
:102EEA0017F086EF17F00FC0D9FF10C0DAFF040EF3
:102EFA00DF6E0FC0D9FF10C0DAFF000EDB8EB4EF11
:102F0A0017F02C50D8A48CEF17F08EEF17F09CEF27
:102F1A0017F00FC0D9FF10C0DAFF480EDF6E0FC0DE
:102F2A00D9FF10C0DAFF000EDB8EB4EF17F00FC026
:102F3A00D9FF10C0DAFF080EDF6E0FC0D9FF10C02C
:102F4A00DAFF000EDB8EB4EF17F004AEAFEF17F026
:102F5A00B1EF17F0B2EF17F0049E000E266E1200C2
:102F6A00000E0401506F000E516F0DEF18F00C8E19
:102F7A002504D8A4C3EF17F0C5EF17F027EF18F010
:102F8A00508327EF18F00C8E27EF18F00C8E34BF01
:102F9A00D1EF17F0D3EF17F0E4EF17F034510F0B1E
:102FAA002B6E2B50020D6A0EF324D96E000EF420FC
:102FBA00DA6EDECF2DF0DDCF2EF0F3EF17F03451BD
:102FCA000F0B2B6E2B50020D0F0EF324D96E000E31
:102FDA00F420DA6EDECF2DF0DDCF2EF02DC0D9FF32
:102FEA002EC0DAFFDFAEFCEF17F0FEEF17F027EF87
:102FFA0018F02DC0D9FF2EC0DAFFDFA407EF18F0B2
:10300A0009EF18F027EF18F0010E506F27EF18F0AC
:10301A0030511F0B2B6E2C6A2C50000AD8B418EFB3
:10302A0018F027EF18F02B50000AD8B4BCEF17F0AD
:10303A00010AD8B4C8EF17F0030AD8B4CBEF17F0D7
:10304A0027EF18F00CAE2CEF18F02EEF18F035EF32
:10305A0018F0500E096E040E0A6E0C80020E0D6EE8
:10306A001200040130511F0BE806D8B43FEF18F0E4
:10307A0041EF18F043EF18F0B6EF18F03039E832A4
:10308A00030BE806D8B44CEF18F04EEF18F050EFE7
:10309A0018F0B6EF18F03451D8B456EF18F058EFCC
:1030AA0018F095EF18F03405D8B45EEF18F060EF19
:1030BA0018F095EF18F0B6EF18F08D0E096E000EA5
:1030CA000A6E000E0E6E080E0D6E0C800C8EB6EF98
:1030DA0018F08D0E096E000E0A6E0C8EB6EF18F0FF
:1030EA0036C405F037C406F0950E016E000E026E66
:1030FA00000E076E000E086E048EB6EF18F0950EDD
:10310A00096E000E0A6E000E0E6E070E0D6EC10ECF
:10311A000C6EB6EF18F032C484F00C8EB6EF18F0CD
:10312A0031512B6E2C6A2C50000AD8B49FEF18F03C
:10313A00B6EF18F02B50000AD8B462EF18F0010A63
:10314A00D8B46EEF18F0210AD8B475EF18F0010A56
:10315A00D8B484EF18F0030AD8B490EF18F0B6EF99
:10316A0018F012002150D8A4BDEF18F0BFEF18F0E4
:10317A002EEF19F0010E216E2050D8A4C7EF18F0D7
:10318A00C9EF18F02EEF19F0010E206E020E261864
:10319A00D8A4D2EF18F0D4EF18F0EAEF18F020EE26
:1031AA0001F00F50D9261050DA22000EDF6E0FC040
:1031BA00D9FF10C0DAFF480EDF6E0FC0D9FF10C06A
:1031CA00DAFF000EDB8E2EEF19F02604D8A4F0EFFA
:1031DA0018F0F2EF18F02EEF19F0000E236E20EE21
:1031EA0001F01D50D9261E50DA22200EDF6E20EE85
:1031FA0002F01D50D9261E50DA22300EDE6E040E61
:10320A00DD6E1DC0D9FF1EC0DAFF040EDF6E1DC0C1
:10321A00D9FF1EC0DAFF000EDB8E010E236E20EEF0
:10322A0001F01B50D9261C50DA22200EDF6E20EE48
:10323A0002F01B50D9261C50DA22300EDE6E040E24
:10324A00DD6E1BC0D9FF1CC0DAFF800EDF6E2EEFC9
:10325A0019F012002150D8A435EF19F037EF19F000
:10326A00A6EF19F0010E216E2050D8A43FEF19F0F5
:10327A0041EF19F0A6EF19F0010E206E020E261882
:10328A00D8A44AEF19F04CEF19F062EF19F020EECA
:10329A0001F00F50D9261050DA22000EDF6E0FC04F
:1032AA00D9FF10C0DAFF480EDF6E0FC0D9FF10C079
:1032BA00DAFF000EDB8EA6EF19F02604D8A468EF19
:1032CA0019F06AEF19F0A6EF19F0000E236E20EE3E
:1032DA0001F01D50D9261E50DA22200EDF6E20EE94
:1032EA0002F01D50D9261E50DA22300EDE6E040E70
:1032FA00DD6E1DC0D9FF1EC0DAFF040EDF6E1DC0D1
:10330A00D9FF1EC0DAFF000EDB8E010E236E20EEFF
:10331A0001F01B50D9261C50DA22200EDF6E20EE57
:10332A0002F01B50D9261C50DA22300EDE6E040E33
:10333A00DD6E1BC0D9FF1CC0DAFF800EDF6EA6EF60
:10334A0019F012000C8E710E00019F6F0F0EA06F04
:10335A00000EA26F000EA16F000EA46F020EA36FE3
:10336A0087EC0BF0000E00019F6F040EA06F000E99
:10337A00A26F000EA16F000EA46F300EA36F87EC30
:10338A000BF06D8C000E0001B36F180EB325D96EC9
:10339A00DA6A000EDA22000EDF6E150EB325D96E38
:1033AA00DA6A000EDA22000EDF6EB32B020EB36564
:1033BA00E1EF19F0E3EF19F0CAEF19F09C0E9F6FD5
:1033CA00000EA06F000EA26F000EA16F000EA46F78
:1033DA00020EA36F87EC0BF06D9C080E0F6E040EA5
:1033EA00106E000E1D6E040E1E6E1DC01BF01EC058
:1033FA001CF032C42AF02A50D8A406EF1AF008EFBB
:10340A001AF00CEF1AF0100E286E1DEF1AF0000ECB
:10341A000001AC6F010EAB6F2A0EAD6F000EAE6FDE
:10342A00000EB06F010EAF6F38EC1DF0200E286E43
:10343A0012000C8E710E2B6E0F0E2C6E000E2E6E5D
:10344A00000E2D6E000E306E020E2F6E43EC0CF045
:10345A00000E2B6E040E2C6E000E2E6E000E2D6EBC
:10346A00000E306E300E2F6E43EC0CF06D8C000E99
:10347A003F6E180E3F24D96EDA6A000EDA22000E69
:10348A00DF6E150E3F24D96EDA6A000EDA22000EBC
:10349A00DF6E3F2A020E3F6455EF1AF057EF1AF01B
:1034AA003EEF1AF09C0E2B6E000E2C6E000E2E6E46
:1034BA00000E2D6E000E306E020E2F6E43EC0CF0D5
:1034CA006D9C080E0F6E040E106E000E1D6E040E1B
:1034DA001E6E1DC01BF01EC01CF032C42AF02A50FA
:1034EA00D8A47AEF1AF07CEF1AF080EF1AF0100ED7
:1034FA00286E90EF1AF0000E386E010E376E2A0E03
:10350A00396E000E3A6E000E3C6E010E3B6E7DEC7B
:10351A001DF0200E286E12002D0E00018B6F9EC02A
:10352A00BCF0FD0EBC17D8A49DEF1AF09FEF1AF05D
:10353A00E1EF1AF09EC0BCF0D890BC333F0EBC1726
:10354A00BC51040D000EF3241D6E040EF4201E6EF1
:10355A001DC01BF01EC01CF0040E1B181B6E1C5055
:10356A001C6E1DC0D9FF1EC0DAFFDF30E8320F0B18
:10357A000D0AD8A4C3EF1AF0C5EF1AF0DDEF1AF05E
:10358A00300E9F6F040EA06F20EE02F01D50D92658
:10359A001E50DA22DECFA1F0DDCFA2F0000EA46F1A
:1035AA00080EA36F7BEC1FF0A7EC1CF0EDEF1AF0EE
:1035BA00C1EC1DF0EDEF1AF09E51FD0B040AD8A4E0
:1035CA00E9EF1AF0EBEF1AF0EDEF1AF02DEC16F026
:1035DA0012002D0E00018B6F9EC048F0FD0E48169A
:1035EA00D8A4FAEF1AF0FCEF1AF03EEF1BF09EC0D7
:1035FA0048F0D89048323F0E48164850040D000E45
:10360A00F3241D6E040EF4201E6E1DC01BF01EC096
:10361A001CF0040E1B181B6E1C501C6E1DC0D9FF1B
:10362A001EC0DAFFDF30E8320F0B0D0AD8A420EFF4
:10363A001BF022EF1BF03AEF1BF0300E2B6E040E3C
:10364A002C6E20EE02F01D50D9261E50DA22DECF53
:10365A002DF0DDCF2EF0000E306E080E2F6EA4EC8A
:10366A001FF0F0EC1CF04AEF1BF0FBEC1DF04AEFE8
:10367A001BF09E51FD0B040AD8A446EF1BF048EF3D
:10368A001BF04AEF1BF033EC17F012000001A46F95
:10369A00000E0001A56F040EA66F9F51A06FA16BCB
:1036AA00D890A037A137A451A26FA36BD890A237A4
:1036BA00A337D890A237A337A051A227A151A32399
:1036CA00D890A237A337D890A237A337A251A527FB
:1036DA00A351A623A5C0D9FFA6C0DAFFDF9E9F513A
:1036EA00D8A47AEF1BF07CEF1BF08AEF1BF0A451F1
:1036FA00020D6A0EF324D96E000EF420DA6EA5C00C
:10370A00DEFFA6C0DDFF96EF1BF0A451020D0F0EDF
:10371A00F324D96E000EF420DA6EA5C0DEFFA6C02F
:10372A00DDFFA5C0D9FFA6C0DAFFDF9C20EE04F0BA
:10373A00A551D926A651DA22DF8C1200000E00010B
:10374A008A6F000E896F020E2618D8A4AFEF1BF0FD
:10375A00B1EF1BF0D1EF1BF020EE01F01B50D92680
:10376A001C50DA22200EDF6E20EE02F01B50D92602
:10377A001C50DA22500EDE6E040EDD6E1BC0D9FF1D
:10378A001CC0DAFF480EDF6E1BC0D9FF1CC0DAFF6F
:10379A00000EDB8EF9EF1BF00D500401365D0E5062
:1037AA003759D8B0DBEF1BF0DDEF1BF0E1EF1BF070
:1037BA0036C40DF037C40EF096EC14F020EE02F089
:1037CA000F50D9261050DA22500EDE6E040EDD6E2E
:1037DA000FC0D9FF10C0DAFF480EDF6E0FC0D9FF45
:1037EA0010C0DAFF000EDB8E1200000E00018A6F95
:1037FA00000E896F020E2618D8A406EF1CF008EFF7
:10380A001CF028EF1CF020EE01F01B50D9261C50AA
:10381A00DA22200EDF6E20EE02F01B50D9261C5051
:10382A00DA22500EDE6E040EDD6E1BC0D9FF1CC0FC
:10383A00DAFF480EDF6E1BC0D9FF1CC0DAFF000E8C
:10384A00DB8E50EF1CF00D500401365D0E503759D7
:10385A00D8B032EF1CF034EF1CF038EF1CF036C44D
:10386A000DF037C40EF01EEC15F020EE02F00F50EA
:10387A00D9261050DA22500EDE6E040EDD6E0FC00D
:10388A00D9FF10C0DAFF480EDF6E0FC0D9FF10C093
:10389A00DAFF000EDB8E1200306E000E316E040E5F
:1038AA00326E2B502C6E2D6AD8902C362D36305015
:1038BA002E6E2F6AD8902E362F36D8902E362F3667
:1038CA002C502E262D502F22D8902E362F36D890B7
:1038DA002E362F362E5031262F50322231C0D9FFA4
:1038EA0032C0DAFFDF9E2B50D8A47EEF1CF080EFA7
:1038FA001CF08EEF1CF03050020D6A0EF324D96EC4
:10390A00000EF420DA6E31C0DEFF32C0DDFF9AEF1E
:10391A001CF03050020D0F0EF324D96E000EF42065
:10392A00DA6E31C0DEFF32C0DDFF31C0D9FF32C0EE
:10393A00DAFFDF9C20EE04F03150D9263250DA2229
:10394A00DF8C1200000E276E000E226E000E0001A0
:10395A008A6F000E896F000E236E000E266E0FC04E
:10396A00D9FF10C0DAFF7F0EDF16040E0F180F6E94
:10397A001050106E0FC0D9FF10C0DAFF7F0EDF168D
:10398A00040E0F180F6E1050106E1BC0D9FF1CC00A
:10399A00DAFF7F0EDF16000E0C6E000E0E6E000EA2
:1039AA000D6E000E046E000E066E000E056E77ECAC
:1039BA0013F0000E0001AC6F030EAB6F000EAD6F7B
:1039CA00000EAE6F000EB06F000EAF6F38EC1DF038
:1039DA00B0EC0FF01200000E276E000E226E000EE1
:1039EA0000018A6F000E896F000E236E000E266E8C
:1039FA000FC0D9FF10C0DAFF7F0EDF16040E0F18B2
:103A0A000F6E1050106E0FC0D9FF10C0DAFF7F0E74
:103A1A00DF16040E0F180F6E1050106E1BC0D9FF60
:103A2A001CC0DAFF7F0EDF16000E0C6E000E0E6E43
:103A3A00000E0D6E000E046E000E066E000E056E70
:103A4A0008EC14F0000E386E030E376E000E396E55
:103A5A00000E3A6E000E3C6E000E3B6E7DEC1DF0C1
:103A6A00F4EC10F0120042EF1DF035EC1EF07CEF82
:103A7A001DF0B1EC16F07CEF1DF0ABC0B1F0ACC09C
:103A8A00B2F00001B251000AD8B452EF1DF07F0A19
:103A9A00D8B475EF1DF07CEF1DF0B151010AD8B40E
:103AAA003AEF1DF0030AD8B47CEF1DF0010AD8B42E
:103ABA003EEF1DF0060AD8B47CEF1DF0770AD8B4A1
:103ACA007CEF1DF0010AD8B47CEF1DF0070AD8B4C8
:103ADA007CEF1DF0010AD8B47CEF1DF07CEF1DF0DD
:103AEA00B151FF0AD8B47CEF1DF07CEF1DF0120033
:103AFA0087EF1DF069EC1EF0C0EF1DF036EC18F0F0
:103B0A00C0EF1DF037C03DF038C03EF03E50000A0D
:103B1A00D8B496EF1DF07F0AD8B4B9EF1DF0C0EF04
:103B2A001DF03D50010AD8B47FEF1DF0030AD8B446
:103B3A00C0EF1DF0010AD8B483EF1DF0060AD8B40D
:103B4A00C0EF1DF0770AD8B4C0EF1DF0010AD8B44F
:103B5A00C0EF1DF0070AD8B4C0EF1DF0010AD8B4AF
:103B6A00C0EF1DF0C0EF1DF03D50FF0AD8B4C0EF02
:103B7A001DF0C0EF1DF01200020E2618D8A4C8EFDF
:103B8A001DF0CAEF1DF0CEEF1DF052EC10F0FAEF67
:103B9A001DF0000E266E2350D8A4D6EF1DF0D8EFE4
:103BAA001DF0F8EF1DF020EE01F01B50D9261C5035
:103BBA00DA22200EDF6E20EE02F01B50D9261C50AE
:103BCA00DA22300EDE6E040EDD6E1BC0D9FF1CC079
:103BDA00DAFF0C0EDF6E1BC0D9FF1CC0DAFF000E25
:103BEA00DB8EFAEF1DF0000E236E1200020E26186D
:103BFA00D8A402EF1EF004EF1EF008EF1EF037EC17
:103C0A0012F034EF1EF0000E266E2350D8A410EFE7
:103C1A001EF012EF1EF032EF1EF020EE01F01B50E4
:103C2A00D9261C50DA22200EDF6E20EE02F01B503D
:103C3A00D9261C50DA22300EDE6E040EDD6E1BC051
:103C4A00D9FF1CC0DAFF0C0EDF6E1BC0D9FF1CC0E7
:103C5A00DAFF000EDB8E34EF1EF0000E236E120028
:103C6A00000E0001956F4B0E966F000E976F000EB7
:103C7A00986F000E996F000E9A6F080E9B6F000ED8
:103C8A00876F1A0EA76F010E28EC1FF01E0E000197
:103C9A00A76F020E28EC1FF0000E00019F6F400E66
:103CAA00A06F050EA16F400EA26F020E96EC11F0E6
:103CBA009FC080F0A0C081F0000E00017E6F000E50
:103CCA007F6F000E1F6E1200000E0001956F4B0EE3
:103CDA00966F000E976F000E986F000E996F000E88
:103CEA009A6F080E9B6F000E876F1A0E336E010EC5
:103CFA00CCEC1FF01E0E336E020ECCEC1FF0000E41
:103D0A002B6E400E2C6E050E2D6E400E2E6E020E80
:103D1A00D8EC12F02BC080F02CC081F0000E00010C
:103D2A007E6F000E7F6F000E1F6E120070A0A0EF54
:103D3A001EF0A2EF1EF0C9EF1EF01DC0D9FF1EC073
:103D4A00DAFF800EDE18D8A4ADEF1EF0AFEF1EF03A
:103D5A00C8EF1EF00FC0D9FF10C0DAFF840EDE18BC
:103D6A00D8A4BAEF1EF0BCEF1EF0C8EF1EF01DC0BB
:103D7A00D9FF1EC0DAFF0C0EDF6E1DC0D9FF1EC0B0
:103D8A00DAFF000EDB8E7090689A120070A0D0EFF6
:103D9A001EF0D2EF1EF0F9EF1EF01DC0D9FF1EC0B3
:103DAA00DAFF800EDE18D8A4DDEF1EF0DFEF1EF07A
:103DBA00F8EF1EF00FC0D9FF10C0DAFF840EDE182C
:103DCA00D8A4EAEF1EF0ECEF1EF0F8EF1EF01DC0CB
:103DDA00D9FF1EC0DAFF0C0EDF6E1DC0D9FF1EC050
:103DEA00DAFF000EDB8E7090689A12000600E1CFAF
:103DFA004AF0E2CF4BF0D9CF4CF0DACF4DF0F3CF07
:103E0A004EF0F4CF4FF0F6CF50F0F7CF51F0F8CF95
:103E1A0052F0F5CF53F0A4EC20F053C0F5FF52C096
:103E2A00F8FF51C0F7FF50C0F6FF4FC0F4FF4EC075
:103E3A00F3FF4DC0DAFF4CC0D9FF4BC0E2FF4AC0C6
:103E4A00E1FF549211000001AA6F0001A7A530EF0B
:103E5A001FF032EF1FF037EF1FF0000E9F6FAA51CD
:103E6A004BEC1BF00001A7A33DEF1FF03FEF1FF043
:103E7A0044EF1FF0010E9F6FAA514BEC1BF0700E1E
:103E8A000001AA25A86FA96B0F0EA923A8C0D9FF04
:103E9A00A9C0DAFFA7C0DFFF1200A80EF66E420E15
:103EAA00F76E000EF86E00EEC6F010EE25F009006F
:103EBA00F5CFEEFFE550E150FAE101EE00F0400ED9
:103ECA00EE6AE806FDE100EE60F03F0EEE6AE806F3
:103EDA00FDE100EE01F02A0EEE6AE806FDE15490DB
:103EEA005492000EF86E0001E1EF09F0A1C0A8F0AB
:103EFA00A2C0A9F09FC0A6F0A0C0A7F095EF1FF03E
:103F0A00A8C0D9FFA9C0DAFFDF50A56FA84BA92B1B
:103F1A00A6C0D9FFA7C0DAFFA5C0DFFFA64BA72B13
:103F2A000001A307D8A0A407A32906E1A429D8A4BD
:103F3A00A1EF1FF0A3EF1FF085EF1FF012002DC0B5
:103F4A0033F02EC034F02BC031F02CC032F0BEEF6B
:103F5A001FF033C0D9FF34C0DAFFDF50356E334A61
:103F6A00342A31C0D9FF32C0DAFF35C0DFFF314A07
:103F7A00322A2F06D8A030062F2806E13028D8A4E6
:103F8A00C9EF1FF0CBEF1FF0AEEF1FF01200366E35
:103F9A0033A4D2EF1FF0D4EF1FF0D9EF1FF0000EB9
:103FAA002B6E365051EC1CF033A2DEEF1FF0E0EF1F
:103FBA001FF0E5EF1FF0010E2B6E365051EC1CF08E
:103FCA00700E3624346E356A0F0E352234C0D9FF8E
:103FDA0035C0DAFF33C0DFFF12002850D8A4F8EF4B
:103FEA001FF0FAEF1FF012EF20F0000E6D6E000EB8
:103FFA00696E160E6F6E9F0E6B6E7B0E696EA28ACD
:10400A00A08A09EF20F06D866DA60EEF20F010EF62
:10401A0020F008EF20F0010E286E1200000E246E28
:10402A00000E0001AC6F740EAB6F000EAD6F000E88
:10403A00AE6F000EB06F000EAF6F38EC1DF06D92D0
:10404A00699429EF20F0689468B42EEF20F030EFDD
:10405A0020F028EF20F0000E0001886F1200000EF9
:10406A00246E000E386E740E376E000E396E000E16
:10407A003A6E000E3C6E000E3B6E7DEC1DF06D92AA
:10408A00699449EF20F0689468B44EEF20F050EF3D
:10409A0020F048EF20F0000E0001886F12001F0E7A
:1040AA0028645AEF20F05CEF20F069EF20F06DB23F
:1040BA0061EF20F063EF20F069EF20F0000E0001BD
:1040CA00A06F9F696EEF20F0000E0001A06F000E36
:1040DA009F6F9F511200010E00017427000E752375
:1040EA00762377232450D8A47DEF20F07FEF20F0A9
:1040FA0089EF20F0882B8851D8A486EF20F088EF2A
:10410A0020F089EF20F088691200010E000174275F
:10411A00000E7523762377232450D8A497EF20F036
:10412A0099EF20F0A3EF20F0882B8851D8A4A0EFB4
:10413A0020F0A2EF20F0A3EF20F088691200F2AC81
:10414A00A9EF20F0ABEF20F0BBEF20F0A0AAB0EF70
:10415A0020F0B2EF20F0BBEF20F0A1AAB7EF20F0D9
:10416A00B9EF20F0BBEF20F0CDEC08F01200698423
:10417A0068986D82010E246E000E0001886F000E91
:10418A00AC6F750EAB6F000EAD6F000EAE6F000E0A
:10419A00B06F000EAF6F38EC1DF01200698468989A
:1041AA006D82010E246E000E0001886F000E386EBB
:1041BA00750E376E000E396E000E3A6E000E3C6EAA
:1041CA00000E3B6E7DEC1DF01200A09A1F50D8A481
:1041DA00F1EF20F0F3EF20F0FEEF20F09FC07BF02C
:1041EA00A0C07CF0A1C086F0010E0001856F010E0F
:1041FA001F6EA08A120020EEC6F010EEACF00B0E75
:10420A00DBCFE3FFE806FCE2AC0E00019F6F000E75
:10421A00A06F0B0EA16FEAEC20F0BBEC0AF01200C3
:10422A0020EED2F010EEACF0090EDBCFE3FFE80689
:10423A00FCE2AC0E00019F6F000EA06F090EA16F89
:10424A00EAEC20F0BBEC0AF0120020EEDCF010EEF3
:10425A00ACF0070EDBCFE3FFE806FCE2AC0E000190
:10426A009F6F000EA06F070EA16FEAEC20F0BBEC67
:10427A000AF0120020EEE4F010EEACF0060EDBCFEE
:10428A00E3FFE806FCE2AC0E00019F6F000EA06F90
:10429A00060EA16FEAEC20F0BBEC0AF012005245C0
:1042AA005052454E4452450D0A0051554954544501
:1042BA00520D0A0050415553450D0A00464C4150D3
:0342CA000D0A00DA
:1042CE00F28EF28C64EC0EF0F2EC1FF01200010E86
:1042DE00296E83A6296B29501200010E296E83A424
:1042EE00296B29501200010E296E83A2296B2950C9
:0E42FE001200010E296E83A0296B29501200B8
:020000040020DA
:08000000FFFFFFFFFFFFFFFF00
:020000040030CA
:0E000000210E391EFF8381FF0FC00FE00F405D
:00000001FF
